{
  "contractName": "DepositManager",
  "abi": [
    {
      "inputs": [
        {
          "internalType": "contract WTON",
          "name": "wton",
          "type": "address"
        },
        {
          "internalType": "contract RootChainRegistryI",
          "name": "registry",
          "type": "address"
        },
        {
          "internalType": "uint256",
          "name": "WITHDRAWAL_DELAY",
          "type": "uint256"
        }
      ],
      "payable": false,
      "stateMutability": "nonpayable",
      "type": "constructor"
    },
    {
      "anonymous": false,
      "inputs": [
        {
          "indexed": true,
          "internalType": "address",
          "name": "rootchain",
          "type": "address"
        },
        {
          "indexed": false,
          "internalType": "address",
          "name": "depositor",
          "type": "address"
        },
        {
          "indexed": false,
          "internalType": "uint256",
          "name": "amount",
          "type": "uint256"
        }
      ],
      "name": "Deposited",
      "type": "event"
    },
    {
      "anonymous": false,
      "inputs": [
        {
          "indexed": true,
          "internalType": "address",
          "name": "previousOwner",
          "type": "address"
        },
        {
          "indexed": true,
          "internalType": "address",
          "name": "newOwner",
          "type": "address"
        }
      ],
      "name": "OwnershipTransferred",
      "type": "event"
    },
    {
      "anonymous": false,
      "inputs": [
        {
          "indexed": true,
          "internalType": "address",
          "name": "rootchain",
          "type": "address"
        },
        {
          "indexed": false,
          "internalType": "address",
          "name": "depositor",
          "type": "address"
        },
        {
          "indexed": false,
          "internalType": "uint256",
          "name": "amount",
          "type": "uint256"
        }
      ],
      "name": "WithdrawalProcessed",
      "type": "event"
    },
    {
      "anonymous": false,
      "inputs": [
        {
          "indexed": true,
          "internalType": "address",
          "name": "rootchain",
          "type": "address"
        },
        {
          "indexed": false,
          "internalType": "address",
          "name": "depositor",
          "type": "address"
        },
        {
          "indexed": false,
          "internalType": "uint256",
          "name": "amount",
          "type": "uint256"
        }
      ],
      "name": "WithdrawalRequested",
      "type": "event"
    },
    {
      "constant": true,
      "inputs": [],
      "name": "isOwner",
      "outputs": [
        {
          "internalType": "bool",
          "name": "",
          "type": "bool"
        }
      ],
      "payable": false,
      "stateMutability": "view",
      "type": "function"
    },
    {
      "constant": true,
      "inputs": [],
      "name": "owner",
      "outputs": [
        {
          "internalType": "address",
          "name": "",
          "type": "address"
        }
      ],
      "payable": false,
      "stateMutability": "view",
      "type": "function"
    },
    {
      "constant": false,
      "inputs": [],
      "name": "renounceOwnership",
      "outputs": [],
      "payable": false,
      "stateMutability": "nonpayable",
      "type": "function"
    },
    {
      "constant": true,
      "inputs": [
        {
          "internalType": "bytes4",
          "name": "interfaceId",
          "type": "bytes4"
        }
      ],
      "name": "supportsInterface",
      "outputs": [
        {
          "internalType": "bool",
          "name": "",
          "type": "bool"
        }
      ],
      "payable": false,
      "stateMutability": "view",
      "type": "function"
    },
    {
      "constant": false,
      "inputs": [
        {
          "internalType": "address",
          "name": "newOwner",
          "type": "address"
        }
      ],
      "name": "transferOwnership",
      "outputs": [],
      "payable": false,
      "stateMutability": "nonpayable",
      "type": "function"
    },
    {
      "constant": false,
      "inputs": [
        {
          "internalType": "contract SeigManagerI",
          "name": "seigManager",
          "type": "address"
        }
      ],
      "name": "setSeigManager",
      "outputs": [],
      "payable": false,
      "stateMutability": "nonpayable",
      "type": "function"
    },
    {
      "constant": false,
      "inputs": [
        {
          "internalType": "address",
          "name": "owner",
          "type": "address"
        },
        {
          "internalType": "address",
          "name": "spender",
          "type": "address"
        },
        {
          "internalType": "uint256",
          "name": "amount",
          "type": "uint256"
        },
        {
          "internalType": "bytes",
          "name": "data",
          "type": "bytes"
        }
      ],
      "name": "onApprove",
      "outputs": [
        {
          "internalType": "bool",
          "name": "",
          "type": "bool"
        }
      ],
      "payable": false,
      "stateMutability": "nonpayable",
      "type": "function"
    },
    {
      "constant": false,
      "inputs": [
        {
          "internalType": "address",
          "name": "rootchain",
          "type": "address"
        },
        {
          "internalType": "uint256",
          "name": "amount",
          "type": "uint256"
        }
      ],
      "name": "deposit",
      "outputs": [
        {
          "internalType": "bool",
          "name": "",
          "type": "bool"
        }
      ],
      "payable": false,
      "stateMutability": "nonpayable",
      "type": "function"
    },
    {
      "constant": false,
      "inputs": [
        {
          "internalType": "address",
          "name": "rootchain",
          "type": "address"
        }
      ],
      "name": "redeposit",
      "outputs": [
        {
          "internalType": "bool",
          "name": "",
          "type": "bool"
        }
      ],
      "payable": false,
      "stateMutability": "nonpayable",
      "type": "function"
    },
    {
      "constant": false,
      "inputs": [
        {
          "internalType": "address",
          "name": "rootchain",
          "type": "address"
        },
        {
          "internalType": "uint256",
          "name": "n",
          "type": "uint256"
        }
      ],
      "name": "redepositMulti",
      "outputs": [
        {
          "internalType": "bool",
          "name": "",
          "type": "bool"
        }
      ],
      "payable": false,
      "stateMutability": "nonpayable",
      "type": "function"
    },
    {
      "constant": false,
      "inputs": [
        {
          "internalType": "address",
          "name": "rootchain",
          "type": "address"
        },
        {
          "internalType": "uint256",
          "name": "amount",
          "type": "uint256"
        }
      ],
      "name": "requestWithdrawal",
      "outputs": [
        {
          "internalType": "bool",
          "name": "",
          "type": "bool"
        }
      ],
      "payable": false,
      "stateMutability": "nonpayable",
      "type": "function"
    },
    {
      "constant": false,
      "inputs": [
        {
          "internalType": "address",
          "name": "rootchain",
          "type": "address"
        },
        {
          "internalType": "bool",
          "name": "receiveTON",
          "type": "bool"
        }
      ],
      "name": "processRequest",
      "outputs": [
        {
          "internalType": "bool",
          "name": "",
          "type": "bool"
        }
      ],
      "payable": false,
      "stateMutability": "nonpayable",
      "type": "function"
    },
    {
      "constant": false,
      "inputs": [
        {
          "internalType": "address",
          "name": "rootchain",
          "type": "address"
        }
      ],
      "name": "requestWithdrawalAll",
      "outputs": [
        {
          "internalType": "bool",
          "name": "",
          "type": "bool"
        }
      ],
      "payable": false,
      "stateMutability": "nonpayable",
      "type": "function"
    },
    {
      "constant": false,
      "inputs": [
        {
          "internalType": "address",
          "name": "rootchain",
          "type": "address"
        },
        {
          "internalType": "uint256",
          "name": "n",
          "type": "uint256"
        },
        {
          "internalType": "bool",
          "name": "receiveTON",
          "type": "bool"
        }
      ],
      "name": "processRequests",
      "outputs": [
        {
          "internalType": "bool",
          "name": "",
          "type": "bool"
        }
      ],
      "payable": false,
      "stateMutability": "nonpayable",
      "type": "function"
    },
    {
      "constant": true,
      "inputs": [
        {
          "internalType": "address",
          "name": "rootchain",
          "type": "address"
        },
        {
          "internalType": "address",
          "name": "account",
          "type": "address"
        }
      ],
      "name": "numRequests",
      "outputs": [
        {
          "internalType": "uint256",
          "name": "",
          "type": "uint256"
        }
      ],
      "payable": false,
      "stateMutability": "view",
      "type": "function"
    },
    {
      "constant": true,
      "inputs": [
        {
          "internalType": "address",
          "name": "rootchain",
          "type": "address"
        },
        {
          "internalType": "address",
          "name": "account",
          "type": "address"
        }
      ],
      "name": "numPendingRequests",
      "outputs": [
        {
          "internalType": "uint256",
          "name": "",
          "type": "uint256"
        }
      ],
      "payable": false,
      "stateMutability": "view",
      "type": "function"
    },
    {
      "constant": true,
      "inputs": [],
      "name": "wton",
      "outputs": [
        {
          "internalType": "address",
          "name": "",
          "type": "address"
        }
      ],
      "payable": false,
      "stateMutability": "view",
      "type": "function"
    },
    {
      "constant": true,
      "inputs": [],
      "name": "registry",
      "outputs": [
        {
          "internalType": "address",
          "name": "",
          "type": "address"
        }
      ],
      "payable": false,
      "stateMutability": "view",
      "type": "function"
    },
    {
      "constant": true,
      "inputs": [],
      "name": "seigManager",
      "outputs": [
        {
          "internalType": "address",
          "name": "",
          "type": "address"
        }
      ],
      "payable": false,
      "stateMutability": "view",
      "type": "function"
    },
    {
      "constant": true,
      "inputs": [
        {
          "internalType": "address",
          "name": "rootchain",
          "type": "address"
        },
        {
          "internalType": "address",
          "name": "account",
          "type": "address"
        }
      ],
      "name": "accStaked",
      "outputs": [
        {
          "internalType": "uint256",
          "name": "wtonAmount",
          "type": "uint256"
        }
      ],
      "payable": false,
      "stateMutability": "view",
      "type": "function"
    },
    {
      "constant": true,
      "inputs": [
        {
          "internalType": "address",
          "name": "rootchain",
          "type": "address"
        }
      ],
      "name": "accStakedRootChain",
      "outputs": [
        {
          "internalType": "uint256",
          "name": "wtonAmount",
          "type": "uint256"
        }
      ],
      "payable": false,
      "stateMutability": "view",
      "type": "function"
    },
    {
      "constant": true,
      "inputs": [
        {
          "internalType": "address",
          "name": "account",
          "type": "address"
        }
      ],
      "name": "accStakedAccount",
      "outputs": [
        {
          "internalType": "uint256",
          "name": "wtonAmount",
          "type": "uint256"
        }
      ],
      "payable": false,
      "stateMutability": "view",
      "type": "function"
    },
    {
      "constant": true,
      "inputs": [
        {
          "internalType": "address",
          "name": "rootchain",
          "type": "address"
        },
        {
          "internalType": "address",
          "name": "account",
          "type": "address"
        }
      ],
      "name": "pendingUnstaked",
      "outputs": [
        {
          "internalType": "uint256",
          "name": "wtonAmount",
          "type": "uint256"
        }
      ],
      "payable": false,
      "stateMutability": "view",
      "type": "function"
    },
    {
      "constant": true,
      "inputs": [
        {
          "internalType": "address",
          "name": "rootchain",
          "type": "address"
        }
      ],
      "name": "pendingUnstakedRootChain",
      "outputs": [
        {
          "internalType": "uint256",
          "name": "wtonAmount",
          "type": "uint256"
        }
      ],
      "payable": false,
      "stateMutability": "view",
      "type": "function"
    },
    {
      "constant": true,
      "inputs": [
        {
          "internalType": "address",
          "name": "account",
          "type": "address"
        }
      ],
      "name": "pendingUnstakedAccount",
      "outputs": [
        {
          "internalType": "uint256",
          "name": "wtonAmount",
          "type": "uint256"
        }
      ],
      "payable": false,
      "stateMutability": "view",
      "type": "function"
    },
    {
      "constant": true,
      "inputs": [
        {
          "internalType": "address",
          "name": "rootchain",
          "type": "address"
        },
        {
          "internalType": "address",
          "name": "account",
          "type": "address"
        }
      ],
      "name": "accUnstaked",
      "outputs": [
        {
          "internalType": "uint256",
          "name": "wtonAmount",
          "type": "uint256"
        }
      ],
      "payable": false,
      "stateMutability": "view",
      "type": "function"
    },
    {
      "constant": true,
      "inputs": [
        {
          "internalType": "address",
          "name": "rootchain",
          "type": "address"
        }
      ],
      "name": "accUnstakedRootChain",
      "outputs": [
        {
          "internalType": "uint256",
          "name": "wtonAmount",
          "type": "uint256"
        }
      ],
      "payable": false,
      "stateMutability": "view",
      "type": "function"
    },
    {
      "constant": true,
      "inputs": [
        {
          "internalType": "address",
          "name": "account",
          "type": "address"
        }
      ],
      "name": "accUnstakedAccount",
      "outputs": [
        {
          "internalType": "uint256",
          "name": "wtonAmount",
          "type": "uint256"
        }
      ],
      "payable": false,
      "stateMutability": "view",
      "type": "function"
    },
    {
      "constant": true,
      "inputs": [
        {
          "internalType": "address",
          "name": "rootchain",
          "type": "address"
        },
        {
          "internalType": "address",
          "name": "account",
          "type": "address"
        }
      ],
      "name": "withdrawalRequestIndex",
      "outputs": [
        {
          "internalType": "uint256",
          "name": "index",
          "type": "uint256"
        }
      ],
      "payable": false,
      "stateMutability": "view",
      "type": "function"
    },
    {
      "constant": true,
      "inputs": [
        {
          "internalType": "address",
          "name": "rootchain",
          "type": "address"
        },
        {
          "internalType": "address",
          "name": "account",
          "type": "address"
        },
        {
          "internalType": "uint256",
          "name": "index",
          "type": "uint256"
        }
      ],
      "name": "withdrawalRequest",
      "outputs": [
        {
          "internalType": "uint128",
          "name": "withdrawableBlockNumber",
          "type": "uint128"
        },
        {
          "internalType": "uint128",
          "name": "amount",
          "type": "uint128"
        },
        {
          "internalType": "bool",
          "name": "processed",
          "type": "bool"
        }
      ],
      "payable": false,
      "stateMutability": "view",
      "type": "function"
    },
    {
      "constant": true,
      "inputs": [],
      "name": "WITHDRAWAL_DELAY",
      "outputs": [
        {
          "internalType": "uint256",
          "name": "",
          "type": "uint256"
        }
      ],
      "payable": false,
      "stateMutability": "view",
      "type": "function"
    }
  ],
  "bytecode": "0x60806040523480156200001157600080fd5b506040516200254338038062002543833981810160405260608110156200003757600080fd5b508051602082015160409092015190919060006200005d6001600160e01b036200014816565b600080546001600160a01b0319166001600160a01b0383169081178255604051929350917f8be0079c531659141344cd1fd0a4f28419497f9722a3daafe3b4186f6b6457e0908290a350620000db7f01ffc9a7000000000000000000000000000000000000000000000000000000006001600160e01b036200014c16565b6200010f7f4273ca16000000000000000000000000000000000000000000000000000000006001600160e01b036200014c16565b600280546001600160a01b039485166001600160a01b03199182161790915560038054939094169216919091179091556010556200021e565b3390565b7fffffffff000000000000000000000000000000000000000000000000000000008082161415620001de57604080517f08c379a000000000000000000000000000000000000000000000000000000000815260206004820152601c60248201527f4552433136353a20696e76616c696420696e7465726661636520696400000000604482015290519081900360640190fd5b7fffffffff00000000000000000000000000000000000000000000000000000000166000908152600160208190526040909120805460ff19169091179055565b612315806200022e6000396000f3fe608060405234801561001057600080fd5b50600436106101e45760003560e01c80638d62d9491161010f578063b8bee628116100a2578063e8035ec911610071578063e8035ec914610646578063f2fde38b1461066c578063f762eb5714610692578063fb0713b1146106c0576101e4565b8063b8bee62814610598578063c20a44c6146105be578063c647f26e146105ec578063da95ebf71461061a576101e4565b80639d91b87b116100de5780639d91b87b146104f8578063a0b2a91314610526578063a35439891461054c578063a8f3fb9814610572576101e4565b80638d62d9491461047e5780638da5cb5b146104865780638f32d59b1461048e5780638fbef2d014610496576101e4565b8063445e83b9116101875780636fb7f558116101565780636fb7f55814610422578063715018a6146104465780637657f20a146104505780637b10399914610476576101e4565b8063445e83b91461037657806347e7ef24146103a25780635c0df46b146103ce5780636b2160b7146103fc576101e4565b80630ebb172a116101c35780630ebb172a146102825780632638fdf51461028a5780632d2fab94146102b85780634273ca16146102e6576101e4565b806255f5c1146101e957806301ffc9a71461022157806303dc65101461025c575b600080fd5b61020f600480360360208110156101ff57600080fd5b50356001600160a01b03166106f4565b60408051918252519081900360200190f35b6102486004803603602081101561023757600080fd5b50356001600160e01b03191661070f565b604080519115158252519081900360200190f35b61020f6004803603602081101561027257600080fd5b50356001600160a01b031661072e565b61020f610749565b61020f600480360360408110156102a057600080fd5b506001600160a01b038135811691602001351661074f565b61020f600480360360408110156102ce57600080fd5b506001600160a01b038135811691602001351661077c565b610248600480360360808110156102fc57600080fd5b6001600160a01b0382358116926020810135909116916040820135919081019060808101606082013564010000000081111561033757600080fd5b82018360208201111561034957600080fd5b8035906020019184600183028401116401000000008311171561036b57600080fd5b5090925090506107a7565b6102486004803603604081101561038c57600080fd5b506001600160a01b038135169060200135610857565b610248600480360360408110156103b857600080fd5b506001600160a01b038135169060200135610896565b61020f600480360360408110156103e457600080fd5b506001600160a01b03813581169160200135166108ac565b6102486004803603602081101561041257600080fd5b50356001600160a01b0316610902565b61042a610a21565b604080516001600160a01b039092168252519081900360200190f35b61044e610a30565b005b61044e6004803603602081101561046657600080fd5b50356001600160a01b0316610ad3565b61042a610b96565b61042a610ba5565b61042a610bb4565b610248610bc3565b6104cc600480360360608110156104ac57600080fd5b506001600160a01b03813581169160208101359091169060400135610be7565b604080516001600160801b03948516815292909316602083015215158183015290519081900360600190f35b61020f6004803603604081101561050e57600080fd5b506001600160a01b0381358116916020013516610ce2565b61020f6004803603602081101561053c57600080fd5b50356001600160a01b0316610d0d565b61020f6004803603602081101561056257600080fd5b50356001600160a01b0316610d28565b61020f6004803603602081101561058857600080fd5b50356001600160a01b0316610d43565b610248600480360360208110156105ae57600080fd5b50356001600160a01b0316610d5e565b610248600480360360408110156105d457600080fd5b506001600160a01b0381351690602001351515610d97565b61020f6004803603604081101561060257600080fd5b506001600160a01b0381358116916020013516610daa565b6102486004803603604081101561063057600080fd5b506001600160a01b038135169060200135610dd5565b61020f6004803603602081101561065c57600080fd5b50356001600160a01b0316610de1565b61044e6004803603602081101561068257600080fd5b50356001600160a01b0316610dfc565b61020f600480360360408110156106a857600080fd5b506001600160a01b0381358116916020013516610e61565b610248600480360360608110156106d657600080fd5b506001600160a01b0381351690602081013590604001351515610e8c565b6001600160a01b031660009081526007602052604090205490565b6001600160e01b03191660009081526001602052604090205460ff1690565b6001600160a01b03166000908152600c602052604090205490565b60105490565b6001600160a01b038083166000908152600860209081526040808320938516835292905220545b92915050565b6001600160a01b03918216600090815260056020908152604080832093909416825291909152205490565b6002546000906001600160a01b031633146107f35760405162461bcd60e51b815260040180806020018281038252603181526020018061225e6031913960400191505060405180910390fd5b600061083484848080601f016020809104026020016040519081016040528093929190818152602001838380828437600092019190915250610ebe92505050565b9050610841818887610ed6565b61084a57600080fd5b5060019695505050505050565b6001600160a01b0382166000908152600f60209081526040808320338452909152812054610886848285611122565b61088f57600080fd5b5092915050565b60006108a3833384610ed6565b61077657600080fd5b6001600160a01b038083166000818152600e6020908152604080832094861680845294825280832054938352600f825280832094835293905291822054816108f957600092505050610776565b90039392505050565b600354604080516302a1529960e01b81526001600160a01b0380851660048301529151600093859316916302a15299916024808301926020929190829003018186803b15801561095157600080fd5b505afa158015610965573d6000803e3d6000fd5b505050506040513d602081101561097b57600080fd5b505161098657600080fd5b60048054604080516367265c3b60e11b81526001600160a01b038781169482019490945233602482015290516000939092169163ce4cb87691604480820192602092909190829003018186803b1580156109df57600080fd5b505afa1580156109f3573d6000803e3d6000fd5b505050506040513d6020811015610a0957600080fd5b50519050610a1784826115fd565b9250505b50919050565b6004546001600160a01b031690565b610a38610bc3565b610a89576040805162461bcd60e51b815260206004820181905260248201527f4f776e61626c653a2063616c6c6572206973206e6f7420746865206f776e6572604482015290519081900360640190fd5b600080546040516001600160a01b03909116907f8be0079c531659141344cd1fd0a4f28419497f9722a3daafe3b4186f6b6457e0908390a3600080546001600160a01b0319169055565b610adb610bc3565b610b2c576040805162461bcd60e51b815260206004820181905260248201527f4f776e61626c653a2063616c6c6572206973206e6f7420746865206f776e6572604482015290519081900360640190fd5b6004546001600160a01b031615610b745760405162461bcd60e51b815260040180806020018281038252602a81526020018061218e602a913960400191505060405180910390fd5b600480546001600160a01b0319166001600160a01b0392909216919091179055565b6003546001600160a01b031690565b6002546001600160a01b031690565b6000546001600160a01b031690565b600080546001600160a01b0316610bd86118fe565b6001600160a01b031614905090565b6001600160a01b038084166000908152600e60209081526040808320938616835292905290812080548291829185908110610c1e57fe5b600091825260208083206002909202909101546001600160a01b03808a168452600e83526040808520918a1685529252912080546001600160801b0390921694509085908110610c6a57fe5b60009182526020808320600292909202909101546001600160a01b038981168452600e83526040808520918a168552925291208054600160801b9092046001600160801b031693509085908110610cbd57fe5b600091825260209091206001600290920201015492969195505060ff90911692509050565b6001600160a01b039182166000908152600b6020908152604080832093909416825291909152205490565b6001600160a01b03166000908152600a602052604090205490565b6001600160a01b03166000908152600d602052604090205490565b6001600160a01b031660009081526009602052604090205490565b6001600160a01b0381166000908152600f60209081526040808320338452909152812054610d8e83826001611122565b610a1b57600080fd5b6000610da38383611902565b9392505050565b6001600160a01b039182166000908152600f6020908152604080832093909416825291909152205490565b6000610da383836115fd565b6001600160a01b031660009081526006602052604090205490565b610e04610bc3565b610e55576040805162461bcd60e51b815260206004820181905260248201527f4f776e61626c653a2063616c6c6572206973206e6f7420746865206f776e6572604482015290519081900360640190fd5b610e5e81611cbb565b50565b6001600160a01b039182166000908152600e6020908152604080832093909416825291909152205490565b6000805b83811015610eb357610ea28584611902565b610eab57600080fd5b600101610e90565b506001949350505050565b60008151602014610ece57600080fd5b506020015190565b600354604080516302a1529960e01b81526001600160a01b0380871660048301529151600093879316916302a15299916024808301926020929190829003018186803b158015610f2557600080fd5b505afa158015610f39573d6000803e3d6000fd5b505050506040513d6020811015610f4f57600080fd5b5051610f5a57600080fd5b6001600160a01b03808616600090815260056020908152604080832093881683529290522054610f90908463ffffffff611d5b16565b6001600160a01b038087166000818152600560209081526040808320948a168352938152838220949094559081526006909252902054610fd6908463ffffffff611d5b16565b6001600160a01b03808716600090815260066020908152604080832094909455918716815260079091522054611012908463ffffffff611d5b16565b6001600160a01b03808616600090815260076020526040902091909155600254611045911685308663ffffffff611db516565b604080516001600160a01b038681168252602082018690528251908816927f8752a472e571a816aea92eec8dae9baf628e840f4929fbcc2d155e6233ff68a7928290030190a26004805460408051630412c6d560e41b81526001600160a01b03898116948201949094528784166024820152604481018790529051929091169163412c6d50916064808201926020929091908290030181600087803b1580156110ed57600080fd5b505af1158015611101573d6000803e3d6000fd5b505050506040513d602081101561111757600080fd5b5051610eb357600080fd5b600354604080516302a1529960e01b81526001600160a01b0380871660048301529151600093879316916302a15299916024808301926020929190829003018186803b15801561117157600080fd5b505afa158015611185573d6000803e3d6000fd5b505050506040513d602081101561119b57600080fd5b50516111a657600080fd5b6001600160a01b0385166000908152600e6020908152604080832033845290915281205461121b576040805162461bcd60e51b815260206004820152601a60248201527f4465706f7369744d616e616765723a206e6f2072657175657374000000000000604482015290519081900360640190fd5b6001600160a01b0386166000908152600e602090815260408083203384529091529020548590038411156112805760405162461bcd60e51b81526004018080602001828103825260318152602001806121b86031913960400191505060405180910390fd5b8484015b80861015611391576001600160a01b0387166000908152600e6020908152604080832033845290915281208054889081106112bb57fe5b6000918252602090912060029091020180546001820154919250600160801b90046001600160801b03169060ff16156113255760405162461bcd60e51b81526004018080602001828103825260318152602001806121376031913960400191505060405180910390fd5b600081116113645760405162461bcd60e51b81526004018080602001828103825260288152602001806122b96028913960400191505060405180910390fd5b611374848263ffffffff611d5b16565b6001928301805460ff191684179055979091019692506112849050565b6001600160a01b03871660009081526005602090815260408083203384529091529020546113c5908363ffffffff611d5b16565b6001600160a01b038816600081815260056020908152604080832033845282528083209490945591815260069091522054611406908363ffffffff611d5b16565b6001600160a01b03881660009081526006602090815260408083209390935533825260079052205461143e908363ffffffff611d5b16565b336000818152600760209081526040808320949094556001600160a01b038b16825260088152838220928252919091522054611480908363ffffffff611e1516565b6001600160a01b0388166000818152600860209081526040808320338452825280832094909455918152600990915220546114c1908363ffffffff611e1516565b6001600160a01b038816600090815260096020908152604080832093909355338252600a905220546114f9908363ffffffff611e1516565b336000818152600a60209081526040808320949094556001600160a01b038b16808352600f825284832084845282529184902080548a01905583519283528201859052825190927f8752a472e571a816aea92eec8dae9baf628e840f4929fbcc2d155e6233ff68a7928290030190a26004805460408051630412c6d560e41b81526001600160a01b038b811694820194909452336024820152604481018690529051929091169163412c6d50916064808201926020929091908290030181600087803b1580156115c857600080fd5b505af11580156115dc573d6000803e3d6000fd5b505050506040513d60208110156115f257600080fd5b505161084a57600080fd5b600354604080516302a1529960e01b81526001600160a01b0380861660048301529151600093869316916302a15299916024808301926020929190829003018186803b15801561164c57600080fd5b505afa158015611660573d6000803e3d6000fd5b505050506040513d602081101561167657600080fd5b505161168157600080fd5b600083116116c05760405162461bcd60e51b815260040180806020018281038252602781526020018061220e6027913960400191505060405180910390fd5b6001600160a01b0384166000818152600e602090815260408083203380855290835281842082516060810184526010546001600160801b0343909101811682528a8116828701908152828601888152845460018181018755958a52888a2094516002909102909401805492518416600160801b029484166fffffffffffffffffffffffffffffffff1990931692909217909216929092178255519101805491151560ff1990921691909117905593835260088252808320938352929052205461178f908463ffffffff611d5b16565b6001600160a01b0385166000818152600860209081526040808320338452825280832094909455918152600990915220546117d0908463ffffffff611d5b16565b6001600160a01b038516600090815260096020908152604080832093909355338252600a90522054611808908463ffffffff611d5b16565b336000818152600a602090815260409182902093909355805191825291810185905281516001600160a01b038716927f04c56a409d50971e45c5a2d96e5d557d2b0f1d66d40f14b141e4c958b0f39b32928290030190a26004805460408051637c287fd560e11b81526001600160a01b0388811694820194909452336024820152604481018790529051929091169163f850ffaa916064808201926020929091908290030181600087803b1580156118bf57600080fd5b505af11580156118d3573d6000803e3d6000fd5b505050506040513d60208110156118e957600080fd5b50516118f457600080fd5b5060019392505050565b3390565b6001600160a01b0382166000818152600f602090815260408083203380855290835281842054948452600e8352818420908452909152812054909190811061197b5760405162461bcd60e51b81526004018080602001828103825260258152602001806121e96025913960400191505060405180910390fd5b6001600160a01b0384166000908152600e6020908152604080832033845290915281208054839081106119aa57fe5b600091825260209091206002909102018054909150436001600160801b039091161115611a085760405162461bcd60e51b81526004018080602001828103825260298152602001806122356029913960400191505060405180910390fd5b6001818101805460ff1916821790556001600160a01b0386166000818152600f602090815260408083203380855290835281842080549096019095558554938352600882528083209483529390529190912054600160801b9091046001600160801b031690611a779082611e15565b6001600160a01b038716600081815260086020908152604080832033845282528083209490945591815260099091522054611ab8908263ffffffff611e1516565b6001600160a01b038716600090815260096020908152604080832093909355338252600a90522054611af0908263ffffffff611e1516565b336000818152600a60209081526040808320949094556001600160a01b038a168252600b8152838220928252919091522054611b32908263ffffffff611d5b16565b6001600160a01b0387166000818152600b60209081526040808320338452825280832094909455918152600c9091522054611b73908263ffffffff611d5b16565b6001600160a01b0387166000908152600c6020908152604080832093909355338252600d90522054611bab908263ffffffff611d5b16565b336000908152600d60205260409020558415611c4f576002546040805163e3b99e8560e01b81523360048201526024810184905290516001600160a01b039092169163e3b99e85916044808201926020929091908290030181600087803b158015611c1557600080fd5b505af1158015611c29573d6000803e3d6000fd5b505050506040513d6020811015611c3f57600080fd5b5051611c4a57600080fd5b611c6c565b600254611c6c906001600160a01b0316338363ffffffff611e5716565b604080513381526020810183905281516001600160a01b038916927fcd1fce47d5ad89dd70b04c75bd6bdb8114d4d4ff7b4393f9fb5937e733ba9582928290030190a250600195945050505050565b6001600160a01b038116611d005760405162461bcd60e51b81526004018080602001828103825260268152602001806121686026913960400191505060405180910390fd5b600080546040516001600160a01b03808516939216917f8be0079c531659141344cd1fd0a4f28419497f9722a3daafe3b4186f6b6457e091a3600080546001600160a01b0319166001600160a01b0392909216919091179055565b600082820183811015610da3576040805162461bcd60e51b815260206004820152601b60248201527f536166654d6174683a206164646974696f6e206f766572666c6f770000000000604482015290519081900360640190fd5b604080516001600160a01b0385811660248301528416604482015260648082018490528251808303909101815260849091019091526020810180516001600160e01b03166323b872dd60e01b179052611e0f908590611eae565b50505050565b6000610da383836040518060400160405280601e81526020017f536166654d6174683a207375627472616374696f6e206f766572666c6f770000815250612066565b604080516001600160a01b038416602482015260448082018490528251808303909101815260649091019091526020810180516001600160e01b031663a9059cbb60e01b179052611ea9908490611eae565b505050565b611ec0826001600160a01b03166120fd565b611f11576040805162461bcd60e51b815260206004820152601f60248201527f5361666545524332303a2063616c6c20746f206e6f6e2d636f6e747261637400604482015290519081900360640190fd5b60006060836001600160a01b0316836040518082805190602001908083835b60208310611f4f5780518252601f199092019160209182019101611f30565b6001836020036101000a0380198251168184511680821785525050505050509050019150506000604051808303816000865af19150503d8060008114611fb1576040519150601f19603f3d011682016040523d82523d6000602084013e611fb6565b606091505b50915091508161200d576040805162461bcd60e51b815260206004820181905260248201527f5361666545524332303a206c6f772d6c6576656c2063616c6c206661696c6564604482015290519081900360640190fd5b805115611e0f5780806020019051602081101561202957600080fd5b5051611e0f5760405162461bcd60e51b815260040180806020018281038252602a81526020018061228f602a913960400191505060405180910390fd5b600081848411156120f55760405162461bcd60e51b81526004018080602001828103825283818151815260200191508051906020019080838360005b838110156120ba5781810151838201526020016120a2565b50505050905090810190601f1680156120e75780820380516001836020036101000a031916815260200191505b509250505060405180910390fd5b505050900390565b6000813f7fc5d2460186f7233c927e7db2dcc703c0e500b653ca82273b7bfad8045d85a470818114801590610a1757505015159291505056fe4465706f7369744d616e616765723a2070656e64696e67207265717565737420616c72656164792070726f6365737365644f776e61626c653a206e6577206f776e657220697320746865207a65726f20616464726573734465706f7369744d616e616765723a20536569674d616e6167657220697320616c7265616479207365744465706f7369744d616e616765723a206e2065786365656473206e756d206f662070656e64696e672072657175657374734465706f7369744d616e616765723a206e6f207265717565737420746f2070726f636573734465706f7369744d616e616765723a20616d6f756e74206d757374206e6f74206265207a65726f4465706f7369744d616e616765723a207761697420666f72207769746864726177616c2064656c61794465706f7369744d616e616765723a206f6e6c79206163636570742057544f4e20617070726f76652063616c6c6261636b5361666545524332303a204552433230206f7065726174696f6e20646964206e6f7420737563636565644465706f7369744d616e616765723a206e6f2076616c69642070656e64696e672072657175657374a265627a7a723158207cf413918c739993575678ef9d51941faeddff24c34c5e2088c2eb659a1c8f8264736f6c634300050c0032",
  "source": "pragma solidity ^0.5.12;\n\nimport { Ownable } from \"../../../node_modules/openzeppelin-solidity/contracts/ownership/Ownable.sol\";\nimport { SafeMath } from \"../../../node_modules/openzeppelin-solidity/contracts/math/SafeMath.sol\";\nimport { IERC20 } from \"../../../node_modules/openzeppelin-solidity/contracts/token/ERC20/IERC20.sol\";\nimport { SafeERC20 } from \"../../../node_modules/openzeppelin-solidity/contracts/token/ERC20/SafeERC20.sol\";\nimport { ERC165 } from \"../../../node_modules/openzeppelin-solidity/contracts/introspection/ERC165.sol\";\n\nimport { RootChainI } from \"../../RootChainI.sol\";\n\nimport { DepositManagerI } from \"../interfaces/DepositManagerI.sol\";\nimport { RootChainRegistryI } from \"../interfaces/RootChainRegistryI.sol\";\nimport { SeigManagerI } from \"../interfaces/SeigManagerI.sol\";\nimport { WTON } from \"../tokens/WTON.sol\";\nimport { OnApprove } from \"../tokens/OnApprove.sol\";\n\n// TODO: add events\n// TODO: check deposit/withdraw WTON amount (1e27)\n\n/**\n * @dev DepositManager manages WTON deposit and withdrawal from operator and WTON holders.\n */\ncontract DepositManager is Ownable, ERC165, OnApprove {\n  using SafeMath for uint256;\n  using SafeERC20 for WTON;\n\n  ////////////////////\n  // Storage - contracts\n  ////////////////////\n\n  WTON internal _wton;\n  RootChainRegistryI internal _registry;\n  SeigManagerI internal _seigManager;\n\n  ////////////////////\n  // Storage - token amount\n  ////////////////////\n\n  // accumulated staked amount\n  // rootchian => msg.sender => wton amount\n  mapping (address => mapping (address => uint256)) internal _accStaked;\n  // rootchian => wton amount\n  mapping (address => uint256) internal _accStakedRootChain;\n  // msg.sender => wton amount\n  mapping (address => uint256) internal _accStakedAccount;\n\n  // pending unstaked amount\n  // rootchian => msg.sender => wton amount\n  mapping (address => mapping (address => uint256)) internal _pendingUnstaked;\n  // rootchian => wton amount\n  mapping (address => uint256) internal _pendingUnstakedRootChain;\n  // msg.sender => wton amount\n  mapping (address => uint256) internal _pendingUnstakedAccount;\n\n  // accumulated unstaked amount\n  // rootchian => msg.sender => wton amount\n  mapping (address => mapping (address => uint256)) internal _accUnstaked;\n  // rootchian => wton amount\n  mapping (address => uint256) internal _accUnstakedRootChain;\n  // msg.sender => wton amount\n  mapping (address => uint256) internal _accUnstakedAccount;\n\n  // rootchain => msg.sender => withdrawal requests\n  mapping (address => mapping (address => WithdrawalReqeust[])) internal _withdrawalRequests;\n\n  // rootchain => msg.sender => index\n  mapping (address => mapping (address => uint256)) internal _withdrawalRequestIndex;\n\n  ////////////////////\n  // Storage - configuration / ERC165 interfaces\n  ////////////////////\n\n  // withdrawal delay in block number\n  // @TODO: change delay unit to CYCLE?\n  uint256 internal _WITHDRAWAL_DELAY;\n\n  struct WithdrawalReqeust {\n    uint128 withdrawableBlockNumber;\n    uint128 amount;\n    bool processed;\n  }\n\n  ////////////////////\n  // Modifiers\n  ////////////////////\n\n  modifier onlyRootChain(address rootchain) {\n    require(_registry.rootchains(rootchain));\n    _;\n  }\n\n  modifier onlySeigManager() {\n    require(msg.sender == address(_seigManager));\n    _;\n  }\n\n  ////////////////////\n  // Events\n  ////////////////////\n\n  event Deposited(address indexed rootchain, address depositor, uint256 amount);\n  event WithdrawalRequested(address indexed rootchain, address depositor, uint256 amount);\n  event WithdrawalProcessed(address indexed rootchain, address depositor, uint256 amount);\n\n  ////////////////////\n  // Constructor\n  ////////////////////\n\n  constructor (\n    WTON wton,\n    RootChainRegistryI registry,\n    uint256 WITHDRAWAL_DELAY\n  ) public {\n    _wton = wton;\n    _registry = registry;\n    _WITHDRAWAL_DELAY = WITHDRAWAL_DELAY;\n  }\n\n  ////////////////////\n  // SeiManager function\n  ////////////////////\n\n  function setSeigManager(SeigManagerI seigManager) external onlyOwner {\n    require(address(_seigManager) == address(0), \"DepositManager: SeigManager is already set\");\n    _seigManager = seigManager;\n  }\n\n  ////////////////////\n  // ERC20 Approve callback\n  ////////////////////\n\n  function onApprove(\n    address owner,\n    address spender,\n    uint256 amount,\n    bytes calldata data\n  ) external returns (bool) {\n    require(msg.sender == address(_wton), \"DepositManager: only accept WTON approve callback\");\n\n    address rootchain = _decodeDepositManagerOnApproveData(data);\n    require(_deposit(rootchain, owner, amount));\n\n    return true;\n  }\n\n  function _decodeDepositManagerOnApproveData(\n    bytes memory data\n  ) internal pure returns (address rootchain) {\n    require(data.length == 0x20);\n\n    assembly {\n      rootchain := mload(add(data, 0x20))\n    }\n  }\n\n  ////////////////////\n  // Deposit function\n  ////////////////////\n\n  /**\n   * @dev deposit `amount` WTON in RAY\n   */\n\n  function deposit(address rootchain, uint256 amount) external returns (bool) {\n    require(_deposit(rootchain, msg.sender, amount));\n  }\n\n  function _deposit(address rootchain, address account, uint256 amount) internal onlyRootChain(rootchain) returns (bool) {\n    _accStaked[rootchain][account] = _accStaked[rootchain][account].add(amount);\n    _accStakedRootChain[rootchain] = _accStakedRootChain[rootchain].add(amount);\n    _accStakedAccount[account] = _accStakedAccount[account].add(amount);\n\n    _wton.safeTransferFrom(account, address(this), amount);\n\n    emit Deposited(rootchain, account, amount);\n\n    require(_seigManager.onDeposit(rootchain, account, amount));\n\n    return true;\n  }\n\n  ////////////////////\n  // Re-deposit function\n  ////////////////////\n\n  /**\n   * @dev re-deposit pending requests in the pending queue\n   */\n\n  function redeposit(address rootchain) external returns (bool) {\n    uint256 i = _withdrawalRequestIndex[rootchain][msg.sender];\n    require(_redeposit(rootchain, i, 1));\n  }\n\n  function redepositMulti(address rootchain, uint256 n) external returns (bool) {\n    uint256 i = _withdrawalRequestIndex[rootchain][msg.sender];\n    require(_redeposit(rootchain, i, n));\n  }\n\n  function _redeposit(address rootchain, uint256 i, uint256 n) internal onlyRootChain(rootchain) returns (bool) {\n    uint256 accAmount;\n\n    require(_withdrawalRequests[rootchain][msg.sender].length > 0, \"DepositManager: no request\");\n    require(_withdrawalRequests[rootchain][msg.sender].length - i >= n, \"DepositManager: n exceeds num of pending requests\");\n\n    uint256 e = i + n;\n    for (; i < e; i++) {\n      WithdrawalReqeust storage r = _withdrawalRequests[rootchain][msg.sender][i];\n      uint256 amount = r.amount;\n\n      require(!r.processed, \"DepositManager: pending request already processed\");\n      require(amount > 0, \"DepositManager: no valid pending request\");\n\n      accAmount = accAmount.add(amount);\n      r.processed = true;\n    }\n\n\n    // deposit-related storages\n    _accStaked[rootchain][msg.sender] = _accStaked[rootchain][msg.sender].add(accAmount);\n    _accStakedRootChain[rootchain] = _accStakedRootChain[rootchain].add(accAmount);\n    _accStakedAccount[msg.sender] = _accStakedAccount[msg.sender].add(accAmount);\n\n    // withdrawal-related storages\n    _pendingUnstaked[rootchain][msg.sender] = _pendingUnstaked[rootchain][msg.sender].sub(accAmount);\n    _pendingUnstakedRootChain[rootchain] = _pendingUnstakedRootChain[rootchain].sub(accAmount);\n    _pendingUnstakedAccount[msg.sender] = _pendingUnstakedAccount[msg.sender].sub(accAmount);\n\n    _withdrawalRequestIndex[rootchain][msg.sender] += n;\n\n    emit Deposited(rootchain, msg.sender, accAmount);\n\n    require(_seigManager.onDeposit(rootchain, msg.sender, accAmount));\n\n    return true;\n  }\n\n  ////////////////////\n  // Withdrawal functions\n  ////////////////////\n\n  function requestWithdrawal(address rootchain, uint256 amount) external returns (bool) {\n    return _requestWithdrawal(rootchain, amount);\n  }\n\n  function _requestWithdrawal(address rootchain, uint256 amount) internal onlyRootChain(rootchain) returns (bool) {\n    require(amount > 0, \"DepositManager: amount must not be zero\");\n\n    _withdrawalRequests[rootchain][msg.sender].push(WithdrawalReqeust({\n      withdrawableBlockNumber: uint128(block.number + _WITHDRAWAL_DELAY),\n      amount: uint128(amount),\n      processed: false\n    }));\n\n    _pendingUnstaked[rootchain][msg.sender] = _pendingUnstaked[rootchain][msg.sender].add(amount);\n    _pendingUnstakedRootChain[rootchain] = _pendingUnstakedRootChain[rootchain].add(amount);\n    _pendingUnstakedAccount[msg.sender] = _pendingUnstakedAccount[msg.sender].add(amount);\n\n    emit WithdrawalRequested(rootchain, msg.sender, amount);\n\n    require(_seigManager.onWithdraw(rootchain, msg.sender, amount));\n\n    return true;\n  }\n\n  function processRequest(address rootchain, bool receiveTON) external returns (bool) {\n    return _processRequest(rootchain, receiveTON);\n  }\n\n  function _processRequest(address rootchain, bool receiveTON) internal returns (bool) {\n    uint256 index = _withdrawalRequestIndex[rootchain][msg.sender];\n    require(_withdrawalRequests[rootchain][msg.sender].length > index, \"DepositManager: no request to process\");\n\n    WithdrawalReqeust storage r = _withdrawalRequests[rootchain][msg.sender][index];\n\n    require(r.withdrawableBlockNumber <= block.number, \"DepositManager: wait for withdrawal delay\");\n    r.processed = true;\n\n    _withdrawalRequestIndex[rootchain][msg.sender] += 1;\n\n    uint256 amount = r.amount;\n\n    _pendingUnstaked[rootchain][msg.sender] = _pendingUnstaked[rootchain][msg.sender].sub(amount);\n    _pendingUnstakedRootChain[rootchain] = _pendingUnstakedRootChain[rootchain].sub(amount);\n    _pendingUnstakedAccount[msg.sender] = _pendingUnstakedAccount[msg.sender].sub(amount);\n\n    _accUnstaked[rootchain][msg.sender] = _accUnstaked[rootchain][msg.sender].add(amount);\n    _accUnstakedRootChain[rootchain] = _accUnstakedRootChain[rootchain].add(amount);\n    _accUnstakedAccount[msg.sender] = _accUnstakedAccount[msg.sender].add(amount);\n\n    if (receiveTON) {\n      require(_wton.swapToTONAndTransfer(msg.sender, amount));\n    } else {\n      _wton.safeTransfer(msg.sender, amount);\n    }\n\n    emit WithdrawalProcessed(rootchain, msg.sender, amount);\n    return true;\n  }\n\n  function requestWithdrawalAll(address rootchain) external onlyRootChain(rootchain) returns (bool) {\n    uint256 amount = _seigManager.stakeOf(rootchain, msg.sender);\n\n    return _requestWithdrawal(rootchain, amount);\n  }\n\n  function processRequests(address rootchain, uint256 n, bool receiveTON) external returns (bool) {\n    for (uint256 i = 0; i < n; i++) {\n      require(_processRequest(rootchain, receiveTON));\n    }\n    return true;\n  }\n\n  function numRequests(address rootchain, address account) external view returns (uint256) {\n    return _withdrawalRequests[rootchain][account].length;\n  }\n\n  function numPendingRequests(address rootchain, address account) external view returns (uint256) {\n    uint256 numRequests = _withdrawalRequests[rootchain][account].length;\n    uint256 index = _withdrawalRequestIndex[rootchain][account];\n\n    if (numRequests == 0) return 0;\n\n    return numRequests - index;\n  }\n\n  function _isOperator(address rootchain, address operator) internal view returns (bool) {\n    return operator == RootChainI(rootchain).operator();\n  }\n\n\n  ////////////////////\n  // Storage getters\n  ////////////////////\n\n  // solium-disable\n  function wton() external view returns (address) { return address(_wton); }\n  function registry() external view returns (address) { return address(_registry); }\n  function seigManager() external view returns (address) { return address(_seigManager); }\n\n  function accStaked(address rootchain, address account) external view returns (uint256 wtonAmount) { return _accStaked[rootchain][account]; }\n  function accStakedRootChain(address rootchain) external view returns (uint256 wtonAmount) { return _accStakedRootChain[rootchain]; }\n  function accStakedAccount(address account) external view returns (uint256 wtonAmount) { return _accStakedAccount[account]; }\n\n  function pendingUnstaked(address rootchain, address account) external view returns (uint256 wtonAmount) { return _pendingUnstaked[rootchain][account]; }\n  function pendingUnstakedRootChain(address rootchain) external view returns (uint256 wtonAmount) { return _pendingUnstakedRootChain[rootchain]; }\n  function pendingUnstakedAccount(address account) external view returns (uint256 wtonAmount) { return _pendingUnstakedAccount[account]; }\n\n  function accUnstaked(address rootchain, address account) external view returns (uint256 wtonAmount) { return _accUnstaked[rootchain][account]; }\n  function accUnstakedRootChain(address rootchain) external view returns (uint256 wtonAmount) { return _accUnstakedRootChain[rootchain]; }\n  function accUnstakedAccount(address account) external view returns (uint256 wtonAmount) { return _accUnstakedAccount[account]; }\n\n  function withdrawalRequestIndex(address rootchain, address account) external view returns (uint256 index) { return _withdrawalRequestIndex[rootchain][account]; }\n  function withdrawalRequest(address rootchain, address account, uint256 index) external view returns (uint128 withdrawableBlockNumber, uint128 amount, bool processed ) {\n    withdrawableBlockNumber = _withdrawalRequests[rootchain][account][index].withdrawableBlockNumber;\n    amount = _withdrawalRequests[rootchain][account][index].amount;\n    processed = _withdrawalRequests[rootchain][account][index].processed;\n  }\n\n  function WITHDRAWAL_DELAY() external view returns (uint256) { return _WITHDRAWAL_DELAY; }\n  // solium-enable\n}",
  "sourcePath": "/Users/hwangjaeseung/workspace/plasma-evm-contracts/contracts/stake/managers/DepositManager.sol",
  "compiler": {
    "name": "solc",
    "version": "0.5.12+commit.7709ece9.Emscripten.clang"
  },
  "schemaVersion": "3.2.0",
  "updatedAt": "2020-07-03T05:58:27.407Z",
  "devdoc": {
    "details": "DepositManager manages WTON deposit and withdrawal from operator and WTON holders.",
    "methods": {
      "deposit(address,uint256)": {
        "details": "deposit `amount` WTON in RAY"
      },
      "isOwner()": {
        "details": "Returns true if the caller is the current owner."
      },
      "owner()": {
        "details": "Returns the address of the current owner."
      },
      "redeposit(address)": {
        "details": "re-deposit pending requests in the pending queue"
      },
      "renounceOwnership()": {
        "details": "Leaves the contract without owner. It will not be possible to call `onlyOwner` functions anymore. Can only be called by the current owner.     * NOTE: Renouncing ownership will leave the contract without an owner, thereby removing any functionality that is only available to the owner."
      },
      "supportsInterface(bytes4)": {
        "details": "See {IERC165-supportsInterface}.     * Time complexity O(1), guaranteed to always use less than 30 000 gas."
      },
      "transferOwnership(address)": {
        "details": "Transfers ownership of the contract to a new account (`newOwner`). Can only be called by the current owner."
      }
    }
  },
  "userdoc": {
    "methods": {
      "constructor": "/////////////////",
      "onApprove(address,address,uint256,bytes)": {
        "notice": "/////////////////"
      },
      "requestWithdrawal(address,uint256)": {
        "notice": "/////////////////"
      },
      "setSeigManager(address)": {
        "notice": "/////////////////"
      },
      "wton()": {
        "notice": "/////////////////"
      }
    }
  }
}