{
  "contractName": "PowerTON",
  "abi": [
    {
      "inputs": [
        {
          "internalType": "address",
          "name": "seigManager",
          "type": "address"
        },
        {
          "internalType": "address",
          "name": "wton",
          "type": "address"
        },
        {
          "internalType": "uint256",
          "name": "roundDuration",
          "type": "uint256"
        }
      ],
      "payable": false,
      "stateMutability": "nonpayable",
      "type": "constructor"
    },
    {
      "anonymous": false,
      "inputs": [
        {
          "indexed": true,
          "internalType": "address",
          "name": "previousOwner",
          "type": "address"
        },
        {
          "indexed": true,
          "internalType": "address",
          "name": "newOwner",
          "type": "address"
        }
      ],
      "name": "OwnershipTransferred",
      "type": "event"
    },
    {
      "anonymous": false,
      "inputs": [
        {
          "indexed": false,
          "internalType": "address",
          "name": "account",
          "type": "address"
        }
      ],
      "name": "Paused",
      "type": "event"
    },
    {
      "anonymous": false,
      "inputs": [
        {
          "indexed": true,
          "internalType": "address",
          "name": "account",
          "type": "address"
        }
      ],
      "name": "PauserAdded",
      "type": "event"
    },
    {
      "anonymous": false,
      "inputs": [
        {
          "indexed": true,
          "internalType": "address",
          "name": "account",
          "type": "address"
        }
      ],
      "name": "PauserRemoved",
      "type": "event"
    },
    {
      "anonymous": false,
      "inputs": [
        {
          "indexed": true,
          "internalType": "address",
          "name": "account",
          "type": "address"
        },
        {
          "indexed": false,
          "internalType": "uint256",
          "name": "amount",
          "type": "uint256"
        }
      ],
      "name": "PowerDecreased",
      "type": "event"
    },
    {
      "anonymous": false,
      "inputs": [
        {
          "indexed": true,
          "internalType": "address",
          "name": "account",
          "type": "address"
        },
        {
          "indexed": false,
          "internalType": "uint256",
          "name": "amount",
          "type": "uint256"
        }
      ],
      "name": "PowerIncreased",
      "type": "event"
    },
    {
      "anonymous": false,
      "inputs": [
        {
          "indexed": false,
          "internalType": "uint256",
          "name": "round",
          "type": "uint256"
        },
        {
          "indexed": false,
          "internalType": "address",
          "name": "winner",
          "type": "address"
        },
        {
          "indexed": false,
          "internalType": "uint256",
          "name": "reward",
          "type": "uint256"
        }
      ],
      "name": "RoundEnd",
      "type": "event"
    },
    {
      "anonymous": false,
      "inputs": [
        {
          "indexed": false,
          "internalType": "uint256",
          "name": "round",
          "type": "uint256"
        },
        {
          "indexed": false,
          "internalType": "uint256",
          "name": "startTime",
          "type": "uint256"
        },
        {
          "indexed": false,
          "internalType": "uint256",
          "name": "endTime",
          "type": "uint256"
        }
      ],
      "name": "RoundStart",
      "type": "event"
    },
    {
      "anonymous": false,
      "inputs": [
        {
          "indexed": false,
          "internalType": "address",
          "name": "account",
          "type": "address"
        }
      ],
      "name": "Unpaused",
      "type": "event"
    },
    {
      "constant": true,
      "inputs": [],
      "name": "REWARD_DENOMINATOR",
      "outputs": [
        {
          "internalType": "uint256",
          "name": "",
          "type": "uint256"
        }
      ],
      "payable": false,
      "stateMutability": "view",
      "type": "function"
    },
    {
      "constant": true,
      "inputs": [],
      "name": "REWARD_NUMERATOR",
      "outputs": [
        {
          "internalType": "uint256",
          "name": "",
          "type": "uint256"
        }
      ],
      "payable": false,
      "stateMutability": "view",
      "type": "function"
    },
    {
      "constant": false,
      "inputs": [
        {
          "internalType": "address",
          "name": "account",
          "type": "address"
        }
      ],
      "name": "addPauser",
      "outputs": [],
      "payable": false,
      "stateMutability": "nonpayable",
      "type": "function"
    },
    {
      "constant": true,
      "inputs": [],
      "name": "initialized",
      "outputs": [
        {
          "internalType": "bool",
          "name": "",
          "type": "bool"
        }
      ],
      "payable": false,
      "stateMutability": "view",
      "type": "function"
    },
    {
      "constant": true,
      "inputs": [],
      "name": "isOwner",
      "outputs": [
        {
          "internalType": "bool",
          "name": "",
          "type": "bool"
        }
      ],
      "payable": false,
      "stateMutability": "view",
      "type": "function"
    },
    {
      "constant": true,
      "inputs": [
        {
          "internalType": "address",
          "name": "account",
          "type": "address"
        }
      ],
      "name": "isPauser",
      "outputs": [
        {
          "internalType": "bool",
          "name": "",
          "type": "bool"
        }
      ],
      "payable": false,
      "stateMutability": "view",
      "type": "function"
    },
    {
      "constant": true,
      "inputs": [],
      "name": "owner",
      "outputs": [
        {
          "internalType": "address",
          "name": "",
          "type": "address"
        }
      ],
      "payable": false,
      "stateMutability": "view",
      "type": "function"
    },
    {
      "constant": false,
      "inputs": [],
      "name": "pause",
      "outputs": [],
      "payable": false,
      "stateMutability": "nonpayable",
      "type": "function"
    },
    {
      "constant": true,
      "inputs": [],
      "name": "paused",
      "outputs": [
        {
          "internalType": "bool",
          "name": "",
          "type": "bool"
        }
      ],
      "payable": false,
      "stateMutability": "view",
      "type": "function"
    },
    {
      "constant": false,
      "inputs": [
        {
          "internalType": "address",
          "name": "target",
          "type": "address"
        }
      ],
      "name": "renounceMinter",
      "outputs": [],
      "payable": false,
      "stateMutability": "nonpayable",
      "type": "function"
    },
    {
      "constant": false,
      "inputs": [
        {
          "internalType": "address",
          "name": "target",
          "type": "address"
        }
      ],
      "name": "renounceOwnership",
      "outputs": [],
      "payable": false,
      "stateMutability": "nonpayable",
      "type": "function"
    },
    {
      "constant": false,
      "inputs": [],
      "name": "renounceOwnership",
      "outputs": [],
      "payable": false,
      "stateMutability": "nonpayable",
      "type": "function"
    },
    {
      "constant": false,
      "inputs": [
        {
          "internalType": "address",
          "name": "target",
          "type": "address"
        }
      ],
      "name": "renouncePauser",
      "outputs": [],
      "payable": false,
      "stateMutability": "nonpayable",
      "type": "function"
    },
    {
      "constant": false,
      "inputs": [],
      "name": "renouncePauser",
      "outputs": [],
      "payable": false,
      "stateMutability": "nonpayable",
      "type": "function"
    },
    {
      "constant": true,
      "inputs": [
        {
          "internalType": "uint256",
          "name": "",
          "type": "uint256"
        }
      ],
      "name": "rounds",
      "outputs": [
        {
          "internalType": "uint64",
          "name": "startTime",
          "type": "uint64"
        },
        {
          "internalType": "uint64",
          "name": "endTime",
          "type": "uint64"
        },
        {
          "internalType": "uint256",
          "name": "reward",
          "type": "uint256"
        },
        {
          "internalType": "address",
          "name": "winner",
          "type": "address"
        }
      ],
      "payable": false,
      "stateMutability": "view",
      "type": "function"
    },
    {
      "constant": false,
      "inputs": [
        {
          "internalType": "address",
          "name": "target",
          "type": "address"
        },
        {
          "internalType": "address",
          "name": "newOwner",
          "type": "address"
        }
      ],
      "name": "transferOwnership",
      "outputs": [],
      "payable": false,
      "stateMutability": "nonpayable",
      "type": "function"
    },
    {
      "constant": false,
      "inputs": [
        {
          "internalType": "address",
          "name": "newOwner",
          "type": "address"
        }
      ],
      "name": "transferOwnership",
      "outputs": [],
      "payable": false,
      "stateMutability": "nonpayable",
      "type": "function"
    },
    {
      "constant": false,
      "inputs": [],
      "name": "unpause",
      "outputs": [],
      "payable": false,
      "stateMutability": "nonpayable",
      "type": "function"
    },
    {
      "constant": false,
      "inputs": [
        {
          "internalType": "address",
          "name": "seigManager",
          "type": "address"
        }
      ],
      "name": "setSeigManager",
      "outputs": [],
      "payable": false,
      "stateMutability": "nonpayable",
      "type": "function"
    },
    {
      "constant": false,
      "inputs": [],
      "name": "init",
      "outputs": [],
      "payable": false,
      "stateMutability": "nonpayable",
      "type": "function"
    },
    {
      "constant": false,
      "inputs": [],
      "name": "start",
      "outputs": [],
      "payable": false,
      "stateMutability": "nonpayable",
      "type": "function"
    },
    {
      "constant": true,
      "inputs": [
        {
          "internalType": "address",
          "name": "account",
          "type": "address"
        }
      ],
      "name": "powerOf",
      "outputs": [
        {
          "internalType": "uint256",
          "name": "",
          "type": "uint256"
        }
      ],
      "payable": false,
      "stateMutability": "view",
      "type": "function"
    },
    {
      "constant": false,
      "inputs": [],
      "name": "endRound",
      "outputs": [],
      "payable": false,
      "stateMutability": "nonpayable",
      "type": "function"
    },
    {
      "constant": true,
      "inputs": [
        {
          "internalType": "uint256",
          "name": "round",
          "type": "uint256"
        }
      ],
      "name": "roundStarted",
      "outputs": [
        {
          "internalType": "bool",
          "name": "",
          "type": "bool"
        }
      ],
      "payable": false,
      "stateMutability": "view",
      "type": "function"
    },
    {
      "constant": true,
      "inputs": [
        {
          "internalType": "uint256",
          "name": "round",
          "type": "uint256"
        }
      ],
      "name": "roundFinished",
      "outputs": [
        {
          "internalType": "bool",
          "name": "",
          "type": "bool"
        }
      ],
      "payable": false,
      "stateMutability": "view",
      "type": "function"
    },
    {
      "constant": true,
      "inputs": [],
      "name": "currentRoundFinished",
      "outputs": [
        {
          "internalType": "bool",
          "name": "",
          "type": "bool"
        }
      ],
      "payable": false,
      "stateMutability": "view",
      "type": "function"
    },
    {
      "constant": false,
      "inputs": [
        {
          "internalType": "address",
          "name": "rootchain",
          "type": "address"
        },
        {
          "internalType": "address",
          "name": "account",
          "type": "address"
        },
        {
          "internalType": "uint256",
          "name": "amount",
          "type": "uint256"
        }
      ],
      "name": "onDeposit",
      "outputs": [],
      "payable": false,
      "stateMutability": "nonpayable",
      "type": "function"
    },
    {
      "constant": false,
      "inputs": [
        {
          "internalType": "address",
          "name": "rootchain",
          "type": "address"
        },
        {
          "internalType": "address",
          "name": "account",
          "type": "address"
        },
        {
          "internalType": "uint256",
          "name": "amount",
          "type": "uint256"
        }
      ],
      "name": "onWithdraw",
      "outputs": [],
      "payable": false,
      "stateMutability": "nonpayable",
      "type": "function"
    },
    {
      "constant": true,
      "inputs": [],
      "name": "seigManager",
      "outputs": [
        {
          "internalType": "address",
          "name": "",
          "type": "address"
        }
      ],
      "payable": false,
      "stateMutability": "view",
      "type": "function"
    },
    {
      "constant": true,
      "inputs": [],
      "name": "wton",
      "outputs": [
        {
          "internalType": "address",
          "name": "",
          "type": "address"
        }
      ],
      "payable": false,
      "stateMutability": "view",
      "type": "function"
    },
    {
      "constant": true,
      "inputs": [],
      "name": "currentRound",
      "outputs": [
        {
          "internalType": "uint256",
          "name": "",
          "type": "uint256"
        }
      ],
      "payable": false,
      "stateMutability": "view",
      "type": "function"
    },
    {
      "constant": true,
      "inputs": [],
      "name": "roundDuration",
      "outputs": [
        {
          "internalType": "uint256",
          "name": "",
          "type": "uint256"
        }
      ],
      "payable": false,
      "stateMutability": "view",
      "type": "function"
    },
    {
      "constant": true,
      "inputs": [],
      "name": "totalDeposits",
      "outputs": [
        {
          "internalType": "uint256",
          "name": "",
          "type": "uint256"
        }
      ],
      "payable": false,
      "stateMutability": "view",
      "type": "function"
    },
    {
      "constant": true,
      "inputs": [
        {
          "internalType": "uint256",
          "name": "round",
          "type": "uint256"
        }
      ],
      "name": "winnerOf",
      "outputs": [
        {
          "internalType": "address",
          "name": "",
          "type": "address"
        }
      ],
      "payable": false,
      "stateMutability": "view",
      "type": "function"
    }
  ],
  "bytecode": "0x60806040523480156200001157600080fd5b506040516200261238038062002612833981016040819052620000349162000264565b6200005a6200004b6001600160e01b036200010e16565b6001600160e01b036200011216565b60006200006f6001600160e01b036200010e16565b600180546001600160a01b0319166001600160a01b038316908117909155604051919250906000907f8be0079c531659141344cd1fd0a4f28419497f9722a3daafe3b4186f6b6457e0908290a3506001805460ff60a01b1916905580620000d557600080fd5b600280546001600160a01b039485166001600160a01b0319918216179091556003805493909416921691909117909155600555620003bb565b3390565b6200012d8160006200016460201b620018301790919060201c565b6040516001600160a01b038216907f6719d08c1888103bea251a4ed56406bd0c3e69723c8a1686e017e7bbe159b6f890600090a250565b6200017982826001600160e01b03620001e116565b15620001bc576040517f08c379a0000000000000000000000000000000000000000000000000000000008152600401620001b39062000354565b60405180910390fd5b6001600160a01b0316600090815260209190915260409020805460ff19166001179055565b60006001600160a01b03821662000226576040517f08c379a0000000000000000000000000000000000000000000000000000000008152600401620001b39062000366565b506001600160a01b03811660009081526020839052604090205460ff165b92915050565b8051620002448162000396565b80516200024481620003b0565b6000806000606084860312156200027a57600080fd5b60006200028886866200024a565b93505060206200029b868287016200024a565b9250506040620002ae8682870162000257565b9150509250925092565b6000620002c7601f8362000378565b7f526f6c65733a206163636f756e7420616c72656164792068617320726f6c6500815260200192915050565b60006200030260228362000378565b7f526f6c65733a206163636f756e7420697320746865207a65726f20616464726581527f7373000000000000000000000000000000000000000000000000000000000000602082015260400192915050565b602080825281016200024481620002b8565b602080825281016200024481620002f3565b90815260200190565b60006001600160a01b03821662000244565b90565b620003a18162000381565b8114620003ad57600080fd5b50565b620003a18162000393565b61224780620003cb6000396000f3fe608060405234801561001057600080fd5b50600436106102065760003560e01c80637657f20a1161011a5780638d62d949116100ad578063c2dba50e1161007c578063c2dba50e146103c4578063e1c7392a146103cc578063f2fde38b146103d4578063f7cb789a146103e7578063f850ffaa146103ef57610206565b80638d62d949146103a45780638da5cb5b146103ac5780638f32d59b146103b4578063be9a6555146103bc57610206565b80638456cb59116100e95780638456cb591461035e5780638a19c8bc146103665780638c65c81f1461036e5780638cb5d7001461039157610206565b80637657f20a146103285780637d8820971461033b578063819a93981461034357806382dc1ec41461034b57610206565b80634b816b671161019d5780636d4354211161016c5780636d435421146102e85780636ef8d66d146102fb5780636fb7f55814610303578063715018a614610318578063749aa2d91461032057610206565b80634b816b67146102b25780635c975abb146102ba5780635f112c68146102c257806364402c07146102d557610206565b80633f4ba83a116101d95780633f4ba83a14610271578063412c6d501461027957806341eb24bb1461028c57806346fbf68e1461029f57610206565b8063158ef93e1461020b5780631ac84690146102295780631c602a631461024957806338bf3cfa1461025c575b600080fd5b610213610402565b6040516102209190611fa2565b60405180910390f35b61023c610237366004611a01565b61040b565b60405161022091906120c1565b610213610257366004611acc565b610442565b61026f61026a366004611a01565b61049f565b005b61026f610522565b61026f610287366004611a61565b6105bf565b61026f61029a366004611a01565b610653565b6102136102ad366004611a01565b6106b2565b61023c6106c4565b6102136106c9565b61026f6102d0366004611a01565b6106da565b6102136102e3366004611acc565b610739565b61026f6102f6366004611a27565b610781565b61026f610807565b61030b610819565b6040516102209190611f6b565b61026f610828565b61026f610896565b61026f610336366004611a01565b6108c2565b61023c610908565b61023c61090e565b61026f610359366004611a01565b610913565b61026f610946565b61023c6109d3565b61038161037c366004611acc565b6109d9565b604051610220949392919061211f565b61030b61039f366004611acc565b610a18565b61030b610a36565b61030b610a45565b610213610a54565b61026f610a7a565b610213610b2d565b61026f610b3f565b61026f6103e2366004611a01565b610baa565b61023c610bd7565b61026f6103fd366004611a61565b610bdd565b60085460ff1681565b600061043c60405161041c90611f60565b604051809103902061042d84610c77565b6007919063ffffffff610c8316565b92915050565b600061044d82610739565b8015610478575060008281526006602052604090205442600160401b90910467ffffffffffffffff16105b801561043c5750506000908152600660205260409020600201546001600160a01b03161590565b6104a7610a54565b6104cc5760405162461bcd60e51b81526004016104c390612081565b60405180910390fd5b806001600160a01b031663715018a66040518163ffffffff1660e01b8152600401600060405180830381600087803b15801561050757600080fd5b505af115801561051b573d6000803e3d6000fd5b5050505050565b61052d6102ad610cd3565b6105495760405162461bcd60e51b81526004016104c390611ff1565b600154600160a01b900460ff166105725760405162461bcd60e51b81526004016104c390611fd1565b6001805460ff60a01b191690557f5db9ee0a495bf2e6ff9c91a7834c1ba4fdd244a5e8aa4e537bd38aeae4b073aa6105a8610cd3565b6040516105b59190611f79565b60405180910390a1565b6105c7610b2d565b156105d4576105d4610cd7565b6002546001600160a01b031633146105eb57600080fd5b6105f58282610f09565b600954610608908263ffffffff610f7f16565b6009556040516001600160a01b038316907f7cb6ed9ab3c494e5dae6f6a137de115769e08b31ce667494edd37f75c84a1016906106469084906120c1565b60405180910390a2505050565b61065b610a54565b6106775760405162461bcd60e51b81526004016104c390612081565b806001600160a01b0316636ef8d66d6040518163ffffffff1660e01b8152600401600060405180830381600087803b15801561050757600080fd5b600061043c818363ffffffff610fab16565b600881565b600154600160a01b900460ff165b90565b6106e2610a54565b6106fe5760405162461bcd60e51b81526004016104c390612081565b806001600160a01b031663986502756040518163ffffffff1660e01b8152600401600060405180830381600087803b15801561050757600080fd5b60008181526006602052604081205467ffffffffffffffff161580159061043c575050600090815260066020526040902054600160401b900467ffffffffffffffff16151590565b610789610a54565b6107a55760405162461bcd60e51b81526004016104c390612081565b60405163f2fde38b60e01b81526001600160a01b0383169063f2fde38b906107d1908490600401611f6b565b600060405180830381600087803b1580156107eb57600080fd5b505af11580156107ff573d6000803e3d6000fd5b505050505050565b610817610812610cd3565b610ff3565b565b6002546001600160a01b031690565b610830610a54565b61084c5760405162461bcd60e51b81526004016104c390612081565b6001546040516000916001600160a01b0316907f8be0079c531659141344cd1fd0a4f28419497f9722a3daafe3b4186f6b6457e0908390a3600180546001600160a01b0319169055565b61089e610b2d565b6108ba5760405162461bcd60e51b81526004016104c390612031565b610817610cd7565b6108ca610a54565b6108e65760405162461bcd60e51b81526004016104c390612081565b600280546001600160a01b0319166001600160a01b0392909216919091179055565b60095490565b600a81565b61091e6102ad610cd3565b61093a5760405162461bcd60e51b81526004016104c390611ff1565b6109438161103b565b50565b6109516102ad610cd3565b61096d5760405162461bcd60e51b81526004016104c390611ff1565b600154600160a01b900460ff16156109975760405162461bcd60e51b81526004016104c390612041565b6001805460ff60a01b1916600160a01b1790557f62e78cea01bee320cd4e420270b5ea74000d11b0c9f74754ebdbfc544b05a2586105a8610cd3565b60045490565b60066020526000908152604090208054600182015460029092015467ffffffffffffffff80831693600160401b9093041691906001600160a01b031684565b6000908152600660205260409020600201546001600160a01b031690565b6003546001600160a01b031690565b6001546001600160a01b031690565b6001546000906001600160a01b0316610a6b610cd3565b6001600160a01b031614905090565b610a82610a54565b610a9e5760405162461bcd60e51b81526004016104c390612081565b60045415610abe5760405162461bcd60e51b81526004016104c3906120b1565b60045460009081526006602052604090205467ffffffffffffffff16158015610b075750600454600090815260066020526040902054600160401b900467ffffffffffffffff16155b610b235760405162461bcd60e51b81526004016104c390612051565b6108176000611083565b6000610b3a600454610442565b905090565b610b47610a54565b610b635760405162461bcd60e51b81526004016104c390612081565b60085460ff1615610b7357600080fd5b610b9b604051610b8290611f60565b604051908190039020600790601063ffffffff6111c716565b6008805460ff19166001179055565b610bb2610a54565b610bce5760405162461bcd60e51b81526004016104c390612081565b61094381611252565b60055490565b610be5610b2d565b15610bf257610bf2610cd7565b6002546001600160a01b03163314610c0957600080fd5b6000610c1583836112d4565b600954909150610c2b908263ffffffff61134d16565b6009556040516001600160a01b038416907f2799180fb0f59973ce8643f2079ddedfb4c9c9c60cdd7d02c1c7798a379671d290610c699084906120c1565b60405180910390a250505050565b6001600160a01b031690565b6000828152602084815260408083208484526003810190925282205480610cad5760009250610cca565b816002018181548110610cbc57fe5b906000526020600020015492505b50509392505050565b3390565b600954610ce357610817565b6004546000818152600660205260408120600954909190610d07600019430161138f565b81610d0e57fe5b0690506000610d42610d3d604051610d2590611f60565b6040519081900390206007908563ffffffff6113d216565b6106d7565b90506001600160a01b038116610d6a5760405162461bcd60e51b81526004016104c390612001565b6002830180546001600160a01b0319166001600160a01b03838116919091179091556003546040516370a0823160e01b8152600092610e2b92600a92610e1f9260089216906370a0823190610dc3903090600401611f6b565b60206040518083038186803b158015610ddb57600080fd5b505afa158015610def573d6000803e3d6000fd5b505050506040513d601f19601f82011682018060405250610e139190810190611aea565b9063ffffffff61149516565b9063ffffffff6114cf16565b90508084600101819055507fa49385eb61e4f439063d5c00de2ab7a1fff06ca35f6f06fb634d21a2e8ad3279858383604051610e69939291906120cf565b60405180910390a16004805460010190819055610e8590611083565b60035460405163e3b99e8560e01b81526001600160a01b039091169063e3b99e8590610eb79085908590600401611f87565b602060405180830381600087803b158015610ed157600080fd5b505af1158015610ee5573d6000803e3d6000fd5b505050506040513d601f19601f820116820180604052506107ff9190810190611aae565b6000610f1483610c77565b90506000610f4f83610f43604051610f2b90611f60565b6040519081900390206007908663ffffffff610c8316565b9063ffffffff610f7f16565b9050610f79604051610f6090611f60565b604051908190039020600790838563ffffffff61151116565b50505050565b600082820183811015610fa45760405162461bcd60e51b81526004016104c390612021565b9392505050565b60006001600160a01b038216610fd35760405162461bcd60e51b81526004016104c390612091565b506001600160a01b03166000908152602091909152604090205460ff1690565b61100460008263ffffffff6117e816565b6040516001600160a01b038216907fcd265ebaf09df2871cc7bd4133404a235ba12eff2041bb89d9c714a2621c7c7e90600090a250565b61104c60008263ffffffff61183016565b6040516001600160a01b038216907f6719d08c1888103bea251a4ed56406bd0c3e69723c8a1686e017e7bbe159b6f890600090a250565b8015806110dd5750600019810160009081526006602052604090205442600160401b90910467ffffffffffffffff161080156110dd575060001981016000908152600660205260409020600201546001600160a01b031615155b6110e657600080fd5b6000818152600660205260409020805467ffffffffffffffff1615801561111d57508054600160401b900467ffffffffffffffff16155b8015611134575060028101546001600160a01b0316155b61113d57600080fd5b60055481544291820167ffffffffffffffff818116600160401b026fffffffffffffffff00000000000000001991851667ffffffffffffffff1990941693909317169190911783556040517fe51113a62fc9e06008ca1c963fa05a240e64d51af7fdb2178c2a302cfcc5052f906111b9908690859085906120f7565b60405180910390a150505050565b60008281526020849052604090208054156111f45760405162461bcd60e51b81526004016104c3906120a1565b600182116112145760405162461bcd60e51b81526004016104c390611fc1565b8181556000611226600183018261198e565b506000611236600283018261198e565b5060020180546001810182556000918252602082200155505050565b6001600160a01b0381166112785760405162461bcd60e51b81526004016104c390612011565b6001546040516001600160a01b038084169216907f8be0079c531659141344cd1fd0a4f28419497f9722a3daafe3b4186f6b6457e090600090a3600180546001600160a01b0319166001600160a01b0392909216919091179055565b6000806112e084610c77565b9050600061130b6040516112f390611f60565b6040519081900390206007908463ffffffff610c8316565b90506000611319828661187c565b905061134360405161132a90611f60565b604051908190039020600790838663ffffffff61151116565b9003949350505050565b6000610fa483836040518060400160405280601e81526020017f536166654d6174683a207375627472616374696f6e206f766572666c6f770000815250611898565b60008140806113b75760ff831660ff1943160192504383106113b357610100830392505b5081405b60095443808301600019909101400182029091020292915050565b60008281526020849052604081206002810180548391829182906113f257fe5b9060005260206000200154858161140557fe5b0690505b600283015483548302600101101561147a5760015b835481116114745760008184866000015402019050600085600201828154811061144457fe5b9060005260206000200154905080841061146257808403935061146a565b509250611474565b505060010161141e565b50611409565b50600090815260049091016020526040902054949350505050565b6000826114a45750600061043c565b828202828482816114b157fe5b0414610fa45760405162461bcd60e51b81526004016104c390612071565b6000610fa483836040518060400160405280601a81526020017f536166654d6174683a206469766973696f6e206279207a65726f0000000000008152506118c4565b60008381526020858152604080832084845260038101909252909120548061169c57831561169757600182015461160f57506002810180546001808201835560009283526020909220810185905590811480159061157b5750815460001982018161157857fe5b06155b1561160a578154600090828161158d57fe5b04600081815260048501602052604090205460028501805492935090916001850191908190859081106115bc57fe5b60009182526020808320909101548354600181018555938352818320909301929092559384526004860180825260408086208690558486526003880183528086208490559285529052909120555b611664565b600182018054600019810190811061162357fe5b60009182526020909120015460018301805491925061164690600019830161198e565b508382600201828154811061165757fe5b6000918252602090912001555b600083815260038301602090815260408083208490558383526004850190915290208390556116978686836001886118fb565b6107ff565b8361172d5760008260020182815481106116b257fe5b9060005260206000200154905060008360020183815481106116d057fe5b600091825260208083209091019290925560018086018054918201815582528282200184905585815260038501825260408082208290558482526004860190925290812081905561172790889088908590856118fb565b506107ff565b81600201818154811061173c57fe5b906000526020600020015484146107ff5760008483600201838154811061175f57fe5b906000526020600020015411159050600081611796578584600201848154811061178557fe5b9060005260206000200154036117b3565b8360020183815481106117a557fe5b906000526020600020015486035b9050858460020184815481106117c557fe5b6000918252602090912001556117de88888585856118fb565b5050505050505050565b6117f28282610fab565b61180e5760405162461bcd60e51b81526004016104c390612061565b6001600160a01b0316600090815260209190915260409020805460ff19169055565b61183a8282610fab565b156118575760405162461bcd60e51b81526004016104c390611fe1565b6001600160a01b0316600090815260209190915260409020805460ff19166001179055565b60008183111561188f575080820361043c565b50600092915050565b600081848411156118bc5760405162461bcd60e51b81526004016104c39190611fb0565b505050900390565b600081836118e55760405162461bcd60e51b81526004016104c39190611fb0565b5060008385816118f157fe5b0495945050505050565b6000848152602086905260409020835b801561198557815460001982018161191f57fe5b04905083611948578282600201828154811061193757fe5b906000526020600020015403611965565b8282600201828154811061195857fe5b9060005260206000200154015b82600201828154811061197457fe5b60009182526020909120015561190b565b50505050505050565b8154818355818111156119b2576000838152602090206119b29181019083016119b7565b505050565b6106d791905b808211156119d157600081556001016119bd565b5090565b803561043c816121de565b805161043c816121f2565b803561043c816121fb565b805161043c816121fb565b600060208284031215611a1357600080fd5b6000611a1f84846119d5565b949350505050565b60008060408385031215611a3a57600080fd5b6000611a4685856119d5565b9250506020611a57858286016119d5565b9150509250929050565b600080600060608486031215611a7657600080fd5b6000611a8286866119d5565b9350506020611a93868287016119d5565b9250506040611aa4868287016119eb565b9150509250925092565b600060208284031215611ac057600080fd5b6000611a1f84846119e0565b600060208284031215611ade57600080fd5b6000611a1f84846119eb565b600060208284031215611afc57600080fd5b6000611a1f84846119f6565b611b118161218c565b82525050565b611b118161216f565b611b118161217a565b6000611b348261215d565b611b3e8185612161565b9350611b4e8185602086016121a8565b611b57816121d4565b9093019392505050565b6000611b6e601b83612161565b7f4b206d7573742062652067726561746572207468616e206f6e652e0000000000815260200192915050565b6000611ba7601483612161565b7314185d5cd8589b194e881b9bdd081c185d5cd95960621b815260200192915050565b6000611bd7601f83612161565b7f526f6c65733a206163636f756e7420616c72656164792068617320726f6c6500815260200192915050565b6000611c10603083612161565b7f506175736572526f6c653a2063616c6c657220646f6573206e6f74206861766581526f207468652050617573657220726f6c6560801b602082015260400192915050565b6000611c62601383612161565b722837bbb2b92a27a71d103737903bb4b73732b960691b815260200192915050565b6000611c91602683612161565b7f4f776e61626c653a206e6577206f776e657220697320746865207a65726f206181526564647265737360d01b602082015260400192915050565b6000611cd9601b83612161565b7f536166654d6174683a206164646974696f6e206f766572666c6f770000000000815260200192915050565b6000611d12600e8361216a565b6d706f7765722d62616c616e63657360901b8152600e0192915050565b6000611d3c601c83612161565b7f506f776572544f4e3a20726f756e64206e6f742066696e697368656400000000815260200192915050565b6000611d75601083612161565b6f14185d5cd8589b194e881c185d5cd95960821b815260200192915050565b6000611da1601f83612161565b7f506f776572544f4e3a20726f756e6420616c7265616479207374617274656400815260200192915050565b6000611dda602183612161565b7f526f6c65733a206163636f756e7420646f6573206e6f74206861766520726f6c8152606560f81b602082015260400192915050565b6000611e1d602183612161565b7f536166654d6174683a206d756c7469706c69636174696f6e206f766572666c6f8152607760f81b602082015260400192915050565b6000611e60602083612161565b7f4f776e61626c653a2063616c6c6572206973206e6f7420746865206f776e6572815260200192915050565b6000611e99602283612161565b7f526f6c65733a206163636f756e7420697320746865207a65726f206164647265815261737360f01b602082015260400192915050565b6000611edd601483612161565b732a3932b29030b63932b0b23c9032bc34b9ba399760611b815260200192915050565b6000611f0d602383612161565b7f506f776572544f4e3a2063757272656e7420726f756e64206973206e6f74207a81526265726f60e81b602082015260400192915050565b611b11816106d7565b611b118161219d565b611b118161217f565b600061043c82611d05565b6020810161043c8284611b17565b6020810161043c8284611b08565b60408101611f958285611b17565b610fa46020830184611f45565b6020810161043c8284611b20565b60208082528101610fa48184611b29565b6020808252810161043c81611b61565b6020808252810161043c81611b9a565b6020808252810161043c81611bca565b6020808252810161043c81611c03565b6020808252810161043c81611c55565b6020808252810161043c81611c84565b6020808252810161043c81611ccc565b6020808252810161043c81611d2f565b6020808252810161043c81611d68565b6020808252810161043c81611d94565b6020808252810161043c81611dcd565b6020808252810161043c81611e10565b6020808252810161043c81611e53565b6020808252810161043c81611e8c565b6020808252810161043c81611ed0565b6020808252810161043c81611f00565b6020810161043c8284611f45565b606081016120dd8286611f45565b6120ea6020830185611b17565b611a1f6040830184611f45565b606081016121058286611f45565b6121126020830185611f4e565b611a1f6040830184611f4e565b6080810161212d8287611f57565b61213a6020830186611f57565b6121476040830185611f45565b6121546060830184611b17565b95945050505050565b5190565b90815260200190565b919050565b600061043c82610c77565b151590565b67ffffffffffffffff1690565b600061043c82600061043c8261216f565b600061043c8261217f565b60005b838110156121c35781810151838201526020016121ab565b83811115610f795750506000910152565b601f01601f191690565b6121e78161216f565b811461094357600080fd5b6121e78161217a565b6121e7816106d756fea365627a7a72315820ebc961355a859d7c4e42d78e8f1dd614b87340b5e8a0c6b6545ea9df2f2b9f1c6c6578706572696d656e74616cf564736f6c634300050c0040",
  "source": "pragma solidity ^0.5.12;\npragma experimental ABIEncoderV2;\n\n\nimport { Ownable } from \"../../../node_modules/openzeppelin-solidity/contracts/ownership/Ownable.sol\";\nimport { Pausable } from \"../../../node_modules/openzeppelin-solidity/contracts/lifecycle/Pausable.sol\";\nimport { SafeMath } from \"../../../node_modules/openzeppelin-solidity/contracts/math/SafeMath.sol\";\nimport { IERC20 } from \"../../../node_modules/openzeppelin-solidity/contracts/token/ERC20/IERC20.sol\";\nimport { SafeERC20 } from \"../../../node_modules/openzeppelin-solidity/contracts/token/ERC20/SafeERC20.sol\";\n\nimport { WTON } from \"../tokens/WTON.sol\";\nimport { AuthController } from \"../tokens/AuthController.sol\";\n\nimport { SortitionSumTreeFactory } from \"../../lib/SortitionSumTreeFactory.sol\";\n\nimport { DepositManagerI } from \"../interfaces/DepositManagerI.sol\";\nimport { PowerTONI } from \"../interfaces/PowerTONI.sol\";\n\ncontract PowerTON is Ownable, Pausable, AuthController, PowerTONI {\n  using SafeMath for *;\n  using SafeERC20 for IERC20;\n  using SortitionSumTreeFactory for SortitionSumTreeFactory.SortitionSumTrees;\n\n  struct Round {\n    uint64  startTime;\n    uint64  endTime;\n    uint256 reward;\n    address winner;\n  }\n\n  // contracts\n  address internal _seigManager;\n  address internal _wton;\n\n  // rounds\n  uint256 internal _currentRound;\n  // TODO: consider block nubmer\n  uint256 internal _roundDuration; // unix timestamp\n  mapping(uint256 => Round) public rounds;\n\n  uint256 public constant REWARD_NUMERATOR = 8;\n  uint256 public constant REWARD_DENOMINATOR = 10;\n\n  // sortition\n  SortitionSumTreeFactory.SortitionSumTrees internal sortitionSumTrees;\n  bool public initialized;\n\n  bytes32 constant internal TREE_KEY = keccak256(\"power-balances\");\n  bytes32 constant internal TREE_KEY_PREFIX = keccak256(\"power-balances\");\n  uint256 constant internal TREE_NUM_CHILDREN = 16;\n\n  // balances\n  uint256 internal _totalDeposits;\n\n  // randomness\n  uint256 internal constant maskLast8Bits = uint256(0xff);\n  uint256 internal constant maskFirst248Bits = uint256(~0xff);\n\n\n  //////////////////////////////\n  // Modifiers\n  //////////////////////////////\n\n  modifier checkRound() {\n    if (currentRoundFinished()) {\n      _endRound();\n    }\n    _;\n  }\n\n  //////////////////////////////\n  // Events\n  //////////////////////////////\n\n  event RoundStart(uint256 round, uint256 startTime, uint256 endTime);\n  event RoundEnd(uint256 round, address winner, uint256 reward);\n  event PowerIncreased(address indexed account, uint256 amount);\n  event PowerDecreased(address indexed account, uint256 amount);\n\n  //////////////////////////////\n  // Constructor\n  //////////////////////////////\n\n  constructor (\n    address seigManager,\n    address wton,\n    uint256 roundDuration\n  ) public {\n    require(roundDuration > 0);\n\n    _seigManager = seigManager;\n    _wton = wton;\n    _roundDuration = roundDuration;\n  }\n\n  /**\n   * @dev set SeigManager contract, only by owner.\n   */\n  function setSeigManager(address seigManager) external onlyOwner {\n    _seigManager = seigManager;\n  }\n\n  function init() external onlyOwner {\n    require(!initialized);\n    sortitionSumTrees.createTree(TREE_KEY, TREE_NUM_CHILDREN);\n    initialized = true;\n  }\n\n  function start() external onlyOwner {\n    require(_currentRound == 0, \"PowerTON: current round is not zero\");\n    require(rounds[_currentRound].startTime == 0 && rounds[_currentRound].endTime == 0, \"PowerTON: round already started\");\n    _startRound(0);\n  }\n\n  function powerOf(address account) external view returns (uint256) {\n    return sortitionSumTrees.stakeOf(TREE_KEY, _getID(account));\n  }\n\n  /**\n   * @dev end current round\n   */\n  function endRound() external {\n    require(currentRoundFinished(), \"PowerTON: round not finished\");\n    _endRound();\n  }\n\n  function roundStarted(uint256 round) public view returns (bool) {\n    return rounds[round].startTime != 0 && rounds[round].endTime != 0;\n  }\n\n  function roundFinished(uint256 round) public view returns (bool) {\n    return roundStarted(round) &&\n      rounds[round].endTime < block.timestamp &&\n      rounds[round].winner == address(0);\n  }\n\n  function currentRoundFinished() public view returns (bool) {\n    return roundFinished(_currentRound);\n  }\n\n  function _endRound() internal {\n    // short circuit in case of no deposit\n    if (_totalDeposits == 0) {\n      return;\n    }\n\n    uint256 round = _currentRound;\n    Round storage r = rounds[round];\n\n    uint256 n = _seed(block.number - 1) % _totalDeposits;\n    address winner = _recoverID(sortitionSumTrees.draw(TREE_KEY, n));\n    require(winner != address(0), \"PowerTON: no winner\");\n    r.winner = winner;\n\n\n    uint256 reward = IERC20(_wton).balanceOf(address(this))\n      .mul(REWARD_NUMERATOR)\n      .div(REWARD_DENOMINATOR);\n\n    r.reward = reward;\n\n    emit RoundEnd(round, winner, reward);\n\n    _currentRound += 1;\n    _startRound(_currentRound);\n\n    WTON(_wton).swapToTONAndTransfer(winner, reward);\n  }\n\n  //////////////////////////////\n  // SeigManager\n  //////////////////////////////\n\n  function onDeposit(\n    address rootchain,\n    address account,\n    uint256 amount\n  ) external checkRound {\n    require(msg.sender == _seigManager);\n    _increaseEffectiveBalance(account, amount);\n    _totalDeposits = _totalDeposits.add(amount);\n\n    emit PowerIncreased(account, amount);\n  }\n\n  function onWithdraw(\n    address rootchain,\n    address account,\n    uint256 amount\n  ) external checkRound {\n    require(msg.sender == _seigManager);\n    uint256 v = _decreaseEffectiveBalance(account, amount);\n    _totalDeposits = _totalDeposits.sub(v);\n    emit PowerDecreased(account, v);\n  }\n\n  //////////////////////////////\n  // External storage getters\n  //////////////////////////////\n\n  function seigManager() external view returns (address) { return _seigManager; }\n  function wton() external view returns (address) { return _wton; }\n  function currentRound() external view returns (uint256) { return _currentRound; }\n  function roundDuration() external view returns (uint256) { return _roundDuration; }\n  function totalDeposits() external view returns (uint256) { return _totalDeposits; }\n  function winnerOf(uint256 round) external view returns (address) {\n    return rounds[round].winner;\n  }\n\n  //////////////////////////////\n  // Internal functions\n  //////////////////////////////\n\n  // TODO: enable upgradability\n  // TODO: use other entrophy source\n  // https://github.com/cryptocopycats/awesome-cryptokitties/blob/master/contracts/GeneScience.sol#L111-L133\n  function _seed(uint256 _targetBlock) internal view returns (uint256 randomN) {\n    uint256 h = uint256(blockhash(_targetBlock));\n\n    if (h == 0) {\n      _targetBlock = (block.number & maskFirst248Bits) + (_targetBlock & maskLast8Bits);\n      if (_targetBlock >= block.number) _targetBlock -= 256;\n\n      h = uint256(blockhash(_targetBlock));\n    }\n\n    randomN = (h + block.number + uint256(blockhash(block.number - 1))) * h * h * _totalDeposits;\n  }\n\n  function _startRound(uint256 round) internal {\n    require(\n      round == 0 ||\n      (rounds[round - 1].endTime < block.timestamp\n        && rounds[round - 1].winner != address(0))\n    );\n\n    Round storage r = rounds[round];\n    require(r.startTime == 0 && r.endTime == 0 && r.winner == address(0));\n\n    uint64 startTime = uint64(block.timestamp);\n    uint64 endTime = uint64(block.timestamp + _roundDuration);\n    r.startTime = startTime;\n    r.endTime = endTime;\n\n    emit RoundStart(round, startTime, endTime);\n  }\n\n  function _increaseEffectiveBalance(address account, uint256 amount) internal {\n    bytes32 id = _getID(account);\n    uint256 value = sortitionSumTrees.stakeOf(TREE_KEY, id).add(amount);\n\n    sortitionSumTrees.set(TREE_KEY, value, id);\n  }\n\n  function _decreaseEffectiveBalance(address account, uint256 amount) internal returns (uint256) {\n    bytes32 id = _getID(account);\n\n    uint256 stake = sortitionSumTrees.stakeOf(TREE_KEY, id);\n    uint256 value = _sub0(stake, amount);\n\n    sortitionSumTrees.set(TREE_KEY, value, id);\n    return stake - value;\n  }\n\n  /**\n   * @dev return a - b if a > b, otherwise 0\n   */\n  function _sub0(uint256 a, uint256 b) internal pure returns (uint256) {\n    if (a > b) return a - b;\n    return 0;\n  }\n\n  function _getID(address account) internal pure returns (bytes32) {\n    return bytes32(uint256(account));\n  }\n\n  function _recoverID(bytes32 id) internal pure returns (address) {\n    return address(uint160(uint256(id)));\n  }\n\n  function _getTreeKey(uint256 round) internal pure returns (bytes32 k) {\n    require(round < 2 ** 224);\n\n    k = bytes32(TREE_KEY_PREFIX);\n    assembly {\n      k := add(k, round)\n    }\n  }\n}",
  "sourcePath": "/Users/hwangjaeseung/workspace/plasma-evm-contracts/contracts/stake/powerton/PowerTON.sol",
  "compiler": {
    "name": "solc",
    "version": "0.5.12+commit.7709ece9.Emscripten.clang"
  },
  "schemaVersion": "3.2.0",
  "updatedAt": "2020-07-03T05:58:27.470Z",
  "devdoc": {
    "methods": {
      "endRound()": {
        "details": "end current round"
      },
      "isOwner()": {
        "details": "Returns true if the caller is the current owner."
      },
      "owner()": {
        "details": "Returns the address of the current owner."
      },
      "pause()": {
        "details": "Called by a pauser to pause, triggers stopped state."
      },
      "paused()": {
        "details": "Returns true if the contract is paused, and false otherwise."
      },
      "renounceOwnership()": {
        "details": "Leaves the contract without owner. It will not be possible to call `onlyOwner` functions anymore. Can only be called by the current owner.     * NOTE: Renouncing ownership will leave the contract without an owner, thereby removing any functionality that is only available to the owner."
      },
      "setSeigManager(address)": {
        "details": "set SeigManager contract, only by owner."
      },
      "transferOwnership(address)": {
        "details": "Transfers ownership of the contract to a new account (`newOwner`). Can only be called by the current owner."
      },
      "unpause()": {
        "details": "Called by a pauser to unpause, returns to normal state."
      }
    }
  },
  "userdoc": {
    "methods": {
      "constructor": "///////////////////////////",
      "onDeposit(address,address,uint256)": {
        "notice": "///////////////////////////"
      },
      "seigManager()": {
        "notice": "///////////////////////////"
      }
    }
  }
}