{
  "contractName": "RootChain",
  "abi": [
    {
      "inputs": [
        {
          "internalType": "address",
          "name": "_epochHandler",
          "type": "address"
        },
        {
          "internalType": "address",
          "name": "_submitHandler",
          "type": "address"
        },
        {
          "internalType": "address",
          "name": "_etherToken",
          "type": "address"
        },
        {
          "internalType": "bool",
          "name": "_development",
          "type": "bool"
        },
        {
          "internalType": "uint256",
          "name": "_NRELength",
          "type": "uint256"
        },
        {
          "internalType": "bytes32",
          "name": "_statesRoot",
          "type": "bytes32"
        },
        {
          "internalType": "bytes32",
          "name": "_transactionsRoot",
          "type": "bytes32"
        },
        {
          "internalType": "bytes32",
          "name": "_receiptsRoot",
          "type": "bytes32"
        }
      ],
      "payable": false,
      "stateMutability": "nonpayable",
      "type": "constructor"
    },
    {
      "anonymous": false,
      "inputs": [
        {
          "indexed": false,
          "internalType": "uint256",
          "name": "forkNumber",
          "type": "uint256"
        },
        {
          "indexed": false,
          "internalType": "uint256",
          "name": "blockNumber",
          "type": "uint256"
        }
      ],
      "name": "BlockFinalized",
      "type": "event"
    },
    {
      "anonymous": false,
      "inputs": [
        {
          "indexed": false,
          "internalType": "uint256",
          "name": "fork",
          "type": "uint256"
        },
        {
          "indexed": false,
          "internalType": "uint256",
          "name": "epochNumber",
          "type": "uint256"
        },
        {
          "indexed": false,
          "internalType": "uint256",
          "name": "blockNumber",
          "type": "uint256"
        },
        {
          "indexed": false,
          "internalType": "bool",
          "name": "isRequest",
          "type": "bool"
        },
        {
          "indexed": false,
          "internalType": "bool",
          "name": "userActivated",
          "type": "bool"
        }
      ],
      "name": "BlockSubmitted",
      "type": "event"
    },
    {
      "anonymous": false,
      "inputs": [
        {
          "indexed": false,
          "internalType": "uint256",
          "name": "requestId",
          "type": "uint256"
        },
        {
          "indexed": false,
          "internalType": "address",
          "name": "requestor",
          "type": "address"
        },
        {
          "indexed": false,
          "internalType": "address",
          "name": "to",
          "type": "address"
        },
        {
          "indexed": false,
          "internalType": "bytes",
          "name": "trieKey",
          "type": "bytes"
        },
        {
          "indexed": false,
          "internalType": "bytes32",
          "name": "trieValue",
          "type": "bytes32"
        }
      ],
      "name": "ERUCreated",
      "type": "event"
    },
    {
      "anonymous": false,
      "inputs": [
        {
          "indexed": false,
          "internalType": "uint256",
          "name": "forkNumber",
          "type": "uint256"
        },
        {
          "indexed": false,
          "internalType": "uint256",
          "name": "epochNumber",
          "type": "uint256"
        }
      ],
      "name": "EpochFilled",
      "type": "event"
    },
    {
      "anonymous": false,
      "inputs": [
        {
          "indexed": false,
          "internalType": "uint256",
          "name": "forkNumber",
          "type": "uint256"
        },
        {
          "indexed": false,
          "internalType": "uint256",
          "name": "epochNumber",
          "type": "uint256"
        }
      ],
      "name": "EpochFilling",
      "type": "event"
    },
    {
      "anonymous": false,
      "inputs": [
        {
          "indexed": false,
          "internalType": "uint256",
          "name": "forkNumber",
          "type": "uint256"
        },
        {
          "indexed": false,
          "internalType": "uint256",
          "name": "epochNumber",
          "type": "uint256"
        },
        {
          "indexed": false,
          "internalType": "uint256",
          "name": "startBlockNumber",
          "type": "uint256"
        },
        {
          "indexed": false,
          "internalType": "uint256",
          "name": "endBlockNumber",
          "type": "uint256"
        }
      ],
      "name": "EpochFinalized",
      "type": "event"
    },
    {
      "anonymous": false,
      "inputs": [
        {
          "indexed": false,
          "internalType": "uint256",
          "name": "forkNumber",
          "type": "uint256"
        },
        {
          "indexed": false,
          "internalType": "uint256",
          "name": "epochNumber",
          "type": "uint256"
        },
        {
          "indexed": false,
          "internalType": "uint256",
          "name": "startBlockNumber",
          "type": "uint256"
        },
        {
          "indexed": false,
          "internalType": "uint256",
          "name": "endBlockNumber",
          "type": "uint256"
        },
        {
          "indexed": false,
          "internalType": "uint256",
          "name": "requestStart",
          "type": "uint256"
        },
        {
          "indexed": false,
          "internalType": "uint256",
          "name": "requestEnd",
          "type": "uint256"
        },
        {
          "indexed": false,
          "internalType": "bool",
          "name": "epochIsEmpty",
          "type": "bool"
        },
        {
          "indexed": false,
          "internalType": "bool",
          "name": "isRequest",
          "type": "bool"
        },
        {
          "indexed": false,
          "internalType": "bool",
          "name": "userActivated",
          "type": "bool"
        },
        {
          "indexed": false,
          "internalType": "bool",
          "name": "rebase",
          "type": "bool"
        }
      ],
      "name": "EpochPrepared",
      "type": "event"
    },
    {
      "anonymous": false,
      "inputs": [
        {
          "indexed": false,
          "internalType": "uint256",
          "name": "forkNumber",
          "type": "uint256"
        },
        {
          "indexed": false,
          "internalType": "uint256",
          "name": "epochNumber",
          "type": "uint256"
        },
        {
          "indexed": false,
          "internalType": "uint256",
          "name": "startBlockNumber",
          "type": "uint256"
        },
        {
          "indexed": false,
          "internalType": "uint256",
          "name": "endBlockNumber",
          "type": "uint256"
        },
        {
          "indexed": false,
          "internalType": "uint256",
          "name": "requestStart",
          "type": "uint256"
        },
        {
          "indexed": false,
          "internalType": "uint256",
          "name": "requestEnd",
          "type": "uint256"
        },
        {
          "indexed": false,
          "internalType": "bool",
          "name": "epochIsEmpty",
          "type": "bool"
        },
        {
          "indexed": false,
          "internalType": "bool",
          "name": "isRequest",
          "type": "bool"
        },
        {
          "indexed": false,
          "internalType": "bool",
          "name": "userActivated",
          "type": "bool"
        }
      ],
      "name": "EpochRebased",
      "type": "event"
    },
    {
      "anonymous": false,
      "inputs": [
        {
          "indexed": false,
          "internalType": "uint256",
          "name": "newFork",
          "type": "uint256"
        },
        {
          "indexed": false,
          "internalType": "uint256",
          "name": "epochNumber",
          "type": "uint256"
        },
        {
          "indexed": false,
          "internalType": "uint256",
          "name": "forkedBlockNumber",
          "type": "uint256"
        }
      ],
      "name": "Forked",
      "type": "event"
    },
    {
      "anonymous": false,
      "inputs": [
        {
          "indexed": true,
          "internalType": "address",
          "name": "account",
          "type": "address"
        }
      ],
      "name": "MapperAdded",
      "type": "event"
    },
    {
      "anonymous": false,
      "inputs": [
        {
          "indexed": true,
          "internalType": "address",
          "name": "account",
          "type": "address"
        }
      ],
      "name": "MapperRemoved",
      "type": "event"
    },
    {
      "anonymous": false,
      "inputs": [
        {
          "indexed": false,
          "internalType": "address",
          "name": "_newOperator",
          "type": "address"
        }
      ],
      "name": "OperatorChanged",
      "type": "event"
    },
    {
      "anonymous": false,
      "inputs": [
        {
          "indexed": false,
          "internalType": "uint256",
          "name": "requestId",
          "type": "uint256"
        },
        {
          "indexed": false,
          "internalType": "bool",
          "name": "userActivated",
          "type": "bool"
        }
      ],
      "name": "RequestApplied",
      "type": "event"
    },
    {
      "anonymous": false,
      "inputs": [
        {
          "indexed": false,
          "internalType": "uint256",
          "name": "requestId",
          "type": "uint256"
        },
        {
          "indexed": false,
          "internalType": "bool",
          "name": "userActivated",
          "type": "bool"
        }
      ],
      "name": "RequestChallenged",
      "type": "event"
    },
    {
      "anonymous": false,
      "inputs": [
        {
          "indexed": false,
          "internalType": "uint256",
          "name": "requestId",
          "type": "uint256"
        },
        {
          "indexed": false,
          "internalType": "address",
          "name": "requestor",
          "type": "address"
        },
        {
          "indexed": false,
          "internalType": "address",
          "name": "to",
          "type": "address"
        },
        {
          "indexed": false,
          "internalType": "uint256",
          "name": "weiAmount",
          "type": "uint256"
        },
        {
          "indexed": false,
          "internalType": "bytes32",
          "name": "trieKey",
          "type": "bytes32"
        },
        {
          "indexed": false,
          "internalType": "bytes",
          "name": "trieValue",
          "type": "bytes"
        },
        {
          "indexed": false,
          "internalType": "bool",
          "name": "isExit",
          "type": "bool"
        },
        {
          "indexed": false,
          "internalType": "bool",
          "name": "userActivated",
          "type": "bool"
        }
      ],
      "name": "RequestCreated",
      "type": "event"
    },
    {
      "anonymous": false,
      "inputs": [
        {
          "indexed": false,
          "internalType": "uint256",
          "name": "requestId",
          "type": "uint256"
        },
        {
          "indexed": false,
          "internalType": "bool",
          "name": "userActivated",
          "type": "bool"
        }
      ],
      "name": "RequestFinalized",
      "type": "event"
    },
    {
      "anonymous": false,
      "inputs": [
        {
          "indexed": false,
          "internalType": "address",
          "name": "contractInRootchain",
          "type": "address"
        },
        {
          "indexed": false,
          "internalType": "address",
          "name": "contractInChildchain",
          "type": "address"
        }
      ],
      "name": "RequestableContractMapped",
      "type": "event"
    },
    {
      "anonymous": false,
      "inputs": [
        {
          "indexed": false,
          "internalType": "bool",
          "name": "userActivated",
          "type": "bool"
        }
      ],
      "name": "SessionTimeout",
      "type": "event"
    },
    {
      "anonymous": false,
      "inputs": [
        {
          "indexed": true,
          "internalType": "address",
          "name": "account",
          "type": "address"
        }
      ],
      "name": "SubmitterAdded",
      "type": "event"
    },
    {
      "anonymous": false,
      "inputs": [
        {
          "indexed": true,
          "internalType": "address",
          "name": "account",
          "type": "address"
        }
      ],
      "name": "SubmitterRemoved",
      "type": "event"
    },
    {
      "constant": true,
      "inputs": [],
      "name": "COST_ERO",
      "outputs": [
        {
          "internalType": "uint256",
          "name": "",
          "type": "uint256"
        }
      ],
      "payable": false,
      "stateMutability": "view",
      "type": "function"
    },
    {
      "constant": true,
      "inputs": [],
      "name": "COST_ERU",
      "outputs": [
        {
          "internalType": "uint256",
          "name": "",
          "type": "uint256"
        }
      ],
      "payable": false,
      "stateMutability": "view",
      "type": "function"
    },
    {
      "constant": true,
      "inputs": [],
      "name": "COST_NRB",
      "outputs": [
        {
          "internalType": "uint256",
          "name": "",
          "type": "uint256"
        }
      ],
      "payable": false,
      "stateMutability": "view",
      "type": "function"
    },
    {
      "constant": true,
      "inputs": [],
      "name": "COST_ORB",
      "outputs": [
        {
          "internalType": "uint256",
          "name": "",
          "type": "uint256"
        }
      ],
      "payable": false,
      "stateMutability": "view",
      "type": "function"
    },
    {
      "constant": true,
      "inputs": [],
      "name": "COST_URB",
      "outputs": [
        {
          "internalType": "uint256",
          "name": "",
          "type": "uint256"
        }
      ],
      "payable": false,
      "stateMutability": "view",
      "type": "function"
    },
    {
      "constant": true,
      "inputs": [],
      "name": "COST_URB_PREPARE",
      "outputs": [
        {
          "internalType": "uint256",
          "name": "",
          "type": "uint256"
        }
      ],
      "payable": false,
      "stateMutability": "view",
      "type": "function"
    },
    {
      "constant": true,
      "inputs": [],
      "name": "CP_COMPUTATION",
      "outputs": [
        {
          "internalType": "uint256",
          "name": "",
          "type": "uint256"
        }
      ],
      "payable": false,
      "stateMutability": "view",
      "type": "function"
    },
    {
      "constant": true,
      "inputs": [],
      "name": "CP_EXIT",
      "outputs": [
        {
          "internalType": "uint256",
          "name": "",
          "type": "uint256"
        }
      ],
      "payable": false,
      "stateMutability": "view",
      "type": "function"
    },
    {
      "constant": true,
      "inputs": [],
      "name": "CP_WITHHOLDING",
      "outputs": [
        {
          "internalType": "uint256",
          "name": "",
          "type": "uint256"
        }
      ],
      "payable": false,
      "stateMutability": "view",
      "type": "function"
    },
    {
      "constant": true,
      "inputs": [],
      "name": "EROIdToFinalize",
      "outputs": [
        {
          "internalType": "uint256",
          "name": "",
          "type": "uint256"
        }
      ],
      "payable": false,
      "stateMutability": "view",
      "type": "function"
    },
    {
      "constant": true,
      "inputs": [
        {
          "internalType": "uint256",
          "name": "",
          "type": "uint256"
        }
      ],
      "name": "EROs",
      "outputs": [
        {
          "internalType": "uint64",
          "name": "timestamp",
          "type": "uint64"
        },
        {
          "internalType": "bool",
          "name": "isExit",
          "type": "bool"
        },
        {
          "internalType": "bool",
          "name": "isTransfer",
          "type": "bool"
        },
        {
          "internalType": "bool",
          "name": "finalized",
          "type": "bool"
        },
        {
          "internalType": "bool",
          "name": "challenged",
          "type": "bool"
        },
        {
          "internalType": "uint128",
          "name": "value",
          "type": "uint128"
        },
        {
          "internalType": "address payable",
          "name": "requestor",
          "type": "address"
        },
        {
          "internalType": "address",
          "name": "to",
          "type": "address"
        },
        {
          "internalType": "bytes32",
          "name": "trieKey",
          "type": "bytes32"
        },
        {
          "internalType": "bytes32",
          "name": "hash",
          "type": "bytes32"
        },
        {
          "internalType": "bytes",
          "name": "trieValue",
          "type": "bytes"
        }
      ],
      "payable": false,
      "stateMutability": "view",
      "type": "function"
    },
    {
      "constant": true,
      "inputs": [],
      "name": "ERUIdToFinalize",
      "outputs": [
        {
          "internalType": "uint256",
          "name": "",
          "type": "uint256"
        }
      ],
      "payable": false,
      "stateMutability": "view",
      "type": "function"
    },
    {
      "constant": true,
      "inputs": [
        {
          "internalType": "uint256",
          "name": "",
          "type": "uint256"
        }
      ],
      "name": "ERUs",
      "outputs": [
        {
          "internalType": "uint64",
          "name": "timestamp",
          "type": "uint64"
        },
        {
          "internalType": "bool",
          "name": "isExit",
          "type": "bool"
        },
        {
          "internalType": "bool",
          "name": "isTransfer",
          "type": "bool"
        },
        {
          "internalType": "bool",
          "name": "finalized",
          "type": "bool"
        },
        {
          "internalType": "bool",
          "name": "challenged",
          "type": "bool"
        },
        {
          "internalType": "uint128",
          "name": "value",
          "type": "uint128"
        },
        {
          "internalType": "address payable",
          "name": "requestor",
          "type": "address"
        },
        {
          "internalType": "address",
          "name": "to",
          "type": "address"
        },
        {
          "internalType": "bytes32",
          "name": "trieKey",
          "type": "bytes32"
        },
        {
          "internalType": "bytes32",
          "name": "hash",
          "type": "bytes32"
        },
        {
          "internalType": "bytes",
          "name": "trieValue",
          "type": "bytes"
        }
      ],
      "payable": false,
      "stateMutability": "view",
      "type": "function"
    },
    {
      "constant": true,
      "inputs": [],
      "name": "NRELength",
      "outputs": [
        {
          "internalType": "uint256",
          "name": "",
          "type": "uint256"
        }
      ],
      "payable": false,
      "stateMutability": "view",
      "type": "function"
    },
    {
      "constant": true,
      "inputs": [],
      "name": "NULL_ADDRESS",
      "outputs": [
        {
          "internalType": "address",
          "name": "",
          "type": "address"
        }
      ],
      "payable": false,
      "stateMutability": "view",
      "type": "function"
    },
    {
      "constant": true,
      "inputs": [
        {
          "internalType": "uint256",
          "name": "",
          "type": "uint256"
        }
      ],
      "name": "ORBs",
      "outputs": [
        {
          "internalType": "bool",
          "name": "submitted",
          "type": "bool"
        },
        {
          "internalType": "uint64",
          "name": "numEnter",
          "type": "uint64"
        },
        {
          "internalType": "uint64",
          "name": "epochNumber",
          "type": "uint64"
        },
        {
          "internalType": "uint64",
          "name": "requestStart",
          "type": "uint64"
        },
        {
          "internalType": "uint64",
          "name": "requestEnd",
          "type": "uint64"
        },
        {
          "internalType": "address",
          "name": "trie",
          "type": "address"
        }
      ],
      "payable": false,
      "stateMutability": "view",
      "type": "function"
    },
    {
      "constant": true,
      "inputs": [],
      "name": "PREPARE_TIMEOUT",
      "outputs": [
        {
          "internalType": "uint256",
          "name": "",
          "type": "uint256"
        }
      ],
      "payable": false,
      "stateMutability": "view",
      "type": "function"
    },
    {
      "constant": true,
      "inputs": [],
      "name": "REQUEST_GAS",
      "outputs": [
        {
          "internalType": "uint256",
          "name": "",
          "type": "uint256"
        }
      ],
      "payable": false,
      "stateMutability": "view",
      "type": "function"
    },
    {
      "constant": true,
      "inputs": [
        {
          "internalType": "uint256",
          "name": "",
          "type": "uint256"
        }
      ],
      "name": "URBs",
      "outputs": [
        {
          "internalType": "bool",
          "name": "submitted",
          "type": "bool"
        },
        {
          "internalType": "uint64",
          "name": "numEnter",
          "type": "uint64"
        },
        {
          "internalType": "uint64",
          "name": "epochNumber",
          "type": "uint64"
        },
        {
          "internalType": "uint64",
          "name": "requestStart",
          "type": "uint64"
        },
        {
          "internalType": "uint64",
          "name": "requestEnd",
          "type": "uint64"
        },
        {
          "internalType": "address",
          "name": "trie",
          "type": "address"
        }
      ],
      "payable": false,
      "stateMutability": "view",
      "type": "function"
    },
    {
      "constant": true,
      "inputs": [],
      "name": "currentFork",
      "outputs": [
        {
          "internalType": "uint256",
          "name": "",
          "type": "uint256"
        }
      ],
      "payable": false,
      "stateMutability": "view",
      "type": "function"
    },
    {
      "constant": true,
      "inputs": [],
      "name": "development",
      "outputs": [
        {
          "internalType": "bool",
          "name": "",
          "type": "bool"
        }
      ],
      "payable": false,
      "stateMutability": "view",
      "type": "function"
    },
    {
      "constant": true,
      "inputs": [],
      "name": "epochHandler",
      "outputs": [
        {
          "internalType": "address",
          "name": "",
          "type": "address"
        }
      ],
      "payable": false,
      "stateMutability": "view",
      "type": "function"
    },
    {
      "constant": true,
      "inputs": [],
      "name": "etherToken",
      "outputs": [
        {
          "internalType": "address",
          "name": "",
          "type": "address"
        }
      ],
      "payable": false,
      "stateMutability": "view",
      "type": "function"
    },
    {
      "constant": true,
      "inputs": [
        {
          "internalType": "uint256",
          "name": "",
          "type": "uint256"
        }
      ],
      "name": "firstFilledORENumber",
      "outputs": [
        {
          "internalType": "uint256",
          "name": "",
          "type": "uint256"
        }
      ],
      "payable": false,
      "stateMutability": "view",
      "type": "function"
    },
    {
      "constant": true,
      "inputs": [
        {
          "internalType": "uint256",
          "name": "",
          "type": "uint256"
        }
      ],
      "name": "firstNonEmptyRequestEpoch",
      "outputs": [
        {
          "internalType": "uint256",
          "name": "",
          "type": "uint256"
        }
      ],
      "payable": false,
      "stateMutability": "view",
      "type": "function"
    },
    {
      "constant": true,
      "inputs": [
        {
          "internalType": "uint256",
          "name": "",
          "type": "uint256"
        }
      ],
      "name": "forks",
      "outputs": [
        {
          "internalType": "uint64",
          "name": "forkedBlock",
          "type": "uint64"
        },
        {
          "internalType": "uint64",
          "name": "firstEpoch",
          "type": "uint64"
        },
        {
          "internalType": "uint64",
          "name": "lastEpoch",
          "type": "uint64"
        },
        {
          "internalType": "uint64",
          "name": "firstBlock",
          "type": "uint64"
        },
        {
          "internalType": "uint64",
          "name": "lastBlock",
          "type": "uint64"
        },
        {
          "internalType": "uint64",
          "name": "lastFinalizedEpoch",
          "type": "uint64"
        },
        {
          "internalType": "uint64",
          "name": "lastFinalizedBlock",
          "type": "uint64"
        },
        {
          "internalType": "uint64",
          "name": "timestamp",
          "type": "uint64"
        },
        {
          "internalType": "uint64",
          "name": "firstEnterEpoch",
          "type": "uint64"
        },
        {
          "internalType": "uint64",
          "name": "lastEnterEpoch",
          "type": "uint64"
        },
        {
          "internalType": "uint64",
          "name": "nextBlockToRebase",
          "type": "uint64"
        },
        {
          "internalType": "bool",
          "name": "rebased",
          "type": "bool"
        }
      ],
      "payable": false,
      "stateMutability": "view",
      "type": "function"
    },
    {
      "constant": true,
      "inputs": [
        {
          "internalType": "address",
          "name": "account",
          "type": "address"
        }
      ],
      "name": "isMapper",
      "outputs": [
        {
          "internalType": "bool",
          "name": "",
          "type": "bool"
        }
      ],
      "payable": false,
      "stateMutability": "view",
      "type": "function"
    },
    {
      "constant": true,
      "inputs": [],
      "name": "isRootChain",
      "outputs": [
        {
          "internalType": "bool",
          "name": "",
          "type": "bool"
        }
      ],
      "payable": false,
      "stateMutability": "view",
      "type": "function"
    },
    {
      "constant": true,
      "inputs": [
        {
          "internalType": "address",
          "name": "account",
          "type": "address"
        }
      ],
      "name": "isSubmitter",
      "outputs": [
        {
          "internalType": "bool",
          "name": "",
          "type": "bool"
        }
      ],
      "payable": false,
      "stateMutability": "view",
      "type": "function"
    },
    {
      "constant": true,
      "inputs": [],
      "name": "lastAppliedBlockNumber",
      "outputs": [
        {
          "internalType": "uint256",
          "name": "",
          "type": "uint256"
        }
      ],
      "payable": false,
      "stateMutability": "view",
      "type": "function"
    },
    {
      "constant": true,
      "inputs": [],
      "name": "lastAppliedEpochNumber",
      "outputs": [
        {
          "internalType": "uint256",
          "name": "",
          "type": "uint256"
        }
      ],
      "payable": false,
      "stateMutability": "view",
      "type": "function"
    },
    {
      "constant": true,
      "inputs": [],
      "name": "lastAppliedForkNumber",
      "outputs": [
        {
          "internalType": "uint256",
          "name": "",
          "type": "uint256"
        }
      ],
      "payable": false,
      "stateMutability": "view",
      "type": "function"
    },
    {
      "constant": true,
      "inputs": [
        {
          "internalType": "uint256",
          "name": "",
          "type": "uint256"
        }
      ],
      "name": "lastNonEmptyRequestEpoch",
      "outputs": [
        {
          "internalType": "uint256",
          "name": "",
          "type": "uint256"
        }
      ],
      "payable": false,
      "stateMutability": "view",
      "type": "function"
    },
    {
      "constant": true,
      "inputs": [],
      "name": "numEnterForORB",
      "outputs": [
        {
          "internalType": "uint256",
          "name": "",
          "type": "uint256"
        }
      ],
      "payable": false,
      "stateMutability": "view",
      "type": "function"
    },
    {
      "constant": true,
      "inputs": [],
      "name": "operator",
      "outputs": [
        {
          "internalType": "address",
          "name": "",
          "type": "address"
        }
      ],
      "payable": false,
      "stateMutability": "view",
      "type": "function"
    },
    {
      "constant": false,
      "inputs": [],
      "name": "renounceMapper",
      "outputs": [],
      "payable": false,
      "stateMutability": "nonpayable",
      "type": "function"
    },
    {
      "constant": false,
      "inputs": [],
      "name": "renounceSubmitter",
      "outputs": [],
      "payable": false,
      "stateMutability": "nonpayable",
      "type": "function"
    },
    {
      "constant": true,
      "inputs": [
        {
          "internalType": "address",
          "name": "",
          "type": "address"
        }
      ],
      "name": "requestableContracts",
      "outputs": [
        {
          "internalType": "address",
          "name": "",
          "type": "address"
        }
      ],
      "payable": false,
      "stateMutability": "view",
      "type": "function"
    },
    {
      "constant": true,
      "inputs": [],
      "name": "seigManager",
      "outputs": [
        {
          "internalType": "address",
          "name": "",
          "type": "address"
        }
      ],
      "payable": false,
      "stateMutability": "view",
      "type": "function"
    },
    {
      "constant": true,
      "inputs": [],
      "name": "submitHandler",
      "outputs": [
        {
          "internalType": "address",
          "name": "",
          "type": "address"
        }
      ],
      "payable": false,
      "stateMutability": "view",
      "type": "function"
    },
    {
      "constant": false,
      "inputs": [
        {
          "internalType": "address",
          "name": "_operator",
          "type": "address"
        }
      ],
      "name": "changeOperator",
      "outputs": [],
      "payable": false,
      "stateMutability": "nonpayable",
      "type": "function"
    },
    {
      "constant": false,
      "inputs": [
        {
          "internalType": "address",
          "name": "account",
          "type": "address"
        }
      ],
      "name": "addSubmitter",
      "outputs": [],
      "payable": false,
      "stateMutability": "nonpayable",
      "type": "function"
    },
    {
      "constant": false,
      "inputs": [
        {
          "internalType": "address",
          "name": "account",
          "type": "address"
        }
      ],
      "name": "addMapper",
      "outputs": [],
      "payable": false,
      "stateMutability": "nonpayable",
      "type": "function"
    },
    {
      "constant": false,
      "inputs": [
        {
          "internalType": "address",
          "name": "account",
          "type": "address"
        }
      ],
      "name": "setSeigManager",
      "outputs": [],
      "payable": false,
      "stateMutability": "nonpayable",
      "type": "function"
    },
    {
      "constant": false,
      "inputs": [
        {
          "internalType": "address",
          "name": "_rootchain",
          "type": "address"
        },
        {
          "internalType": "address",
          "name": "_childchain",
          "type": "address"
        }
      ],
      "name": "mapRequestableContractByOperator",
      "outputs": [
        {
          "internalType": "bool",
          "name": "success",
          "type": "bool"
        }
      ],
      "payable": false,
      "stateMutability": "nonpayable",
      "type": "function"
    },
    {
      "constant": true,
      "inputs": [],
      "name": "getNumEROs",
      "outputs": [
        {
          "internalType": "uint256",
          "name": "",
          "type": "uint256"
        }
      ],
      "payable": false,
      "stateMutability": "view",
      "type": "function"
    },
    {
      "constant": true,
      "inputs": [],
      "name": "getNumORBs",
      "outputs": [
        {
          "internalType": "uint256",
          "name": "",
          "type": "uint256"
        }
      ],
      "payable": false,
      "stateMutability": "view",
      "type": "function"
    },
    {
      "constant": true,
      "inputs": [
        {
          "internalType": "uint256",
          "name": "_requestId",
          "type": "uint256"
        }
      ],
      "name": "getEROBytes",
      "outputs": [
        {
          "internalType": "bytes",
          "name": "out",
          "type": "bytes"
        }
      ],
      "payable": false,
      "stateMutability": "view",
      "type": "function"
    },
    {
      "constant": false,
      "inputs": [],
      "name": "prepareToSubmitURB",
      "outputs": [],
      "payable": true,
      "stateMutability": "payable",
      "type": "function"
    },
    {
      "constant": false,
      "inputs": [
        {
          "internalType": "uint256",
          "name": "_pos1",
          "type": "uint256"
        },
        {
          "internalType": "uint256",
          "name": "_pos2",
          "type": "uint256"
        },
        {
          "internalType": "bytes32",
          "name": "_epochStateRoot",
          "type": "bytes32"
        },
        {
          "internalType": "bytes32",
          "name": "_epochTransactionsRoot",
          "type": "bytes32"
        },
        {
          "internalType": "bytes32",
          "name": "_epochReceiptsRoot",
          "type": "bytes32"
        }
      ],
      "name": "submitNRE",
      "outputs": [
        {
          "internalType": "bool",
          "name": "success",
          "type": "bool"
        }
      ],
      "payable": true,
      "stateMutability": "payable",
      "type": "function"
    },
    {
      "constant": false,
      "inputs": [
        {
          "internalType": "uint256",
          "name": "_pos",
          "type": "uint256"
        },
        {
          "internalType": "bytes32",
          "name": "_statesRoot",
          "type": "bytes32"
        },
        {
          "internalType": "bytes32",
          "name": "_transactionsRoot",
          "type": "bytes32"
        },
        {
          "internalType": "bytes32",
          "name": "_receiptsRoot",
          "type": "bytes32"
        }
      ],
      "name": "submitORB",
      "outputs": [
        {
          "internalType": "bool",
          "name": "success",
          "type": "bool"
        }
      ],
      "payable": true,
      "stateMutability": "payable",
      "type": "function"
    },
    {
      "constant": false,
      "inputs": [
        {
          "internalType": "uint256",
          "name": "_pos",
          "type": "uint256"
        },
        {
          "internalType": "bytes32",
          "name": "_statesRoot",
          "type": "bytes32"
        },
        {
          "internalType": "bytes32",
          "name": "_transactionsRoot",
          "type": "bytes32"
        },
        {
          "internalType": "bytes32",
          "name": "_receiptsRoot",
          "type": "bytes32"
        }
      ],
      "name": "submitURB",
      "outputs": [
        {
          "internalType": "bool",
          "name": "success",
          "type": "bool"
        }
      ],
      "payable": true,
      "stateMutability": "payable",
      "type": "function"
    },
    {
      "constant": false,
      "inputs": [],
      "name": "finalizeBlock",
      "outputs": [
        {
          "internalType": "bool",
          "name": "success",
          "type": "bool"
        }
      ],
      "payable": false,
      "stateMutability": "nonpayable",
      "type": "function"
    },
    {
      "constant": false,
      "inputs": [
        {
          "internalType": "uint256",
          "name": "_forkNumber",
          "type": "uint256"
        },
        {
          "internalType": "uint256",
          "name": "_blockNumber",
          "type": "uint256"
        },
        {
          "internalType": "uint256",
          "name": "_index",
          "type": "uint256"
        },
        {
          "internalType": "bytes",
          "name": "_receiptData",
          "type": "bytes"
        },
        {
          "internalType": "bytes",
          "name": "_proof",
          "type": "bytes"
        }
      ],
      "name": "challengeExit",
      "outputs": [],
      "payable": false,
      "stateMutability": "nonpayable",
      "type": "function"
    },
    {
      "constant": false,
      "inputs": [
        {
          "internalType": "uint256",
          "name": "_blockNumber",
          "type": "uint256"
        },
        {
          "internalType": "bytes",
          "name": "_key",
          "type": "bytes"
        },
        {
          "internalType": "bytes",
          "name": "_txByte",
          "type": "bytes"
        },
        {
          "internalType": "uint256",
          "name": "_branchMask",
          "type": "uint256"
        },
        {
          "internalType": "bytes32[]",
          "name": "_siblings",
          "type": "bytes32[]"
        }
      ],
      "name": "challengeNullAddress",
      "outputs": [],
      "payable": false,
      "stateMutability": "nonpayable",
      "type": "function"
    },
    {
      "constant": false,
      "inputs": [
        {
          "internalType": "address",
          "name": "_to",
          "type": "address"
        },
        {
          "internalType": "bytes32",
          "name": "_trieKey",
          "type": "bytes32"
        },
        {
          "internalType": "bytes",
          "name": "_trieValue",
          "type": "bytes"
        }
      ],
      "name": "startExit",
      "outputs": [
        {
          "internalType": "bool",
          "name": "success",
          "type": "bool"
        }
      ],
      "payable": true,
      "stateMutability": "payable",
      "type": "function"
    },
    {
      "constant": false,
      "inputs": [
        {
          "internalType": "address",
          "name": "_to",
          "type": "address"
        },
        {
          "internalType": "bytes32",
          "name": "_trieKey",
          "type": "bytes32"
        },
        {
          "internalType": "bytes",
          "name": "_trieValue",
          "type": "bytes"
        }
      ],
      "name": "startEnter",
      "outputs": [
        {
          "internalType": "bool",
          "name": "success",
          "type": "bool"
        }
      ],
      "payable": true,
      "stateMutability": "payable",
      "type": "function"
    },
    {
      "constant": false,
      "inputs": [
        {
          "internalType": "address",
          "name": "_to",
          "type": "address"
        },
        {
          "internalType": "bytes32",
          "name": "_trieKey",
          "type": "bytes32"
        },
        {
          "internalType": "bytes",
          "name": "_trieValue",
          "type": "bytes"
        }
      ],
      "name": "makeERU",
      "outputs": [
        {
          "internalType": "bool",
          "name": "success",
          "type": "bool"
        }
      ],
      "payable": true,
      "stateMutability": "payable",
      "type": "function"
    },
    {
      "constant": false,
      "inputs": [],
      "name": "finalizeRequest",
      "outputs": [
        {
          "internalType": "bool",
          "name": "success",
          "type": "bool"
        }
      ],
      "payable": false,
      "stateMutability": "nonpayable",
      "type": "function"
    },
    {
      "constant": false,
      "inputs": [
        {
          "internalType": "uint256",
          "name": "n",
          "type": "uint256"
        }
      ],
      "name": "finalizeRequests",
      "outputs": [
        {
          "internalType": "bool",
          "name": "success",
          "type": "bool"
        }
      ],
      "payable": false,
      "stateMutability": "nonpayable",
      "type": "function"
    },
    {
      "constant": true,
      "inputs": [],
      "name": "MAX_REQUESTS",
      "outputs": [
        {
          "internalType": "uint256",
          "name": "maxRequests",
          "type": "uint256"
        }
      ],
      "payable": false,
      "stateMutability": "pure",
      "type": "function"
    },
    {
      "constant": true,
      "inputs": [
        {
          "internalType": "uint256",
          "name": "forkNumber",
          "type": "uint256"
        }
      ],
      "name": "lastBlock",
      "outputs": [
        {
          "internalType": "uint256",
          "name": "lastBlock",
          "type": "uint256"
        }
      ],
      "payable": false,
      "stateMutability": "view",
      "type": "function"
    },
    {
      "constant": true,
      "inputs": [
        {
          "internalType": "uint256",
          "name": "forkNumber",
          "type": "uint256"
        }
      ],
      "name": "lastEpoch",
      "outputs": [
        {
          "internalType": "uint256",
          "name": "lastBlock",
          "type": "uint256"
        }
      ],
      "payable": false,
      "stateMutability": "view",
      "type": "function"
    },
    {
      "constant": true,
      "inputs": [
        {
          "internalType": "uint256",
          "name": "forkNumber",
          "type": "uint256"
        },
        {
          "internalType": "uint256",
          "name": "epochNumber",
          "type": "uint256"
        }
      ],
      "name": "getEpoch",
      "outputs": [
        {
          "components": [
            {
              "internalType": "uint64",
              "name": "startBlockNumber",
              "type": "uint64"
            },
            {
              "internalType": "uint64",
              "name": "endBlockNumber",
              "type": "uint64"
            },
            {
              "internalType": "uint64",
              "name": "timestamp",
              "type": "uint64"
            },
            {
              "internalType": "bool",
              "name": "isEmpty",
              "type": "bool"
            },
            {
              "internalType": "bool",
              "name": "initialized",
              "type": "bool"
            },
            {
              "internalType": "bool",
              "name": "isRequest",
              "type": "bool"
            },
            {
              "internalType": "bool",
              "name": "userActivated",
              "type": "bool"
            },
            {
              "internalType": "bool",
              "name": "rebase",
              "type": "bool"
            },
            {
              "components": [
                {
                  "internalType": "uint64",
                  "name": "requestStart",
                  "type": "uint64"
                },
                {
                  "internalType": "uint64",
                  "name": "requestEnd",
                  "type": "uint64"
                },
                {
                  "internalType": "uint64",
                  "name": "firstRequestBlockId",
                  "type": "uint64"
                },
                {
                  "internalType": "uint64",
                  "name": "numEnter",
                  "type": "uint64"
                },
                {
                  "internalType": "uint64",
                  "name": "nextEnterEpoch",
                  "type": "uint64"
                },
                {
                  "internalType": "uint64",
                  "name": "nextEpoch",
                  "type": "uint64"
                }
              ],
              "internalType": "struct Data.RequestEpochMeta",
              "name": "RE",
              "type": "tuple"
            },
            {
              "components": [
                {
                  "internalType": "bytes32",
                  "name": "epochStateRoot",
                  "type": "bytes32"
                },
                {
                  "internalType": "bytes32",
                  "name": "epochTransactionsRoot",
                  "type": "bytes32"
                },
                {
                  "internalType": "bytes32",
                  "name": "epochReceiptsRoot",
                  "type": "bytes32"
                },
                {
                  "internalType": "uint64",
                  "name": "submittedAt",
                  "type": "uint64"
                },
                {
                  "internalType": "uint64",
                  "name": "finalizedAt",
                  "type": "uint64"
                },
                {
                  "internalType": "bool",
                  "name": "finalized",
                  "type": "bool"
                },
                {
                  "internalType": "bool",
                  "name": "challenging",
                  "type": "bool"
                },
                {
                  "internalType": "bool",
                  "name": "challenged",
                  "type": "bool"
                }
              ],
              "internalType": "struct Data.NonRequestEpochMeta",
              "name": "NRE",
              "type": "tuple"
            }
          ],
          "internalType": "struct Data.Epoch",
          "name": "epoch",
          "type": "tuple"
        }
      ],
      "payable": false,
      "stateMutability": "view",
      "type": "function"
    },
    {
      "constant": true,
      "inputs": [],
      "name": "getLastEpoch",
      "outputs": [
        {
          "components": [
            {
              "internalType": "uint64",
              "name": "startBlockNumber",
              "type": "uint64"
            },
            {
              "internalType": "uint64",
              "name": "endBlockNumber",
              "type": "uint64"
            },
            {
              "internalType": "uint64",
              "name": "timestamp",
              "type": "uint64"
            },
            {
              "internalType": "bool",
              "name": "isEmpty",
              "type": "bool"
            },
            {
              "internalType": "bool",
              "name": "initialized",
              "type": "bool"
            },
            {
              "internalType": "bool",
              "name": "isRequest",
              "type": "bool"
            },
            {
              "internalType": "bool",
              "name": "userActivated",
              "type": "bool"
            },
            {
              "internalType": "bool",
              "name": "rebase",
              "type": "bool"
            },
            {
              "components": [
                {
                  "internalType": "uint64",
                  "name": "requestStart",
                  "type": "uint64"
                },
                {
                  "internalType": "uint64",
                  "name": "requestEnd",
                  "type": "uint64"
                },
                {
                  "internalType": "uint64",
                  "name": "firstRequestBlockId",
                  "type": "uint64"
                },
                {
                  "internalType": "uint64",
                  "name": "numEnter",
                  "type": "uint64"
                },
                {
                  "internalType": "uint64",
                  "name": "nextEnterEpoch",
                  "type": "uint64"
                },
                {
                  "internalType": "uint64",
                  "name": "nextEpoch",
                  "type": "uint64"
                }
              ],
              "internalType": "struct Data.RequestEpochMeta",
              "name": "RE",
              "type": "tuple"
            },
            {
              "components": [
                {
                  "internalType": "bytes32",
                  "name": "epochStateRoot",
                  "type": "bytes32"
                },
                {
                  "internalType": "bytes32",
                  "name": "epochTransactionsRoot",
                  "type": "bytes32"
                },
                {
                  "internalType": "bytes32",
                  "name": "epochReceiptsRoot",
                  "type": "bytes32"
                },
                {
                  "internalType": "uint64",
                  "name": "submittedAt",
                  "type": "uint64"
                },
                {
                  "internalType": "uint64",
                  "name": "finalizedAt",
                  "type": "uint64"
                },
                {
                  "internalType": "bool",
                  "name": "finalized",
                  "type": "bool"
                },
                {
                  "internalType": "bool",
                  "name": "challenging",
                  "type": "bool"
                },
                {
                  "internalType": "bool",
                  "name": "challenged",
                  "type": "bool"
                }
              ],
              "internalType": "struct Data.NonRequestEpochMeta",
              "name": "NRE",
              "type": "tuple"
            }
          ],
          "internalType": "struct Data.Epoch",
          "name": "",
          "type": "tuple"
        }
      ],
      "payable": false,
      "stateMutability": "view",
      "type": "function"
    },
    {
      "constant": true,
      "inputs": [
        {
          "internalType": "uint256",
          "name": "forkNumber",
          "type": "uint256"
        },
        {
          "internalType": "uint256",
          "name": "blockNumber",
          "type": "uint256"
        }
      ],
      "name": "getBlock",
      "outputs": [
        {
          "components": [
            {
              "internalType": "uint64",
              "name": "epochNumber",
              "type": "uint64"
            },
            {
              "internalType": "uint64",
              "name": "requestBlockId",
              "type": "uint64"
            },
            {
              "internalType": "uint64",
              "name": "timestamp",
              "type": "uint64"
            },
            {
              "internalType": "uint64",
              "name": "finalizedAt",
              "type": "uint64"
            },
            {
              "internalType": "uint64",
              "name": "referenceBlock",
              "type": "uint64"
            },
            {
              "internalType": "bytes32",
              "name": "statesRoot",
              "type": "bytes32"
            },
            {
              "internalType": "bytes32",
              "name": "transactionsRoot",
              "type": "bytes32"
            },
            {
              "internalType": "bytes32",
              "name": "receiptsRoot",
              "type": "bytes32"
            },
            {
              "internalType": "bool",
              "name": "isRequest",
              "type": "bool"
            },
            {
              "internalType": "bool",
              "name": "userActivated",
              "type": "bool"
            },
            {
              "internalType": "bool",
              "name": "challenged",
              "type": "bool"
            },
            {
              "internalType": "bool",
              "name": "challenging",
              "type": "bool"
            },
            {
              "internalType": "bool",
              "name": "finalized",
              "type": "bool"
            }
          ],
          "internalType": "struct Data.PlasmaBlock",
          "name": "",
          "type": "tuple"
        }
      ],
      "payable": false,
      "stateMutability": "view",
      "type": "function"
    },
    {
      "constant": true,
      "inputs": [
        {
          "internalType": "uint256",
          "name": "forkNumber",
          "type": "uint256"
        },
        {
          "internalType": "uint256",
          "name": "blockNumber",
          "type": "uint256"
        }
      ],
      "name": "getBlockFinalizedAt",
      "outputs": [
        {
          "internalType": "uint256",
          "name": "",
          "type": "uint256"
        }
      ],
      "payable": false,
      "stateMutability": "view",
      "type": "function"
    },
    {
      "constant": true,
      "inputs": [
        {
          "internalType": "uint256",
          "name": "forkNumber",
          "type": "uint256"
        }
      ],
      "name": "getLastFinalizedBlock",
      "outputs": [
        {
          "internalType": "uint256",
          "name": "",
          "type": "uint256"
        }
      ],
      "payable": false,
      "stateMutability": "view",
      "type": "function"
    },
    {
      "constant": true,
      "inputs": [
        {
          "internalType": "uint256",
          "name": "forkNumber",
          "type": "uint256"
        }
      ],
      "name": "getLastFinalizedEpoch",
      "outputs": [
        {
          "internalType": "uint256",
          "name": "",
          "type": "uint256"
        }
      ],
      "payable": false,
      "stateMutability": "view",
      "type": "function"
    },
    {
      "constant": true,
      "inputs": [
        {
          "internalType": "uint256",
          "name": "_forkNumber",
          "type": "uint256"
        }
      ],
      "name": "forked",
      "outputs": [
        {
          "internalType": "bool",
          "name": "result",
          "type": "bool"
        }
      ],
      "payable": false,
      "stateMutability": "view",
      "type": "function"
    },
    {
      "constant": true,
      "inputs": [
        {
          "internalType": "uint256",
          "name": "_requestId",
          "type": "uint256"
        },
        {
          "internalType": "bool",
          "name": "_userActivated",
          "type": "bool"
        }
      ],
      "name": "getRequestFinalized",
      "outputs": [
        {
          "internalType": "bool",
          "name": "finalized",
          "type": "bool"
        }
      ],
      "payable": false,
      "stateMutability": "view",
      "type": "function"
    }
  ],
  "bytecode": "0x60806040523480156200001157600080fd5b5060405162005f9438038062005f9483398101604081905262000034916200063e565b62000048336001600160e01b036200026316565b6200005c336001600160e01b03620002b516565b6200007b886001600160a01b03166200030760201b620035731760201c565b6200008557600080fd5b620000a4876001600160a01b03166200030760201b620035731760201c565b620000ae57600080fd5b620000cd866001600160a01b03166200030760201b620035731760201c565b620000d757600080fd5b600180546001600160a01b03199081166001600160a01b038b8116919091179092556002805482168a8416178155600380549092169289169290921781556000805460ff191688151517610100600160a81b031916610100330217815560058790556006548152600860209081526040808320838052600480820184528285208088018b90558087018a90559081018890559481019092528083208054790100000000000000000000000000000000000000000000000000600160801b600160c01b0319909116700100000000000000000000000000000000426001600160401b0316021760ff60c81b191617905593825292812080547a010000000000000000000000000000000000000000000000000000780100000000000000000000000000000000000000000000000060ff60c01b199092169190911760ff60d01b19161790556200022a90839083906200030d565b620002408260006001600160e01b03620003f316565b620002536001600160e01b03620004c916565b50505050505050505050620008b8565b6200027e8160166200059860201b620038421790919060201c565b6040516001600160a01b038216907fa199526a01dbcba68aa3ab9d7d06c6692c83fb1a8bcf2184e6d94ad34f5aaf9590600090a250565b620002d08160176200059860201b620038421790919060201c565b6040516001600160a01b038216907fb079bc2cbde1f186e0b351d4a87c4597e3ed098f571548617449e73506428d8b90600090a250565b3b151590565b60058201805464010000000060ff60201b1990911617905581546001600160c01b03167801000000000000000000000000000000000000000000000000426001600160401b0390811691909102919091178355600184018054600160801b600160c01b03191670010000000000000000000000000000000084841602178082558454600160401b600160801b0319909116921668010000000000000000029190911790556006546040517ffb96205e4b3633fd57aa805b26b51ecf528714a10241a4af015929dce86768d991620003e6918490620007ad565b60405180910390a1505050565b6000818152600383016020526040908190206006808201805470010000000000000000000000000000000060ff60801b199091168117600160401b600160801b031990811668010000000000000000426001600160401b03908116820292909217909455855460018a018054600160801b600160c01b0319169186900483169094021790911681881684021790915591548354945193947f70801d4d63b3da6c19ba7349911f45bed5a99ccdfb51b8138c105872529bebd594620003e6949293889383811693919091041690620007cc565b5050565b6001546040516000916060916001600160a01b0390911690620004ec90620007a0565b60408051918290038220600483526024830182526020830180516001600160e01b03167fffffffff00000000000000000000000000000000000000000000000000000000909216919091179052516200054691906200078b565b600060405180830381855af49150503d806000811462000583576040519150601f19603f3d011682016040523d82523d6000602084013e62000588565b606091505b509150915081620004c557600080fd5b620005ad82826001600160e01b03620005dd16565b15620005b857600080fd5b6001600160a01b0316600090815260209190915260409020805460ff19166001179055565b60006001600160a01b038216620005f357600080fd5b506001600160a01b03811660009081526020839052604090205460ff165b92915050565b8051620006118162000888565b80516200061181620008a2565b80516200061181620008ad565b600080600080600080600080610100898b0312156200065c57600080fd5b60006200066a8b8b62000617565b98505060206200067d8b828c0162000617565b9750506040620006908b828c0162000617565b9650506060620006a38b828c0162000624565b9550506080620006b68b828c0162000631565b94505060a0620006c98b828c0162000631565b93505060c0620006dc8b828c0162000631565b92505060e0620006ef8b828c0162000631565b9150509295985092959890939650565b60006200070c8262000812565b62000718818562000816565b93506200072a81856020860162000855565b9290920192915050565b600062000743600c8362000816565b7f707265706172654e5245282900000000000000000000000000000000000000008152600c0192915050565b6200077a816200082d565b82525050565b6200077a8162000848565b6000620007998284620006ff565b9392505050565b6000620006118262000734565b60408101620007bd82856200076f565b6200079960208301846200076f565b60808101620007dc82876200076f565b620007eb60208301866200076f565b620007fa604083018562000780565b62000809606083018462000780565b95945050505050565b5190565b919050565b6000620006118262000830565b151590565b90565b6001600160a01b031690565b6001600160401b031690565b600062000611826200083c565b60005b838110156200087257818101518382015260200162000858565b8381111562000882576000848401525b50505050565b62000893816200081b565b81146200089f57600080fd5b50565b620008938162000828565b62000893816200082d565b6156cc80620008c86000396000f3fe6080604052600436106104105760003560e01c80638b5172d01161021e578063c8ad329f11610123578063e259faf7116100ab578063ea0c73f61161007a578063ea0c73f614610ab5578063ea7f22a814610aca578063f28a7afa14610aea578063f4f31de414610b0a578063fb788a2714610b2a57610410565b8063e259faf714610a70578063e6925d0814610a85578063e7b88b8014610a8d578063e7f9650514610aa257610410565b8063d1723a96116100f2578063d1723a96146109ee578063d636857e14610a1b578063d691acd81461044b578063da0185f814610a3b578063de0ce17d14610a5b57610410565b8063c8ad329f14610979578063ca6f63801461098e578063cb5d742f146109ae578063ce8a2bc2146109ce57610410565b8063b2ae9ba8116101a6578063b8066bcb11610175578063b8066bcb146108e8578063c0c49c2a146108fd578063c0e860641461091d578063c2bc88fa1461094f578063c54626cc1461096457610410565b8063b2ae9ba81461044b578063b443f3cc1461087c578063b540adba146108b3578063b6715647146108c857610410565b806399bd3600116101ed57806399bd36001461080a578063a820c0671461081f578063a926fdbc14610832578063ab96da2d14610852578063b17fa6e91461086757610410565b80638b5172d01461044b5780638eb288ca146107e057806393521222146107f557806394be3aa51461044b57610410565b8063404f7d66116103245780636f3e4b90116102ac5780637657f20a1161027b5780637657f20a1461076357806378fe705f146107835780637b929c271461079657806380e3e81d146107ab5780638155717d146107cb57610410565b80636f3e4b90146107065780636fb7f5581461071957806372ecb9a81461072e57806375395a581461074e57610410565b806354768571116102f3578063547685711461066f578063570ca7351461068f5780635b884682146106b15780635e0ca71b146106d15780636299fb24146106e657610410565b8063404f7d66146105d5578063420bb4b8146105f55780634a44bdb81461060a5780634ba3a1261461063757610410565b8063183d2d1c116103a75780632aa196c8116103765780632aa196c8146105565780632b25a38b146105695780632dc6bb7b146105965780633565fb0d146105ab578063398bac63146105c057610410565b8063183d2d1c1461050c578063192adc5b1461044b5780631ec2042b14610521578063236915661461054157610410565b806308c4fff0116103e357806308c4fff0146104a25780630eaf45a8146104b757806311e4c914146104d7578063164bc2ae146104f757610410565b8063019dc09914610415578063033cfbed1461044b57806306394c9b14610460578063072900f914610482575b600080fd5b34801561042157600080fd5b506104356104303660046148cd565b610b3f565b604051610442919061526a565b60405180910390f35b34801561045757600080fd5b50610435610b67565b34801561046c57600080fd5b5061048061047b3660046147eb565b610b6c565b005b34801561048e57600080fd5b5061048061049d3660046147eb565b610be3565b3480156104ae57600080fd5b50610435610c0b565b6104ca6104c5366004614a73565b610c10565b604051610442919061515f565b3480156104e357600080fd5b506104356104f23660046148cd565b610c51565b34801561050357600080fd5b50610435610c73565b34801561051857600080fd5b50610435610c79565b34801561052d57600080fd5b5061043561053c3660046148cd565b610c7f565b34801561054d57600080fd5b50610435610c9d565b6104ca61056436600461484b565b610ca3565b34801561057557600080fd5b50610589610584366004614a43565b610d65565b604051610442919061524c565b3480156105a257600080fd5b506104356110cd565b3480156105b757600080fd5b506104806110d3565b3480156105cc57600080fd5b506105896110de565b3480156105e157600080fd5b506104806105f0366004614ae8565b611479565b34801561060157600080fd5b506104ca611705565b34801561061657600080fd5b5061062a610625366004614a43565b61170a565b604051610442919061525b565b34801561064357600080fd5b506106576106523660046148cd565b6117fa565b6040516104429c9b9a999897969594939291906154b8565b34801561067b57600080fd5b506104ca61068a3660046148cd565b611871565b34801561069b57600080fd5b506106a461189f565b6040516104429190615136565b3480156106bd57600080fd5b506104356106cc366004614a43565b6118b3565b3480156106dd57600080fd5b506104806118e4565b3480156106f257600080fd5b5061048061070136600461497c565b6118ed565b6104ca61071436600461491b565b611950565b34801561072557600080fd5b506106a4611958565b34801561073a57600080fd5b506104356107493660046148cd565b611967565b34801561075a57600080fd5b506104ca611979565b34801561076f57600080fd5b5061048061077e3660046147eb565b611992565b6104ca61079136600461484b565b6119d0565b3480156107a257600080fd5b506104ca611a3e565b3480156107b757600080fd5b506104806107c63660046147eb565b611a47565b3480156107d757600080fd5b50610435611a6c565b3480156107ec57600080fd5b50610435611a71565b34801561080157600080fd5b50610435611a78565b34801561081657600080fd5b506104ca611a87565b6104ca61082d36600461491b565b612327565b34801561083e57600080fd5b506104ca61084d3660046147eb565b612366565b34801561085e57600080fd5b50610435612379565b34801561087357600080fd5b5061043561237f565b34801561088857600080fd5b5061089c6108973660046148cd565b612384565b6040516104429b9a9998979695949392919061540e565b3480156108bf57600080fd5b506104356124a5565b3480156108d457600080fd5b506104356108e33660046148cd565b6124ab565b3480156108f457600080fd5b506106a46124bd565b34801561090957600080fd5b506104ca6109183660046147eb565b6124cc565b34801561092957600080fd5b5061093d6109383660046148cd565b6124df565b604051610442969594939291906151b4565b34801561095b57600080fd5b50610435612546565b34801561097057600080fd5b5061043561254b565b34801561098557600080fd5b50610435612551565b34801561099a57600080fd5b506104356109a93660046148cd565b612557565b3480156109ba57600080fd5b506104ca6109c9366004614811565b612569565b3480156109da57600080fd5b506104ca6109e93660046148cd565b61262f565b3480156109fa57600080fd5b50610a0e610a093660046148cd565b612637565b604051610442919061522b565b348015610a2757600080fd5b50610435610a363660046148cd565b6127e0565b348015610a4757600080fd5b506106a4610a563660046147eb565b612805565b348015610a6757600080fd5b506106a4610b67565b348015610a7c57600080fd5b506106a4612820565b61048061282f565b348015610a9957600080fd5b506106a4612836565b6104ca610ab036600461484b565b612845565b348015610ac157600080fd5b506104356128a1565b348015610ad657600080fd5b5061093d610ae53660046148cd565b6128a7565b348015610af657600080fd5b506104ca610b053660046148eb565b6128b4565b348015610b1657600080fd5b5061089c610b253660046148cd565b6128fd565b348015610b3657600080fd5b5061043561290a565b600081815260086020526040902060010154600160401b90046001600160401b03165b919050565b600081565b60005461010090046001600160a01b03163314610b8857600080fd5b60008054610100600160a81b0319166101006001600160a01b038416021790556040517f4721129e0e676ed6a92909bb24e853ccdd63ad72280cc2e974e38e480e0e6e5490610bd8908390615136565b60405180910390a150565b60005461010090046001600160a01b03163314610bff57600080fd5b610c0881612910565b50565b600f81565b6000610c1b33612366565b610c2457600080fd5b6000805460ff16610c3957610c37612958565b505b610c468787878787612ace565b979650505050505050565b600090815260086020526040902054600160801b90046001600160401b031690565b60105481565b60065481565b6000908152600860205260409020600101546001600160401b031690565b600d5481565b60008034610cb96009600b888489898880612bad565b600d805460010190556006546000908152600860205260408082209051929450917f6940a01870e576ceb735867e13863646d517ce10e66c0133186a4ebdfe9388c291610d089186919061532c565b60405180910390a17f879922cf5fcada9ebaf8bd7424dc62877f4b220cae07fb6695cc1e8f94c52b4d833389858a8a600080604051610d4e9897969594939291906152f6565b60405180910390a1600193505050505b9392505050565b610d6d6142cd565b600860008481526020019081526020016000206003016000838152602001908152602001600020604051806101400160405290816000820160009054906101000a90046001600160401b03166001600160401b03166001600160401b031681526020016000820160089054906101000a90046001600160401b03166001600160401b03166001600160401b031681526020016000820160109054906101000a90046001600160401b03166001600160401b03166001600160401b031681526020016000820160189054906101000a900460ff161515151581526020016000820160199054906101000a900460ff1615151515815260200160008201601a9054906101000a900460ff1615151515815260200160008201601b9054906101000a900460ff1615151515815260200160008201601c9054906101000a900460ff16151515158152602001600182016040518060c00160405290816000820160009054906101000a90046001600160401b03166001600160401b03166001600160401b031681526020016000820160089054906101000a90046001600160401b03166001600160401b03166001600160401b031681526020016000820160109054906101000a90046001600160401b03166001600160401b03166001600160401b031681526020016000820160189054906101000a90046001600160401b03166001600160401b03166001600160401b031681526020016001820160009054906101000a90046001600160401b03166001600160401b03166001600160401b031681526020016001820160089054906101000a90046001600160401b03166001600160401b03166001600160401b031681525050815260200160038201604051806101000160405290816000820154815260200160018201548152602001600282015481526020016003820160009054906101000a90046001600160401b03166001600160401b03166001600160401b031681526020016003820160089054906101000a90046001600160401b03166001600160401b03166001600160401b031681526020016003820160109054906101000a900460ff161515151581526020016003820160119054906101000a900460ff161515151581526020016003820160129054906101000a900460ff1615151515815250508152505090505b92915050565b60135481565b6110dc336131cf565b565b6110e66142cd565b600860006006548152602001908152602001600020600301600060086000600654815260200190815260200160002060000160109054906101000a90046001600160401b03166001600160401b03168152602001908152602001600020604051806101400160405290816000820160009054906101000a90046001600160401b03166001600160401b03166001600160401b031681526020016000820160089054906101000a90046001600160401b03166001600160401b03166001600160401b031681526020016000820160109054906101000a90046001600160401b03166001600160401b03166001600160401b031681526020016000820160189054906101000a900460ff161515151581526020016000820160199054906101000a900460ff1615151515815260200160008201601a9054906101000a900460ff1615151515815260200160008201601b9054906101000a900460ff1615151515815260200160008201601c9054906101000a900460ff16151515158152602001600182016040518060c00160405290816000820160009054906101000a90046001600160401b03166001600160401b03166001600160401b031681526020016000820160089054906101000a90046001600160401b03166001600160401b03166001600160401b031681526020016000820160109054906101000a90046001600160401b03166001600160401b03166001600160401b031681526020016000820160189054906101000a90046001600160401b03166001600160401b03166001600160401b031681526020016001820160009054906101000a90046001600160401b03166001600160401b03166001600160401b031681526020016001820160089054906101000a90046001600160401b03166001600160401b03166001600160401b031681525050815260200160038201604051806101000160405290816000820154815260200160018201548152602001600282015481526020016003820160009054906101000a90046001600160401b03166001600160401b03166001600160401b031681526020016003820160089054906101000a90046001600160401b03166001600160401b03166001600160401b031681526020016003820160109054906101000a900460ff161515151581526020016003820160119054906101000a900460ff161515151581526020016003820160129054906101000a900460ff1615151515815250508152505090505b90565b600087815260086020908152604080832089845260048101909252909120600581015460ff166114a857600080fd5b6005810154640100000000900460ff166114c157600080fd5b6005810154600090610100900460ff1680156115cd5761159a83600c8560000160089054906101000a90046001600160401b03166001600160401b03168154811061150857fe5b9060005260206000209060020201600a8c8c8c8080601f016020809104026020016040519081016040528093929190818152602001838380828437600081840152601f19601f820116905080830192505050505050508b8b8080601f01602080910402602001604051908101604052809392919081815260200183838082843760009201919091525061321792505050565b60405190925033906108fc9060009081818181818888f193505050501580156115c7573d6000803e3d6000fd5b506116bf565b61169083600b8560000160089054906101000a90046001600160401b03166001600160401b0316815481106115fe57fe5b906000526020600020906002020160098c8c8c8080601f016020809104026020016040519081016040528093929190818152602001838380828437600081840152601f19601f820116905080830192505050505050508b8b8080601f01602080910402602001604051908101604052809392919081815260200183838082843760009201919091525061321792505050565b60405190925033906108fc9060009081818181818888f193505050501580156116bd573d6000803e3d6000fd5b505b7fc8135db115644ed4ae193313c4c801235ef740d2a57a8d5e6fe26ab66635698a82826040516116f092919061532c565b60405180910390a15050505050505050505050565b600181565b61171261432d565b506000918252600860209081526040808420928452600492830182529283902083516101a08101855281546001600160401b038082168352600160401b8204811694830194909452600160801b8104841695820195909552600160c01b9094048216606085015260018101549091166080840152600281015460a0840152600381015460c08401529081015460e08301526005015460ff80821615156101008085019190915282048116151561012084015262010000820481161515610140840152630100000082048116151561016084015264010000000090910416151561018082015290565b6008602052600090815260409020805460018201546002909201546001600160401b0380831693600160401b808504831694600160801b808204851695600160c01b92839004861695858116958581048216958482048316959182900483169484841694918204841693908204169160ff9104168c565b6000805b8281101561189657611885611a87565b61188e57600080fd5b600101611875565b50600192915050565b60005461010090046001600160a01b031681565b600091825260086020908152604080842092845260049092019052902054600160c01b90046001600160401b031690565b6110dc33613322565b60065460009081526008602090815260408083208b845260048101909252909120600581015460ff161561192057600080fd5b8054426001600160401b03600160801b90920491909116600f011161194457600080fd5b50505050505050505050565b600080610410565b6004546001600160a01b031681565b60076020526000908152604090205481565b6000611983612958565b61198c57600080fd5b50600190565b60005461010090046001600160a01b031633146119ae57600080fd5b600480546001600160a01b0319166001600160a01b0392909216919091179055565b60008060006119e9600a600c8860008989600180612bad565b90507f879922cf5fcada9ebaf8bd7424dc62877f4b220cae07fb6695cc1e8f94c52b4d81338860008989600180604051611a2a989796959493929190615278565b60405180910390a150600195945050505050565b60005460ff1681565b60005461010090046001600160a01b03163314611a6357600080fd5b610c088161336a565b600a81565b620186a081565b6000611a826133b2565b905090565b60105460009081526008602052604081206011546001820154601254849392916001600160401b03161015611abb57600080fd5b601254600090815260048301602090815260408083208484526003860190925290912083546001600160401b031615801590611b05575083546012546001600160401b0390911611155b15611b705750506010805460010190819055600090815260086020908152604080832080546001600160401b03600160401b82048116808752600384018652848720600160c01b90930490911660128190556011829055865260048301909452919093209294509092505b600582015460ff16611c025782611b9a576010546000908152600f60205260409020549250611bc1565b600092835260038401602052604090922060020154600160401b90046001600160401b0316915b82611bcb57600080fd5b50506000818152600383016020908152604080832080546001600160401b0316601281905584526004860190925290912090611c22565b5080546001600160401b0316600081815260038501602052604090209092505b60118390558054600160c01b900460ff1615611c3d57600080fd5b8054600160d01b900460ff16611c5257600080fd5b600582015460ff16611c6357600080fd5b6005820154640100000000900460ff16611c7c57600080fd5b8154426001600160401b03600160c01b90920491909116600a011115611ca157600080fd5b6005820154610100900460ff161561201557601454600a549095508510611cc757600080fd5b6000600a8681548110611cd657fe5b906000526020600020906006020190506000600c8460000160089054906101000a90046001600160401b03166001600160401b031681548110611d1557fe5b600091825260209091206002909102018054909150600160881b90046001600160401b03168710801590611d56575060018101546001600160401b03168711155b611d5f57600080fd5b60018101546001600160401b0316871415611dba5785546001600160401b031615801590611da1575085546012546000196001600160401b0392831601909116145b15611db0576010805460010190555b6012805460010190555b600187016014558154600160401b900460ff168015611de257508154600160581b900460ff16155b15611fb957604080516101608101825283546001600160401b0381168252600160401b810460ff9081161515602080850191909152600160481b83048216151584860152600160501b8304821615156060850152600160581b830490911615156080840152600160601b9091046001600160801b031660a08301526001808601546001600160a01b0390811660c085015260028088015490911660e085015260038701546101008086019190915260048801546101208601526005880180548751948116159092026000190190911691909104601f8101849004840283018401909552848252611f43948c9493889361014086019390929091830182828015611f2c5780601f10611f0157610100808354040283529160200191611f2c565b820191906000526020600020905b815481529060010190602001808311611f0f57829003601f168201915b5050505050815250506133b790919063ffffffff16565b5060018201546040516001600160a01b03909116906108fc9060009081818181818888f19350505050158015611f7d573d6000803e3d6000fd5b507f6940a01870e576ceb735867e13863646d517ce10e66c0133186a4ebdfe9388c2876001604051611fb092919061532c565b60405180910390a15b815460ff60501b1916600160501b1782556040517f134017cf3262b18f892ee95dde3b0aec9a80cc70a7c96f09c64bd237aceb047390611ffd90899060019061532c565b60405180910390a16001975050505050505050611476565b601354600954909550851061202957600080fd5b8154600b8054600092600160401b90046001600160401b031690811061204b57fe5b600091825260209091206002909102018054909150600160881b90046001600160401b0316861080159061208c575060018101546001600160401b03168611155b61209557600080fd5b60018101546001600160401b03168614156120f05784546001600160401b0316158015906120d7575084546012546000196001600160401b0392831601909116145b156120e6576010805460010190555b6012805460010190555b6000600987815481106120ff57fe5b6000918252602090912060018901601355600690910201805460ff60501b1916600160501b17808255909150600160401b900460ff16801561214a57508054600160581b900460ff16155b156122df57604080516101608101825282546001600160401b0381168252600160401b810460ff9081161515602080850191909152600160481b83048216151584860152600160501b8304821615156060850152600160581b830490911615156080840152600160601b9091046001600160801b031660a08301526001808501546001600160a01b0390811660c085015260028087015490911660e085015260038601546101008086019190915260048701546101208601526005870180548751948116159092026000190190911691909104601f8101849004840283018401909552848252612269948c9493879361014086019390929091830182828015611f2c5780601f10611f0157610100808354040283529160200191611f2c565b5060018101546040516001600160a01b03909116906108fc9060009081818181818888f193505050501580156122a3573d6000803e3d6000fd5b507f6940a01870e576ceb735867e13863646d517ce10e66c0133186a4ebdfe9388c28760006040516122d692919061532c565b60405180910390a15b7f134017cf3262b18f892ee95dde3b0aec9a80cc70a7c96f09c64bd237aceb047387600060405161231192919061532c565b60405180910390a1600197505050505050505090565b600061233233612366565b61233b57600080fd5b6000805460ff166123505761234e612958565b505b61235c86868686613464565b9695505050505050565b60006110c760178363ffffffff61353e16565b60055481565b601481565b6009818154811061239157fe5b6000918252602091829020600691909102018054600180830154600280850154600386015460048701546005880180546040805161010099831615999099026000190190911695909504601f81018b90048b0288018b019095528487526001600160401b0388169a50600160401b880460ff9081169a600160481b8a0482169a600160501b8b0483169a600160581b810490931699600160601b9093046001600160801b0316986001600160a01b039081169897169690939183018282801561249b5780601f106124705761010080835404028352916020019161249b565b820191906000526020600020905b81548152906001019060200180831161247e57829003601f168201915b505050505090508b565b60095490565b600e6020526000908152604090205481565b6003546001600160a01b031681565b60006110c760168363ffffffff61353e16565b600c81815481106124ec57fe5b60009182526020909120600290910201805460019091015460ff821692506001600160401b036101008304811692600160481b8104821692600160881b9091048216918116906001600160a01b03600160401b9091041686565b603c81565b60145481565b60115481565b600f6020526000908152604090205481565b6000612574336124cc565b61257d57600080fd5b61258f836001600160a01b0316613573565b61259857600080fd5b6001600160a01b0383811660009081526015602052604090205416156125bd57600080fd5b6001600160a01b038381166000908152601560205260409081902080546001600160a01b03191692851692909217909155517fc5ec2ed49686197edd2ed642c7e6096893cc81e6658cde2527030316037715d09061261e9085908590615144565b60405180910390a150600192915050565b600654141590565b606060006009838154811061264857fe5b600091825260208083206002600690930201828101546001600160a01b039081168086526015845260408087205481516101608101835285546001600160401b038116825260ff600160401b820481161515838a0152600160481b82048116151583860152600160501b8204811615156060840152600160581b820416151560808301526001600160801b03600160601b9091041660a0820152600180870154861660c083015260e082019490945260038601546101008281019190915260048701546101208301526005870180548551601f60001998831615909402979097011699909904908101889004880285018801909352828452949850610d5e976127db978c9791966127ce96939093169492938b93610140860193909291908301828280156127b75780601f1061278c576101008083540402835291602001916127b7565b820191906000526020600020905b81548152906001019060200180831161279a57829003601f168201915b50505050508152505061357990919063ffffffff16565b919063ffffffff61364716565b61369f565b600090815260086020526040902060010154600160801b90046001600160401b031690565b6015602052600090815260409020546001600160a01b031681565b6002546001600160a01b031681565b6000610410565b6001546001600160a01b031681565b600080600061285f6009600b886000898960016000612bad565b90507f879922cf5fcada9ebaf8bd7424dc62877f4b220cae07fb6695cc1e8f94c52b4d8133886000898960016000604051611a2a989796959493929190615278565b600b5490565b600b81815481106124ec57fe5b600081156128ce57600a83815481106128c957fe5b506000525b600983815481106128db57fe5b6000918252602090912060069091020154600160501b900460ff169392505050565b600a818154811061239157fe5b60125481565b61292160178263ffffffff61384216565b6040516001600160a01b038216907fb079bc2cbde1f186e0b351d4a87c4597e3ed098f571548617449e73506428d8b90600090a250565b600654600090815260086020526040812080546001600160401b031615612983576000915050611476565b80546001808301546000926129b5926001600160401b03600160c01b909204821692600160801b90048216011661387b565b60018301549091506001600160401b03168111156129d857600092505050611476565b6000818152600483016020526040902060058101546301000000900460ff1615612a085760009350505050611476565b600581015460ff1615612a58578054426001600160401b03600160801b90920491909116600f011115612a415760009350505050611476565b612a4c838284613892565b60019350505050611476565b6001808401546001600160401b03600160401b9091048116909101165b6000818152600385016020526040902054600160d01b900460ff1615612a9d57600101612a75565b612aa78482613952565b15612ac357612ab68482613a0c565b6001945050505050611476565b600094505050505090565b60025460405160009182916060916001600160a01b031690612aef9061510a565b60405180910390208989898989604051602401612b10959493929190615397565b60408051601f198184030181529181526020820180516001600160e01b03166001600160e01b0319909416939093179092529051612b4e91906150fe565b600060405180830381855af49150503d8060008114612b89576040519150601f19603f3d011682016040523d82523d6000602084013e612b8e565b606091505b509150915081612b9d57600080fd5b6001925050505b95945050505050565b600061040084511115612bbf57600080fd5b6003546001600160a01b03888116911614808015612bdb575083155b80612bff57506001600160a01b038881166000908152601560205260409020541615155b612c0857600080fd5b8954612c178b60018301614399565b915060008a8381548110612c2757fe5b600091825260209182902060069190910201600181018054336001600160a01b0319918216179091556002820180549091166001600160a01b038d16179055805467ffffffffffffffff1916426001600160401b03161768ff00000000000000001916600160401b881515021769ff0000000000000000001916600160481b85151502176fffffffffffffffffffffffffffffffff60601b1916600160601b6001600160801b038c1602178155600381018990558751909250612cf2916005840191908901906143ca565b5084612e1b57604080516101608101825282546001600160401b0381168252600160401b810460ff9081161515602080850191909152600160481b83048216151584860152600160501b8304821615156060850152600160581b830490911615156080840152600160601b9091046001600160801b031660a08301526001808501546001600160a01b0390811660c085015260028087015490911660e085015260038601546101008086019190915260048701546101208601526005870180548751948116159092026000190190911691909104601f8101849004840283018401909552848252612e1294889493879361014086019390929091830182828015611f2c5780601f10611f0157610100808354040283529160200191611f2c565b612e1b57600080fd5b895460009015612e30578a5460001901612e3f565b8a54612e3f8c60018301614448565b905060008b8281548110612e4f57fe5b60009182526020909120600290910201805490915060ff1680612e975750612e756133b2565b81546001808401546001600160401b03600160881b9093048316908316030116145b15612efa57805460ff1916600190811782558c548d91612eba9083908301614448565b81548110612ec457fe5b60009182526020909120600290910201805467ffffffffffffffff60881b1916600160881b6001600160401b0388160217815590505b612f0381610c08565b60018101805467ffffffffffffffff19166001600160401b03871617905586612f515780546001600160401b0361010080830482166001019091160268ffffffffffffffff00199091161781555b838015612f5c575086155b1561309357604080516101608101825284546001600160401b0381168252600160401b810460ff9081161515602080850191909152600160481b83048216151584860152600160501b8304821615156060850152600160581b830490911615156080840152600160601b9091046001600160801b031660a08301526001808701546001600160a01b0390811660c085015260028089015490911660e085015260038801546101008086019190915260048901546101208601526005890180548751948116159092026000190190911691909104601f810184900484028301840190955284825261308e94889461307f94339491938793610140860193928301828280156127b75780601f1061278c576101008083540402835291602001916127b7565b8391908863ffffffff613acc16565b6131bf565b6001600160a01b038b81166000908152601560209081526040918290205482516101608101845287546001600160401b0381168252600160401b810460ff908116151583860152600160481b82048116151583870152600160501b8204811615156060840152600160581b82041615156080830152600160601b90046001600160801b031660a0820152600180890154861660c08301526002808a0154871660e084015260038a01546101008085019190915260048b015461012085015260058b0180548851948116159092026000190190911691909104601f81018690048602830186019096528582526131bf968a9661307f9695909116948793610140860193909290918301828280156127b75780601f1061278c576101008083540402835291602001916127b7565b5050505098975050505050505050565b6131e060168263ffffffff613aee16565b6040516001600160a01b038216907ff012269e1b6bb33c7800e7e54167ddd74f0ae7244108030b6876821d3779822f90600090a250565b845460018601546001600160401b03600160881b90920482168501911681111561324057600080fd5b600085828154811061324e57fe5b6000918252602090912089546006909202019150426001600160401b03600160c01b90920491909116600a011161328457600080fd5b6005880154640100000000900460ff1661329d57600080fd5b8054600160581b900460ff16156132b357600080fd5b8054600160501b900460ff16156132c957600080fd5b835160208501206132d985613b23565b156132e357600080fd5b60005460ff16613306576132fd81878b6004015487613b60565b61330657600080fd5b50805460ff60581b1916600160581b1790559695505050505050565b61333360178263ffffffff613aee16565b6040516001600160a01b038216907ff84a004e1673d2f349a7c93c72b3794b8eba6d2f9338044d8c8cd260e51a57a190600090a250565b61337b60168263ffffffff61384216565b6040516001600160a01b038216907fa199526a01dbcba68aa3ab9d7d06c6692c83fb1a8bcf2184e6d94ad34f5aaf9590600090a250565b601490565b600062019a285a116133c857600080fd5b8260e001516001600160a01b031663a9f793088460200151848660c001518761010001518861014001516040518663ffffffff1660e01b815260040161341295949392919061516d565b602060405180830381600087803b15801561342c57600080fd5b505af1158015613440573d6000803e3d6000fd5b505050506040513d601f19601f82011682018060405250610d5e91908101906148af565b60025460405160009182916060916001600160a01b03169061348590615120565b6040518091039020888888886040516024016134a49493929190615347565b60408051601f198184030181529181526020820180516001600160e01b03166001600160e01b03199094169390931790925290516134e291906150fe565b600060405180830381855af49150503d806000811461351d576040519150601f19603f3d011682016040523d82523d6000602084013e613522565b606091505b50915091508161353157600080fd5b5060019695505050505050565b60006001600160a01b03821661355357600080fd5b506001600160a01b03166000908152602091909152604090205460ff1690565b3b151590565b613581614474565b6020808401805115159183019190915260408085015115159083015260c0808501516001600160a01b031690830152511580156135bf575082604001515b156136095760c08301516001600160a01b031660e082015261014083015160208101516001600160801b0381166135f557600080fd5b6001600160801b031660a0830152506110c7565b6001600160a01b03821660e082015260a0808401516001600160801b0316908201526101008084015190820152610140808401519082015292915050565b61364f6144d2565b633b9aca006020820152620186a0604082015260e08401516001600160a01b0316606082015260a08401516001600160801b03166080820152613693848484613c2b565b60a08201529392505050565b6040805160098082526101408201909252606091829190816020015b60608152602001906001900390816136bb57505083519091506136e6906001600160401b0316613d01565b816000815181106136f357fe5b602002602001018190525061370b8360200151613d01565b8160018151811061371857fe5b602002602001018190525061373983604001516001600160401b0316613d01565b8160028151811061374657fe5b602002602001018190525061376783606001516001600160a01b0316613d14565b8160038151811061377457fe5b602002602001018190525061378c8360800151613d01565b8160048151811061379957fe5b60200260200101819052506137b18360a00151613d33565b816005815181106137be57fe5b60200260200101819052506137d68360c00151613d01565b816006815181106137e357fe5b60200260200101819052506137fb8360e00151613d01565b8160078151811061380857fe5b6020026020010181905250613821836101000151613d01565b8160088151811061382e57fe5b6020026020010181905250610d5e81613d89565b61384c828261353e565b1561385657600080fd5b6001600160a01b0316600090815260209190915260409020805460ff19166001179055565b60008183101561388b5781610d5e565b5090919050565b60058201805464010000000064ff000000001990911617905581546001600160c01b0316600160c01b426001600160401b039081169190910291909117835560018401805467ffffffffffffffff60801b1916600160801b8484160217808255845467ffffffffffffffff60401b199091169216600160401b029190911790556006546040517ffb96205e4b3633fd57aa805b26b51ecf528714a10241a4af015929dce86768d99161394591849061537c565b60405180910390a1505050565b8154600090600160801b90046001600160401b0316821115613976575060006110c7565b600082815260038401602052604090208054600160c81b900460ff166139a05760009150506110c7565b8054600160d01b900460ff16156139bb5760009150506110c7565b6006810154600160881b900460ff16806139e057506006810154600160901b900460ff165b156139ef5760009150506110c7565b60060154426001600160401b039091166014011115905092915050565b60008181526003830160205260409081902060068082018054600160801b60ff60801b19909116811767ffffffffffffffff60401b19908116600160401b426001600160401b03908116820292909217909455855460018a01805467ffffffffffffffff60801b19169186900483169094021790911681881684021790915591548354945193947f70801d4d63b3da6c19ba7349911f45bed5a99ccdfb51b8138c105872529bebd5946139459492938893838116939190910416906153d9565b613ae0613adb83836000613647565b613de6565b836004018190555050505050565b613af8828261353e565b613b0157600080fd5b6001600160a01b0316600090815260209190915260409020805460ff19169055565b60006060613b416004613b3585613e02565b9063ffffffff613e2516565b9050610d5e81600081518110613b5357fe5b6020026020010151613eb2565b60006020825181613b6d57fe5b0615613b7857600080fd5b60006020835181613b8557fe5b04905060108110613b9557600080fd5b60008660205b836020028111613c1d5785810151925060028806613be3578183604051602001613bc69291906150bc565b604051602081830303815290604052805190602001209150613c0f565b8282604051602001613bf69291906150bc565b6040516020818303038152906040528051906020012091505b600288049750602001613b9b565b509094149695505050505050565b606083604001518015613c4057508360200151155b15613c4a57610d5e565b600082613c6a57604051613c5d90615115565b6040518091039020613c7f565b604051613c769061512b565b60405180910390205b9050808560200151613c92576000613c95565b60015b60ff1660001b858760c001516001600160a01b0316886101000151896101400151604051602001613cca959493929190615203565b60408051601f1981840301815290829052613ce892916020016150e2565b6040516020818303038152906040529150509392505050565b60606110c7613d0f83613ed6565b613d33565b60408051600560a21b8318601482015260348101909152606090610d5e815b606081516001148015613d655750607f60f81b82600081518110613d5357fe5b01602001516001600160f81b03191611155b15613d71575080610b62565b6110c7613d838351608060ff16613fcf565b83614098565b604080516000808252602082019092526060915b8351811015613dcd57613dc382858381518110613db657fe5b6020026020010151614098565b9150600101613d9d565b50610d5e613de0825160c060ff16613fcf565b82614098565b60006060613df38361369f565b80516020909101209392505050565b613e0a614539565b50805160408051808201909152602092830181529182015290565b606081604051908082528060200260200182016040528015613e6157816020015b613e4e614539565b815260200190600190039081613e465790505b509050613e6c614553565b613e758461417d565b905060005b83811015613eaa57613e8b826141a2565b838281518110613e9757fe5b6020908102919091010152600101613e7a565b505092915050565b6000806000613ec0846141d4565b90516020919091036101000a9004949350505050565b6040805160208082528183019092526060916000918391602082018180388339019050509050836020820152600091505b6020821015613f4057808281518110613f1c57fe5b01602001516001600160f81b03191615613f3557613f40565b600190910190613f07565b6060826020036040519080825280601f01601f191660200182016040528015613f70576020820181803883390190505b50905060005b8151811015613fc6578251600185019484918110613f9057fe5b602001015160f81c60f81b828281518110613fa757fe5b60200101906001600160f81b031916908160001a905350600101613f76565b50949350505050565b6060600160401b8310613ffd5760405162461bcd60e51b8152600401613ff49061523c565b60405180910390fd5b604080516001808252818301909252606091602082018180388339019050509050603784116140575782840160f81b8160008151811061403957fe5b60200101906001600160f81b031916908160001a90535090506110c7565b606061406285613ed6565b90508381510160370160f81b8260008151811061407b57fe5b60200101906001600160f81b031916908160001a905350612ba482825b60608082518451016040519080825280601f01601f1916602001820160405280156140ca576020820181803883390190505b5090506000805b8551811015614120578581815181106140e657fe5b602001015160f81c60f81b8383815181106140fd57fe5b60200101906001600160f81b031916908160001a905350600191820191016140d1565b5060005b84518110156141735784818151811061413957fe5b602001015160f81c60f81b83838151811061415057fe5b60200101906001600160f81b031916908160001a90535060019182019101614124565b5090949350505050565b614185614553565b600061419083614233565b83519383529092016020820152919050565b6141aa614539565b602082015160006141ba8261429d565b828452602080850182905292019390910192909252919050565b805180516000918291821a9060808210156141f65792506001915061422e9050565b60b8821015614214576001856020015103925080600101935061422b565b602085015182820160b51901945082900360b60192505b50505b915091565b8051805160009190821a90608082101561425257600092505050610b62565b60b882108061426d575060c0821015801561426d575060f882105b1561427d57600192505050610b62565b60c0821015614292575060b519019050610b62565b5060f5190192915050565b8051600090811a60808110156142b657600191506142c7565b60b88110156142c757607e19810191505b50919050565b6040805161014081018252600080825260208201819052918101829052606081018290526080810182905260a0810182905260c0810182905260e0810191909152610100810161431b614573565b81526020016143286145a8565b905290565b604080516101a081018252600080825260208201819052918101829052606081018290526080810182905260a0810182905260c0810182905260e08101829052610100810182905261012081018290526101408101829052610160810182905261018081019190915290565b8154818355818111156143c5576006028160060283600052602060002091820191016143c591906145ec565b505050565b828054600181600116156101000203166002900490600052602060002090601f016020900481019282601f1061440b57805160ff1916838001178555614438565b82800160010185558215614438579182015b8281111561443857825182559160200191906001019061441d565b5061444492915061464e565b5090565b8154818355818111156143c5576002028160020283600052602060002091820191016143c59190614668565b604080516101608101825260008082526020820181905291810182905260608082018390526080820183905260a0820183905260c0820183905260e08201839052610100820183905261012082019290925261014081019190915290565b60405180610120016040528060006001600160401b031681526020016000815260200160006001600160401b0316815260200160006001600160a01b0316815260200160008152602001606081526020016000815260200160008152602001600081525090565b604051806040016040528060008152602001600081525090565b6040518060400160405280614566614539565b8152602001600081525090565b6040805160c081018252600080825260208201819052918101829052606081018290526080810182905260a081019190915290565b6040805161010081018252600080825260208201819052918101829052606081018290526080810182905260a0810182905260c0810182905260e081019190915290565b61147691905b808211156144445780546001600160e01b03191681556001810180546001600160a01b0319908116909155600282018054909116905560006003820181905560048201819055614645600583018261469e565b506006016145f2565b61147691905b808211156144445760008155600101614654565b61147691905b808211156144445780546001600160c81b03191681556001810180546001600160e01b031916905560020161466e565b50805460018160011615610100020316600290046000825580601f106146c45750610c08565b601f016020900490600052602060002090810190610c08919061464e565b80356110c781615663565b60008083601f8401126146ff57600080fd5b5081356001600160401b0381111561471657600080fd5b60208301915083602082028301111561472e57600080fd5b9250929050565b80356110c781615677565b80516110c781615677565b80356110c781615680565b60008083601f84011261476857600080fd5b5081356001600160401b0381111561477f57600080fd5b60208301915083600182028301111561472e57600080fd5b600082601f8301126147a857600080fd5b81356147bb6147b682615580565b61555a565b915080825260208301602083018583830111156147d757600080fd5b6147e2838284615621565b50505092915050565b6000602082840312156147fd57600080fd5b600061480984846146e2565b949350505050565b6000806040838503121561482457600080fd5b600061483085856146e2565b9250506020614841858286016146e2565b9150509250929050565b60008060006060848603121561486057600080fd5b600061486c86866146e2565b935050602061487d8682870161474b565b92505060408401356001600160401b0381111561489957600080fd5b6148a586828701614797565b9150509250925092565b6000602082840312156148c157600080fd5b60006148098484614740565b6000602082840312156148df57600080fd5b6000614809848461474b565b600080604083850312156148fe57600080fd5b600061490a858561474b565b925050602061484185828601614735565b6000806000806080858703121561493157600080fd5b600061493d878761474b565b945050602061494e8782880161474b565b935050604061495f8782880161474b565b92505060606149708782880161474b565b91505092959194509250565b60008060008060008060008060a0898b03121561499857600080fd5b60006149a48b8b61474b565b98505060208901356001600160401b038111156149c057600080fd5b6149cc8b828c01614756565b975097505060408901356001600160401b038111156149ea57600080fd5b6149f68b828c01614756565b95509550506060614a098b828c0161474b565b93505060808901356001600160401b03811115614a2557600080fd5b614a318b828c016146ed565b92509250509295985092959890939650565b60008060408385031215614a5657600080fd5b6000614a62858561474b565b92505060206148418582860161474b565b600080600080600060a08688031215614a8b57600080fd5b6000614a97888861474b565b9550506020614aa88882890161474b565b9450506040614ab98882890161474b565b9350506060614aca8882890161474b565b9250506080614adb8882890161474b565b9150509295509295909350565b600080600080600080600060a0888a031215614b0357600080fd5b6000614b0f8a8a61474b565b9750506020614b208a828b0161474b565b9650506040614b318a828b0161474b565b95505060608801356001600160401b03811115614b4d57600080fd5b614b598a828b01614756565b945094505060808801356001600160401b03811115614b7757600080fd5b614b838a828b01614756565b925092505092959891949750929550565b614b9d816155f5565b82525050565b614b9d816155b4565b614b9d816155bf565b614b9d81611476565b614b9d614bca82611476565b611476565b614b9d614bca826155c4565b6000614be6826155a7565b614bf081856155ab565b9350614c0081856020860161562d565b614c0981615659565b9093019392505050565b6000614c1e826155a7565b614c288185610b62565b9350614c3881856020860161562d565b9290920192915050565b614b9d81615600565b6000614c58603283610b62565b7f7375626d69744e52452875696e743235362c75696e743235362c627974657333815271322c627974657333322c627974657333322960701b602082015260320192915050565b6000614cac603c83610b62565b7f6170706c7952657175657374496e4368696c64436861696e28626f6f6c2c756981527f6e743235362c616464726573732c627974657333322c627974657329000000006020820152603c0192915050565b6000614d0b600e836155ab565b6d696e70757420746f6f206c6f6e6760901b815260200192915050565b6000614d35602a83610b62565b7f7375626d69744f52422875696e743235362c627974657333322c627974657333815269322c627974657333322960b01b6020820152602a0192915050565b6000614d81603b83610b62565b7f6170706c7952657175657374496e526f6f74436861696e28626f6f6c2c75696e81527f743235362c616464726573732c627974657333322c62797465732900000000006020820152603b0192915050565b80516102c0830190614de584826150b3565b506020820151614df860208501826150b3565b506040820151614e0b60408501826150b3565b506060820151614e1e6060850182614bac565b506080820151614e316080850182614bac565b5060a0820151614e4460a0850182614bac565b5060c0820151614e5760c0850182614bac565b5060e0820151614e6a60e0850182614bac565b50610100820151614e7f610100850182615031565b50610120820151614e946101c0850182614e9a565b50505050565b8051610100830190614eac8482614bb5565b506020820151614ebf6020850182614bb5565b506040820151614ed26040850182614bb5565b506060820151614ee560608501826150b3565b506080820151614ef860808501826150b3565b5060a0820151614f0b60a0850182614bac565b5060c0820151614f1e60c0850182614bac565b5060e0820151614e9460e0850182614bac565b80516101a0830190614f4384826150b3565b506020820151614f5660208501826150b3565b506040820151614f6960408501826150b3565b506060820151614f7c60608501826150b3565b506080820151614f8f60808501826150b3565b5060a0820151614fa260a0850182614bb5565b5060c0820151614fb560c0850182614bb5565b5060e0820151614fc860e0850182614bb5565b50610100820151614fdd610100850182614bac565b50610120820151614ff2610120850182614bac565b50610140820151615007610140850182614bac565b5061016082015161501c610160850182614bac565b50610180820151614e94610180850182614bac565b805160c083019061504284826150b3565b50602082015161505560208501826150b3565b50604082015161506860408501826150b3565b50606082015161507b60608501826150b3565b50608082015161508e60808501826150b3565b5060a0820151614e9460a08501826150b3565b614b9d816155d1565b614b9d81615616565b614b9d816155e9565b60006150c88285614bbe565b6020820191506150d88284614bbe565b5060200192915050565b60006150ee8285614bcf565b6004820191506148098284614c13565b6000610d5e8284614c13565b60006110c782614c4b565b60006110c782614c9f565b60006110c782614d28565b60006110c782614d74565b602081016110c78284614ba3565b604081016151528285614ba3565b610d5e6020830184614ba3565b602081016110c78284614bac565b60a0810161517b8288614bac565b6151886020830187614bb5565b6151956040830186614b94565b6151a26060830185614bb5565b8181036080830152610c468184614bdb565b60c081016151c28289614bac565b6151cf60208301886150b3565b6151dc60408301876150b3565b6151e960608301866150b3565b6151f660808301856150b3565b610c4660a0830184614ba3565b60a081016152118288614bb5565b61521e6020830187614bb5565b6151956040830186614bb5565b60208082528101610d5e8184614bdb565b602080825281016110c781614cfe565b6102c081016110c78284614dd3565b6101a081016110c78284614f31565b602081016110c78284614bb5565b6101008101615287828b614bb5565b615294602083018a614b94565b6152a16040830189614ba3565b6152ae6060830188614c42565b6152bb6080830187614bb5565b81810360a08301526152cd8186614bdb565b90506152dc60c0830185614bac565b6152e960e0830184614bac565b9998505050505050505050565b6101008101615305828b614bb5565b615312602083018a614b94565b61531f6040830189614ba3565b6152ae6060830188614bb5565b6040810161533a8285614bb5565b610d5e6020830184614bac565b608081016153558287614bb5565b6153626020830186614bb5565b61536f6040830185614bb5565b612ba46060830184614bb5565b6040810161538a8285614bb5565b610d5e6020830184614bb5565b60a081016153a58288614bb5565b6153b26020830187614bb5565b6153bf6040830186614bb5565b6153cc6060830185614bb5565b61235c6080830184614bb5565b608081016153e78287614bb5565b6153f46020830186614bb5565b61540160408301856150aa565b612ba460608301846150aa565b610160810161541d828e6150b3565b61542a602083018d614bac565b615437604083018c614bac565b615444606083018b614bac565b615451608083018a614bac565b61545e60a08301896150a1565b61546b60c0830188614ba3565b61547860e0830187614ba3565b615486610100830186614bb5565b615494610120830185614bb5565b8181036101408301526154a78184614bdb565b9d9c50505050505050505050505050565b61018081016154c7828f6150b3565b6154d4602083018e6150b3565b6154e1604083018d6150b3565b6154ee606083018c6150b3565b6154fb608083018b6150b3565b61550860a083018a6150b3565b61551560c08301896150b3565b61552260e08301886150b3565b6155306101008301876150b3565b61553e6101208301866150b3565b61554c6101408301856150b3565b6154a7610160830184614bac565b6040518181016001600160401b038111828210171561557857600080fd5b604052919050565b60006001600160401b0382111561559657600080fd5b506020601f91909101601f19160190565b5190565b90815260200190565b60006110c7826155dd565b151590565b6001600160e01b03191690565b6001600160801b031690565b6001600160a01b031690565b6001600160401b031690565b60006110c78261560b565b60006110c782611476565b60006110c7826155b4565b60006110c7826155e9565b82818337506000910152565b60005b83811015615648578181015183820152602001615630565b83811115614e945750506000910152565b601f01601f191690565b61566c816155b4565b8114610c0857600080fd5b61566c816155bf565b61566c8161147656fea365627a7a72315820938d31f67689fedb7d97b9190459a11d533f79d58c5cc1e119a383e9058cd3186c6578706572696d656e74616cf564736f6c634300050c0040",
  "source": "pragma solidity ^0.5.12;\npragma experimental ABIEncoderV2;\n\nimport \"./lib/SafeMath.sol\";\nimport \"./lib/Math.sol\";\nimport \"./lib/Data.sol\";\nimport \"./lib/Address.sol\";\nimport \"./lib/BMT.sol\";\n// import \"./patricia_tree/PatriciaTreeFace.sol\";\n\nimport \"./roles/MapperRole.sol\";\nimport \"./roles/SubmitterRole.sol\";\n\nimport \"./RootChainStorage.sol\";\nimport \"./RootChainEvent.sol\";\nimport \"./RootChainBase.sol\";\n\n\ncontract RootChain is RootChainStorage, RootChainEvent, RootChainBase, MapperRole, SubmitterRole {\n  using SafeMath for uint;\n  using SafeMath for uint64;\n  using Math for *;\n  using Data for *;\n  using Address for address;\n  using BMT for *;\n\n  /*\n   * Modifiers\n   */\n  modifier onlyOperator() {\n    require(msg.sender == operator);\n    _;\n  }\n\n  modifier onlyValidCost(uint _expected) {\n    require(msg.value >= _expected);\n    _;\n  }\n\n  modifier finalizeBlocks() {\n    if (!development) {\n      _finalizeBlock();\n    }\n    _;\n  }\n\n  modifier checkURBSubmission () {\n    Data.Fork storage fork = forks[currentFork];\n    if (fork.timestamp + Data.URE_TIMEOUT() < block.timestamp) {\n      // TODO: reset fork\n      fork.forkedBlock = 0;\n    }\n    _;\n  }\n\n  /*\n   * Constructor\n   */\n  constructor(\n    address _epochHandler,\n    address _submitHandler,\n    address _etherToken,\n    bool _development,\n    uint _NRELength,\n\n    // genesis block state\n    bytes32 _statesRoot,\n    bytes32 _transactionsRoot,\n    bytes32 _receiptsRoot\n  )\n    public\n  {\n    require(_epochHandler.isContract());\n    require(_submitHandler.isContract());\n    require(_etherToken.isContract());\n\n    epochHandler = _epochHandler;\n    submitHandler = _submitHandler;\n    etherToken = _etherToken;\n\n    development = _development;\n    operator = msg.sender;\n    NRELength = _NRELength;\n\n    Data.Fork storage fork = forks[currentFork];\n    Data.PlasmaBlock storage genesis = fork.blocks[0];\n    genesis.statesRoot = _statesRoot;\n    genesis.transactionsRoot = _transactionsRoot;\n    genesis.receiptsRoot = _receiptsRoot;\n\n    // set up the genesis epoch\n    fork.epochs[0].timestamp = uint64(block.timestamp);\n    fork.epochs[0].initialized = true;\n\n    // prepare ORE#2\n    fork.epochs[2].isEmpty = true;\n    fork.epochs[2].isRequest = true;\n\n    _doFinalizeBlock(fork, genesis, 0);\n    _doFinalizeNRE(fork, 0);\n\n    _delegatePrepareNRE();\n  }\n\n  /*\n   * External Functions\n   */\n\n  function changeOperator(address _operator) external onlyOperator {\n    operator = _operator;\n    emit OperatorChanged(_operator);\n  }\n\n  function addSubmitter(address account) public onlyOperator {\n    _addSubmitter(account);\n  }\n\n  function addMapper(address account) public onlyOperator {\n    _addMapper(account);\n  }\n\n  function setSeigManager(address account) public onlyOperator {\n    seigManager = account;\n  }\n\n  /**\n   * @notice map requestable contract in child chain\n   * NOTE: only operator?\n   */\n  function mapRequestableContractByOperator(address _rootchain, address _childchain)\n    external\n    onlyMapper\n    returns (bool success)\n  {\n    require(_rootchain.isContract());\n    require(requestableContracts[_rootchain] == address(0));\n\n    requestableContracts[_rootchain] = _childchain;\n\n    emit RequestableContractMapped(_rootchain, _childchain);\n    return true;\n  }\n\n  function getNumEROs() external view returns (uint) {\n    return EROs.length;\n  }\n\n  function getNumORBs() external view returns (uint) {\n    return ORBs.length;\n  }\n\n  function getEROBytes(uint _requestId) public view returns (bytes memory out) {\n    Data.Request storage ERO = EROs[_requestId];\n\n    return ERO.toChildChainRequest(requestableContracts[ERO.to])\n      .toTX(_requestId, false)\n      .toBytes();\n  }\n\n  /**\n   * @notice Declare to submit URB.\n   */\n  function prepareToSubmitURB()\n    public\n    payable\n    onlyValidCost(COST_URB_PREPARE)\n    // finalizeBlocks\n  {\n    // TODO: change to continuous rebase scheme.\n    // disable UAF.\n    revert();\n    // return false;\n    // RootChainBase.prepareToSubmitURB();\n  }\n\n  function submitNRE(\n    uint _pos1, // forknumber + epochNumber\n    uint _pos2, // startBlockNumber + endBlockNumber\n    bytes32 _epochStateRoot,\n    bytes32 _epochTransactionsRoot,\n    bytes32 _epochReceiptsRoot\n  )\n    external\n    payable\n    onlySubmitter\n    onlyValidCost(COST_NRB)\n    finalizeBlocks\n    returns (bool success)\n  {\n    return RootChainBase._delegateSubmitNRE(\n      _pos1,\n      _pos2,\n      _epochStateRoot,\n      _epochTransactionsRoot,\n      _epochReceiptsRoot\n    );\n  }\n\n  function submitORB(\n    uint _pos,\n    bytes32 _statesRoot,\n    bytes32 _transactionsRoot,\n    bytes32 _receiptsRoot\n  )\n    external\n    payable\n    onlySubmitter\n    onlyValidCost(COST_NRB)\n    finalizeBlocks\n    returns (bool success)\n  {\n    return RootChainBase._delegateSubmitORB(\n      _pos,\n      _statesRoot,\n      _transactionsRoot,\n      _receiptsRoot\n    );\n  }\n\n  function submitURB(\n    uint _pos,\n    bytes32 _statesRoot,\n    bytes32 _transactionsRoot,\n    bytes32 _receiptsRoot\n  )\n    external\n    payable\n    onlyValidCost(COST_URB)\n    returns (bool success)\n  {\n    // TODO: change to continuous rebase scheme.\n    // disable UAF.\n    revert();\n    return false;\n\n    // return RootChainBase._delegateSubmitURB(\n    //   _pos,\n    //   _statesRoot,\n    //   _transactionsRoot,\n    //   _receiptsRoot\n    // );\n  }\n\n  function finalizeBlock() external returns (bool success) {\n    require(_finalizeBlock());\n    return true;\n  }\n\n  /**\n   * @notice Computation verifier contract reverts the block in case of wrong\n   *         computation.\n   */\n  /* function revertBlock(uint _forkNumber, uint _blockNumber) external {\n    // TODO: make a new fork?\n  } */\n\n  function challengeExit(\n    uint _forkNumber,\n    uint _blockNumber,\n    uint _index,\n    bytes calldata _receiptData,\n    bytes calldata _proof\n  ) external {\n    Data.Fork storage fork = forks[_forkNumber];\n    Data.PlasmaBlock storage pb = fork.blocks[_blockNumber];\n\n    require(pb.isRequest);\n    require(pb.finalized);\n\n    uint requestId;\n    bool userActivated = pb.userActivated;\n\n    if (userActivated) {\n      requestId = _doChallengeExit(pb, URBs[pb.requestBlockId], ERUs, _index, _receiptData, _proof);\n      // TODO: dynamic cost for ERU\n      msg.sender.transfer(COST_ERU);\n    } else {\n      requestId = _doChallengeExit(pb, ORBs[pb.requestBlockId], EROs,_index, _receiptData, _proof);\n      msg.sender.transfer(COST_ERO);\n    }\n\n    emit RequestChallenged(requestId, userActivated);\n  }\n\n  function _doChallengeExit(\n    Data.PlasmaBlock storage _pb,\n    Data.RequestBlock storage _rb,\n    Data.Request[] storage _rs,\n    uint _index,\n    bytes memory _receiptData,\n    bytes memory _proof\n  )\n    internal\n    returns (uint requestId)\n  {\n    requestId = _rb.requestStart + _index;\n    require(requestId <= _rb.requestEnd);\n\n    Data.Request storage r = _rs[requestId];\n\n    require(_pb.finalizedAt + CP_EXIT > block.timestamp);\n    require(_pb.finalized);\n    require(!r.challenged);\n    require(!r.finalized);\n\n    bytes32 leaf = keccak256(_receiptData);\n\n    require(_receiptData.toReceiptStatus() == 0);\n    if (!development) {\n      require(BMT.checkMembership(leaf, _index, _pb.receiptsRoot, _proof));\n    }\n\n    r.challenged = true;\n\n    return requestId;\n  }\n\n  /**\n   * @notice It challenges on NRBs containing null address transaction.\n   */\n  function challengeNullAddress(\n    uint _blockNumber,\n    bytes calldata _key,\n    bytes calldata _txByte, // RLP encoded transaction\n    uint _branchMask,\n    bytes32[] calldata  _siblings\n  ) external {\n    Data.Fork storage fork = forks[currentFork];\n    Data.PlasmaBlock storage pb = fork.blocks[_blockNumber];\n\n    // check if the plasma block is NRB\n    require(!pb.isRequest);\n\n    // check if challenge period does not end yet\n    require(pb.timestamp + CP_COMPUTATION > block.timestamp);\n\n    // PatriciaTreeFace trie;\n    // if (pb.userActivated) {\n    //   trie = PatriciaTreeFace(URBs[pb.requestBlockId].trie);\n    // } else {\n    //   trie = PatriciaTreeFace(ORBs[pb.requestBlockId].trie);\n    // }\n\n    // Data.TX memory txData = Data.toTX(_txByte);\n    // require(txData.isNATX());\n\n    // TODO: use patricia verify library\n    // require(trie.verifyProof(pb.transactionsRoot, _key, _txByte, _branchMask, _siblings));\n\n    // TODO: fork? penalize?\n  }\n\n  /*\n   * Public Functions\n   */\n  function startExit(\n    address _to,\n    bytes32 _trieKey,\n    bytes memory _trieValue\n  )\n    public\n    payable\n    onlyValidCost(COST_ERO)\n    returns (bool success)\n  {\n    uint requestId;\n    requestId = _storeRequest(EROs, ORBs, _to, 0, _trieKey, _trieValue, true, false);\n\n    emit RequestCreated(requestId, msg.sender, _to, 0, _trieKey, _trieValue, true, false);\n    return true;\n  }\n\n  function startEnter(\n    address _to,\n    bytes32 _trieKey,\n    bytes memory _trieValue\n  )\n    public\n    payable\n    returns (bool success)\n  {\n    uint requestId;\n    uint weiAmount = msg.value;\n    requestId = _storeRequest(EROs, ORBs, _to, weiAmount, _trieKey, _trieValue, false, false);\n    numEnterForORB += 1;\n\n    Data.Fork storage fork = forks[currentFork];\n\n    emit RequestApplied(requestId, false);\n    emit RequestCreated(requestId, msg.sender, _to, weiAmount, _trieKey, _trieValue, false, false);\n    return true;\n  }\n\n  function makeERU(\n    address _to,\n    bytes32 _trieKey,\n    bytes memory _trieValue\n  )\n    public\n    payable\n    onlyValidCost(COST_ERU)\n    returns (bool success)\n  {\n    uint requestId;\n    requestId = _storeRequest(ERUs, URBs, _to, 0, _trieKey, _trieValue, true, true);\n\n    emit RequestCreated(requestId, msg.sender, _to, 0, _trieKey, _trieValue, true, true);\n    return true;\n  }\n\n  /**\n   * @notice Finalize a request if request block including it\n   *         is finalized.\n   * TODO: refactor implementation\n   */\n  function finalizeRequest() public returns (bool success) {\n    uint requestId;\n    Data.Fork storage fork = forks[lastAppliedForkNumber];\n    uint epochNumber = lastAppliedEpochNumber;\n\n    require(lastAppliedBlockNumber <= fork.lastBlock);\n\n    Data.PlasmaBlock storage pb = fork.blocks[lastAppliedBlockNumber];\n    Data.Epoch storage epoch = fork.epochs[epochNumber];\n\n    // TODO: execute after finding next request block\n    // find next fork\n    if (fork.forkedBlock != 0 && lastAppliedBlockNumber >= fork.forkedBlock) {\n      lastAppliedForkNumber += 1;\n      fork = forks[lastAppliedForkNumber];\n\n      epochNumber = fork.firstEpoch;\n      epoch = fork.epochs[epochNumber];\n\n      lastAppliedBlockNumber = fork.firstBlock;\n      lastAppliedEpochNumber = epochNumber;\n\n      pb = fork.blocks[lastAppliedBlockNumber];\n    }\n\n    // find next request block\n    if (!pb.isRequest) {\n      if (epochNumber == 0) {\n        epochNumber = firstNonEmptyRequestEpoch[lastAppliedForkNumber];\n      } else {\n        epochNumber = fork.epochs[epochNumber].RE.nextEpoch;\n      }\n      require(epochNumber != 0);\n\n      epoch = fork.epochs[epochNumber];\n      lastAppliedBlockNumber = epoch.startBlockNumber;\n      pb = fork.blocks[lastAppliedBlockNumber];\n    } else {\n      epochNumber = pb.epochNumber;\n      epoch = fork.epochs[epochNumber];\n    }\n\n    lastAppliedEpochNumber = epochNumber;\n\n    require(!epoch.isEmpty);\n    require(epoch.isRequest);\n    require(pb.isRequest);\n    require(pb.finalized);\n    require(pb.finalizedAt + CP_EXIT <= block.timestamp);\n\n    // apply ERU\n    if (pb.userActivated) {\n      requestId = ERUIdToFinalize;\n\n      require(ERUs.length > requestId);\n\n      Data.Request storage ERU = ERUs[requestId];\n      Data.RequestBlock storage URB = URBs[pb.requestBlockId];\n\n      require(URB.requestStart <= requestId && requestId <= URB.requestEnd);\n\n      // check next block\n      if (requestId == URB.requestEnd) {\n        if (fork.forkedBlock > 0 && lastAppliedBlockNumber == fork.forkedBlock - 1) {\n          lastAppliedForkNumber += 1;\n        }\n\n        lastAppliedBlockNumber += 1;\n      }\n\n      ERUIdToFinalize = requestId + 1;\n\n      if (ERU.isExit && !ERU.challenged) {\n        // NOTE: do not check it reverted or not?\n        ERU.applyRequestInRootChain(requestId);\n        // TODO: dynamic cost and bond release period\n        ERU.requestor.transfer(COST_ERU);\n        emit RequestApplied(requestId, true);\n      }\n      ERU.finalized = true;\n\n      emit RequestFinalized(requestId, true);\n      return true;\n    }\n\n    // apply ERO\n    requestId = EROIdToFinalize;\n\n    require(EROs.length > requestId);\n\n    Data.RequestBlock storage ORB = ORBs[pb.requestBlockId];\n\n    require(ORB.requestStart <= requestId && requestId <= ORB.requestEnd);\n\n    // check next block\n    if (requestId == ORB.requestEnd) {\n      // TODO: iterator blocks by NRE length for NRE'\n      if (fork.forkedBlock > 0 && lastAppliedBlockNumber == fork.forkedBlock - 1) {\n        lastAppliedForkNumber += 1;\n      }\n\n      lastAppliedBlockNumber += 1;\n    }\n\n    Data.Request storage ERO = EROs[requestId];\n    EROIdToFinalize = requestId + 1;\n    ERO.finalized = true;\n\n    if (ERO.isExit && !ERO.challenged) {\n      ERO.applyRequestInRootChain(requestId);\n      ERO.requestor.transfer(COST_ERO);\n      emit RequestApplied(requestId, false);\n    }\n\n    emit RequestFinalized(requestId, false);\n    return true;\n  }\n\n  function finalizeRequests(uint n) external returns (bool success) {\n    for (uint i = 0; i < n; i++) {\n      require(finalizeRequest());\n    }\n\n    return true;\n  }\n\n  /**\n   * @notice return the max number of request\n   */\n  function MAX_REQUESTS() external pure returns (uint maxRequests) {\n    return Data.MAX_REQUESTS();\n  }\n\n  function lastBlock(uint forkNumber) public view returns (uint lastBlock) {\n    return forks[forkNumber].lastBlock;\n  }\n\n  function lastEpoch(uint forkNumber) public view returns (uint lastBlock) {\n    return forks[forkNumber].lastEpoch;\n  }\n\n  function getEpoch(\n    uint forkNumber,\n    uint epochNumber\n  ) external view returns (\n    Data.Epoch memory epoch\n  ) {\n    return forks[forkNumber].epochs[epochNumber];\n  }\n\n  function getLastEpoch() public view returns (Data.Epoch memory) {\n    return forks[currentFork].epochs[forks[currentFork].lastEpoch];\n  }\n\n  function getBlock(\n    uint forkNumber,\n    uint blockNumber\n  ) public view returns (Data.PlasmaBlock memory) {\n    return forks[forkNumber].blocks[blockNumber];\n  }\n\n  function getBlockFinalizedAt(\n    uint forkNumber,\n    uint blockNumber\n  ) public view returns (uint) {\n    return forks[forkNumber].blocks[blockNumber].finalizedAt;\n  }\n\n  function getLastFinalizedBlock(uint forkNumber) public view returns (uint) {\n    return forks[forkNumber].lastFinalizedBlock;\n  }\n\n  function getLastFinalizedEpoch(uint forkNumber) public view returns (uint) {\n    return forks[forkNumber].lastFinalizedEpoch;\n  }\n\n  /**\n   * @notice return true if the chain is forked by URB\n   */\n  function forked(uint _forkNumber) public view returns (bool result) {\n    return _forkNumber != currentFork;\n  }\n\n  /**\n   * @notice return true if the request is finalized\n   */\n  function getRequestFinalized(uint _requestId, bool _userActivated) public view returns (bool finalized) {\n    if (_userActivated) {\n      ERUs[_requestId].finalized;\n    }\n\n    return EROs[_requestId].finalized;\n  }\n\n  /*\n   * Internal Functions\n   */\n  function _storeRequest(\n    Data.Request[] storage _requests,\n    Data.RequestBlock[] storage _rbs,\n    address _to,\n    uint _weiAmount,\n    bytes32 _trieKey,\n    bytes memory _trieValue,\n    bool _isExit,\n    bool _userActivated\n  )\n    internal\n    returns (uint requestId)\n  {\n    // trieValue cannot be longer than 1KB.\n    require(_trieValue.length <= 1024);\n\n    bool isTransfer = _to == etherToken;\n\n    // check parameters for simple ether transfer and message-call\n    require(isTransfer && !_isExit || (requestableContracts[_to] != address(0)));\n\n    requestId = _requests.length++;\n    Data.Request storage r = _requests[requestId];\n\n    r.requestor = msg.sender;\n    r.to = _to;\n    r.timestamp = uint64(block.timestamp);\n    r.isExit = _isExit;\n    r.isTransfer = isTransfer;\n    r.value = uint128(_weiAmount);\n    r.trieKey = _trieKey;\n    r.trieValue = _trieValue;\n\n    // apply message-call in case of enter request.\n    if (!_isExit) {\n      require(r.applyRequestInRootChain(requestId));\n    }\n\n    uint requestBlockId = _rbs.length == 0 ? _rbs.length++ : _rbs.length - 1;\n\n    Data.RequestBlock storage rb = _rbs[requestBlockId];\n\n    // make a new RequestBlock.\n    if (rb.submitted || rb.requestEnd - rb.requestStart + 1 == Data.MAX_REQUESTS()) {\n      rb.submitted = true;\n      rb = _rbs[_rbs.length++];\n      rb.requestStart = uint64(requestId);\n    }\n\n    rb.init();\n\n    rb.requestEnd = uint64(requestId);\n    if (!_isExit) {\n      rb.numEnter += 1;\n    }\n\n    if (isTransfer && !_isExit) {\n      rb.addRequest(r, r.toChildChainRequest(msg.sender), requestId);\n    } else {\n      rb.addRequest(r, r.toChildChainRequest(requestableContracts[_to]), requestId);\n    }\n  }\n\n  /**\n   * @notice finalize a block if possible.\n   */\n  function _finalizeBlock() internal returns (bool) {\n    Data.Fork storage fork = forks[currentFork];\n\n    // short circuit if waiting URBs\n    if (fork.forkedBlock != 0) {\n      return false;\n    }\n\n    uint blockNumber = Math.max(fork.firstBlock, fork.lastFinalizedBlock + 1);\n\n    // short circuit if all blocks are submitted yet\n    if (blockNumber > fork.lastBlock) {\n      return false;\n    }\n\n    Data.PlasmaBlock storage pb = fork.blocks[blockNumber];\n\n    // short circuit if the block is under challenge\n    if (pb.challenging) {\n      return false;\n    }\n\n    // 1. finalize request block\n    if (pb.isRequest) {\n      // short circuit if challenge period doesn't end\n      if (pb.timestamp + CP_COMPUTATION > block.timestamp) {\n        return false;\n      }\n\n      // finalize block\n      _doFinalizeBlock(fork, pb, blockNumber);\n      return true;\n    }\n\n    // 2. finalize non request epoch\n    uint nextEpochNumber = fork.lastFinalizedEpoch + 1;\n    while (fork.epochs[nextEpochNumber].isRequest) {\n      nextEpochNumber += 1;\n    }\n\n    // if the first block of the next request epoch is finalized, finalize all\n    // blocks of the current non request epoch.\n    if (_checkFinalizableNRE(fork, nextEpochNumber)) {\n      _doFinalizeNRE(fork, nextEpochNumber);\n      return true;\n    }\n\n    return false;\n  }\n\n  /**\n   * @notice return true if NRE can be finalized.\n   */\n  function _checkFinalizableNRE(Data.Fork storage fork, uint _epochNumber) internal view returns (bool) {\n    // short circuit if epoch is not submitted yet\n    if (_epochNumber > fork.lastEpoch) {\n      return false;\n    }\n\n    Data.Epoch storage epoch = fork.epochs[_epochNumber];\n\n    // short circuit if epoch is not initialized\n    if (!epoch.initialized) {\n      return false;\n    }\n\n    // short circuit if epoch is not NRE\n    if (epoch.isRequest) {\n      return false;\n    }\n\n    // short circuit if epoch is challenged or under challenge\n    if (epoch.NRE.challenging || epoch.NRE.challenged) {\n      return false;\n    }\n\n    // return if challenge period end\n    return epoch.NRE.submittedAt + CP_WITHHOLDING <= block.timestamp;\n    // return true;\n  }\n\n  /**\n   * @notice finalize a block\n   */\n  function _doFinalizeBlock(\n    Data.Fork storage _f,\n    Data.PlasmaBlock storage _pb,\n    uint _blockNumber\n  ) internal {\n    _pb.finalized = true;\n    _pb.finalizedAt = uint64(block.timestamp);\n\n    _f.lastFinalizedBlock = uint64(_blockNumber);\n    _f.lastFinalizedEpoch = uint64(_pb.epochNumber);\n\n    emit BlockFinalized(currentFork, _blockNumber);\n  }\n\n  /**\n   * @notice finalize all blocks in the non request epoch\n   */\n  function _doFinalizeNRE(\n    Data.Fork storage _f,\n    uint _epochNumber\n  ) internal {\n    Data.Epoch storage epoch = _f.epochs[_epochNumber];\n\n    epoch.NRE.finalized = true;\n    epoch.NRE.finalizedAt = uint64(block.timestamp);\n\n    _f.lastFinalizedBlock = uint64(epoch.endBlockNumber);\n    _f.lastFinalizedEpoch = uint64(_epochNumber);\n\n    // a single EpochFinalized event replaces lots of BlockFinalized events.\n    emit EpochFinalized(currentFork, _epochNumber, epoch.startBlockNumber, epoch.endBlockNumber);\n\n    return;\n  }\n}\n",
  "sourcePath": "/Users/hwangjaeseung/workspace/plasma-evm-contracts/contracts/RootChain.sol",
  "compiler": {
    "name": "solc",
    "version": "0.5.12+commit.7709ece9.Emscripten.clang"
  },
  "schemaVersion": "3.2.0",
  "updatedAt": "2020-07-03T05:58:27.012Z",
  "devdoc": {
    "methods": {}
  },
  "userdoc": {
    "methods": {
      "MAX_REQUESTS()": {
        "notice": "return the max number of request"
      },
      "challengeExit(uint256,uint256,uint256,bytes,bytes)": {
        "notice": "Computation verifier contract reverts the block in case of wrong        computation."
      },
      "challengeNullAddress(uint256,bytes,bytes,uint256,bytes32[])": {
        "notice": "It challenges on NRBs containing null address transaction."
      },
      "finalizeRequest()": {
        "notice": "Finalize a request if request block including it        is finalized. TODO: refactor implementation"
      },
      "forked(uint256)": {
        "notice": "return true if the chain is forked by URB"
      },
      "getRequestFinalized(uint256,bool)": {
        "notice": "return true if the request is finalized"
      },
      "mapRequestableContractByOperator(address,address)": {
        "notice": "map requestable contract in child chain NOTE: only operator?"
      },
      "prepareToSubmitURB()": {
        "notice": "Declare to submit URB."
      }
    }
  }
}