{
  "contractName": "SeigManager",
  "abi": [
    {
      "inputs": [
        {
          "internalType": "contract ERC20Mintable",
          "name": "ton",
          "type": "address"
        },
        {
          "internalType": "contract ERC20Mintable",
          "name": "wton",
          "type": "address"
        },
        {
          "internalType": "contract RootChainRegistryI",
          "name": "registry",
          "type": "address"
        },
        {
          "internalType": "contract DepositManagerI",
          "name": "depositManager",
          "type": "address"
        },
        {
          "internalType": "uint256",
          "name": "seigPerBlock",
          "type": "uint256"
        }
      ],
      "payable": false,
      "stateMutability": "nonpayable",
      "type": "constructor"
    },
    {
      "anonymous": false,
      "inputs": [
        {
          "indexed": true,
          "internalType": "address",
          "name": "rootchain",
          "type": "address"
        },
        {
          "indexed": false,
          "internalType": "address",
          "name": "coinage",
          "type": "address"
        }
      ],
      "name": "CoinageCreated",
      "type": "event"
    },
    {
      "anonymous": false,
      "inputs": [
        {
          "indexed": true,
          "internalType": "address",
          "name": "rootchain",
          "type": "address"
        }
      ],
      "name": "Comitted",
      "type": "event"
    },
    {
      "anonymous": false,
      "inputs": [
        {
          "indexed": true,
          "internalType": "address",
          "name": "rootchain",
          "type": "address"
        },
        {
          "indexed": false,
          "internalType": "uint256",
          "name": "previousRate",
          "type": "uint256"
        },
        {
          "indexed": false,
          "internalType": "uint256",
          "name": "newRate",
          "type": "uint256"
        }
      ],
      "name": "CommissionRateSet",
      "type": "event"
    },
    {
      "anonymous": false,
      "inputs": [
        {
          "indexed": false,
          "internalType": "uint256",
          "name": "totalStakedAmount",
          "type": "uint256"
        },
        {
          "indexed": false,
          "internalType": "uint256",
          "name": "totalSupplyOfWTON",
          "type": "uint256"
        },
        {
          "indexed": false,
          "internalType": "uint256",
          "name": "prevTotalSupply",
          "type": "uint256"
        },
        {
          "indexed": false,
          "internalType": "uint256",
          "name": "nextTotalSupply",
          "type": "uint256"
        }
      ],
      "name": "CommitLog1",
      "type": "event"
    },
    {
      "anonymous": false,
      "inputs": [
        {
          "indexed": true,
          "internalType": "address",
          "name": "previousOwner",
          "type": "address"
        },
        {
          "indexed": true,
          "internalType": "address",
          "name": "newOwner",
          "type": "address"
        }
      ],
      "name": "OwnershipTransferred",
      "type": "event"
    },
    {
      "anonymous": false,
      "inputs": [
        {
          "indexed": false,
          "internalType": "address",
          "name": "account",
          "type": "address"
        }
      ],
      "name": "Paused",
      "type": "event"
    },
    {
      "anonymous": false,
      "inputs": [
        {
          "indexed": true,
          "internalType": "address",
          "name": "account",
          "type": "address"
        }
      ],
      "name": "PauserAdded",
      "type": "event"
    },
    {
      "anonymous": false,
      "inputs": [
        {
          "indexed": true,
          "internalType": "address",
          "name": "account",
          "type": "address"
        }
      ],
      "name": "PauserRemoved",
      "type": "event"
    },
    {
      "anonymous": false,
      "inputs": [
        {
          "indexed": true,
          "internalType": "address",
          "name": "rootchain",
          "type": "address"
        },
        {
          "indexed": false,
          "internalType": "uint256",
          "name": "totalSeig",
          "type": "uint256"
        },
        {
          "indexed": false,
          "internalType": "uint256",
          "name": "stakedSeig",
          "type": "uint256"
        },
        {
          "indexed": false,
          "internalType": "uint256",
          "name": "unstakedSeig",
          "type": "uint256"
        },
        {
          "indexed": false,
          "internalType": "uint256",
          "name": "powertonSeig",
          "type": "uint256"
        }
      ],
      "name": "SeigGiven",
      "type": "event"
    },
    {
      "anonymous": false,
      "inputs": [
        {
          "indexed": false,
          "internalType": "address",
          "name": "account",
          "type": "address"
        }
      ],
      "name": "Unpaused",
      "type": "event"
    },
    {
      "anonymous": false,
      "inputs": [
        {
          "indexed": false,
          "internalType": "uint256",
          "name": "coinageBurnAmount",
          "type": "uint256"
        },
        {
          "indexed": false,
          "internalType": "uint256",
          "name": "totBurnAmount",
          "type": "uint256"
        }
      ],
      "name": "UnstakeLog",
      "type": "event"
    },
    {
      "constant": true,
      "inputs": [],
      "name": "MAX_VALID_COMMISSION",
      "outputs": [
        {
          "internalType": "uint256",
          "name": "",
          "type": "uint256"
        }
      ],
      "payable": false,
      "stateMutability": "view",
      "type": "function"
    },
    {
      "constant": true,
      "inputs": [],
      "name": "MIN_VALID_COMMISSION",
      "outputs": [
        {
          "internalType": "uint256",
          "name": "",
          "type": "uint256"
        }
      ],
      "payable": false,
      "stateMutability": "view",
      "type": "function"
    },
    {
      "constant": true,
      "inputs": [],
      "name": "POWER_TON_DENOMINATOR",
      "outputs": [
        {
          "internalType": "uint256",
          "name": "",
          "type": "uint256"
        }
      ],
      "payable": false,
      "stateMutability": "view",
      "type": "function"
    },
    {
      "constant": true,
      "inputs": [],
      "name": "POWER_TON_NUMERATOR",
      "outputs": [
        {
          "internalType": "uint256",
          "name": "",
          "type": "uint256"
        }
      ],
      "payable": false,
      "stateMutability": "view",
      "type": "function"
    },
    {
      "constant": false,
      "inputs": [
        {
          "internalType": "address",
          "name": "account",
          "type": "address"
        }
      ],
      "name": "addPauser",
      "outputs": [],
      "payable": false,
      "stateMutability": "nonpayable",
      "type": "function"
    },
    {
      "constant": true,
      "inputs": [],
      "name": "isOwner",
      "outputs": [
        {
          "internalType": "bool",
          "name": "",
          "type": "bool"
        }
      ],
      "payable": false,
      "stateMutability": "view",
      "type": "function"
    },
    {
      "constant": true,
      "inputs": [
        {
          "internalType": "address",
          "name": "account",
          "type": "address"
        }
      ],
      "name": "isPauser",
      "outputs": [
        {
          "internalType": "bool",
          "name": "",
          "type": "bool"
        }
      ],
      "payable": false,
      "stateMutability": "view",
      "type": "function"
    },
    {
      "constant": true,
      "inputs": [],
      "name": "owner",
      "outputs": [
        {
          "internalType": "address",
          "name": "",
          "type": "address"
        }
      ],
      "payable": false,
      "stateMutability": "view",
      "type": "function"
    },
    {
      "constant": true,
      "inputs": [],
      "name": "paused",
      "outputs": [
        {
          "internalType": "bool",
          "name": "",
          "type": "bool"
        }
      ],
      "payable": false,
      "stateMutability": "view",
      "type": "function"
    },
    {
      "constant": false,
      "inputs": [
        {
          "internalType": "address",
          "name": "target",
          "type": "address"
        }
      ],
      "name": "renounceMinter",
      "outputs": [],
      "payable": false,
      "stateMutability": "nonpayable",
      "type": "function"
    },
    {
      "constant": false,
      "inputs": [
        {
          "internalType": "address",
          "name": "target",
          "type": "address"
        }
      ],
      "name": "renounceOwnership",
      "outputs": [],
      "payable": false,
      "stateMutability": "nonpayable",
      "type": "function"
    },
    {
      "constant": false,
      "inputs": [],
      "name": "renounceOwnership",
      "outputs": [],
      "payable": false,
      "stateMutability": "nonpayable",
      "type": "function"
    },
    {
      "constant": false,
      "inputs": [
        {
          "internalType": "address",
          "name": "target",
          "type": "address"
        }
      ],
      "name": "renouncePauser",
      "outputs": [],
      "payable": false,
      "stateMutability": "nonpayable",
      "type": "function"
    },
    {
      "constant": false,
      "inputs": [],
      "name": "renouncePauser",
      "outputs": [],
      "payable": false,
      "stateMutability": "nonpayable",
      "type": "function"
    },
    {
      "constant": false,
      "inputs": [
        {
          "internalType": "address",
          "name": "target",
          "type": "address"
        },
        {
          "internalType": "address",
          "name": "newOwner",
          "type": "address"
        }
      ],
      "name": "transferOwnership",
      "outputs": [],
      "payable": false,
      "stateMutability": "nonpayable",
      "type": "function"
    },
    {
      "constant": false,
      "inputs": [
        {
          "internalType": "address",
          "name": "newOwner",
          "type": "address"
        }
      ],
      "name": "transferOwnership",
      "outputs": [],
      "payable": false,
      "stateMutability": "nonpayable",
      "type": "function"
    },
    {
      "constant": false,
      "inputs": [],
      "name": "pause",
      "outputs": [],
      "payable": false,
      "stateMutability": "nonpayable",
      "type": "function"
    },
    {
      "constant": false,
      "inputs": [],
      "name": "unpause",
      "outputs": [],
      "payable": false,
      "stateMutability": "nonpayable",
      "type": "function"
    },
    {
      "constant": false,
      "inputs": [
        {
          "internalType": "contract PowerTONI",
          "name": "powerton",
          "type": "address"
        }
      ],
      "name": "setPowerTON",
      "outputs": [],
      "payable": false,
      "stateMutability": "nonpayable",
      "type": "function"
    },
    {
      "constant": false,
      "inputs": [
        {
          "internalType": "address",
          "name": "rootchain",
          "type": "address"
        }
      ],
      "name": "deployCoinage",
      "outputs": [
        {
          "internalType": "bool",
          "name": "",
          "type": "bool"
        }
      ],
      "payable": false,
      "stateMutability": "nonpayable",
      "type": "function"
    },
    {
      "constant": false,
      "inputs": [
        {
          "internalType": "address",
          "name": "rootchain",
          "type": "address"
        },
        {
          "internalType": "uint256",
          "name": "commissionRate",
          "type": "uint256"
        },
        {
          "internalType": "bool",
          "name": "isCommissionRateNegative",
          "type": "bool"
        }
      ],
      "name": "setCommissionRate",
      "outputs": [
        {
          "internalType": "bool",
          "name": "",
          "type": "bool"
        }
      ],
      "payable": false,
      "stateMutability": "nonpayable",
      "type": "function"
    },
    {
      "constant": false,
      "inputs": [],
      "name": "onCommit",
      "outputs": [
        {
          "internalType": "bool",
          "name": "",
          "type": "bool"
        }
      ],
      "payable": false,
      "stateMutability": "nonpayable",
      "type": "function"
    },
    {
      "constant": false,
      "inputs": [
        {
          "internalType": "address",
          "name": "sender",
          "type": "address"
        },
        {
          "internalType": "address",
          "name": "recipient",
          "type": "address"
        },
        {
          "internalType": "uint256",
          "name": "amount",
          "type": "uint256"
        }
      ],
      "name": "onTransfer",
      "outputs": [
        {
          "internalType": "bool",
          "name": "",
          "type": "bool"
        }
      ],
      "payable": false,
      "stateMutability": "nonpayable",
      "type": "function"
    },
    {
      "constant": false,
      "inputs": [
        {
          "internalType": "address",
          "name": "rootchain",
          "type": "address"
        },
        {
          "internalType": "address",
          "name": "account",
          "type": "address"
        },
        {
          "internalType": "uint256",
          "name": "amount",
          "type": "uint256"
        }
      ],
      "name": "onDeposit",
      "outputs": [
        {
          "internalType": "bool",
          "name": "",
          "type": "bool"
        }
      ],
      "payable": false,
      "stateMutability": "nonpayable",
      "type": "function"
    },
    {
      "constant": false,
      "inputs": [
        {
          "internalType": "address",
          "name": "rootchain",
          "type": "address"
        },
        {
          "internalType": "address",
          "name": "account",
          "type": "address"
        },
        {
          "internalType": "uint256",
          "name": "amount",
          "type": "uint256"
        }
      ],
      "name": "onWithdraw",
      "outputs": [
        {
          "internalType": "bool",
          "name": "",
          "type": "bool"
        }
      ],
      "payable": false,
      "stateMutability": "nonpayable",
      "type": "function"
    },
    {
      "constant": true,
      "inputs": [
        {
          "internalType": "address",
          "name": "rootchain",
          "type": "address"
        },
        {
          "internalType": "address",
          "name": "account",
          "type": "address"
        },
        {
          "internalType": "uint256",
          "name": "amount",
          "type": "uint256"
        }
      ],
      "name": "additionalTotBurnAmount",
      "outputs": [
        {
          "internalType": "uint256",
          "name": "totAmount",
          "type": "uint256"
        }
      ],
      "payable": false,
      "stateMutability": "view",
      "type": "function"
    },
    {
      "constant": true,
      "inputs": [
        {
          "internalType": "address",
          "name": "rootchain",
          "type": "address"
        },
        {
          "internalType": "address",
          "name": "account",
          "type": "address"
        }
      ],
      "name": "uncomittedStakeOf",
      "outputs": [
        {
          "internalType": "uint256",
          "name": "",
          "type": "uint256"
        }
      ],
      "payable": false,
      "stateMutability": "view",
      "type": "function"
    },
    {
      "constant": true,
      "inputs": [
        {
          "internalType": "address",
          "name": "rootchain",
          "type": "address"
        },
        {
          "internalType": "address",
          "name": "account",
          "type": "address"
        }
      ],
      "name": "stakeOf",
      "outputs": [
        {
          "internalType": "uint256",
          "name": "",
          "type": "uint256"
        }
      ],
      "payable": false,
      "stateMutability": "view",
      "type": "function"
    },
    {
      "constant": true,
      "inputs": [],
      "name": "registry",
      "outputs": [
        {
          "internalType": "address",
          "name": "",
          "type": "address"
        }
      ],
      "payable": false,
      "stateMutability": "view",
      "type": "function"
    },
    {
      "constant": true,
      "inputs": [],
      "name": "depositManager",
      "outputs": [
        {
          "internalType": "address",
          "name": "",
          "type": "address"
        }
      ],
      "payable": false,
      "stateMutability": "view",
      "type": "function"
    },
    {
      "constant": true,
      "inputs": [],
      "name": "ton",
      "outputs": [
        {
          "internalType": "address",
          "name": "",
          "type": "address"
        }
      ],
      "payable": false,
      "stateMutability": "view",
      "type": "function"
    },
    {
      "constant": true,
      "inputs": [],
      "name": "wton",
      "outputs": [
        {
          "internalType": "address",
          "name": "",
          "type": "address"
        }
      ],
      "payable": false,
      "stateMutability": "view",
      "type": "function"
    },
    {
      "constant": true,
      "inputs": [],
      "name": "powerton",
      "outputs": [
        {
          "internalType": "address",
          "name": "",
          "type": "address"
        }
      ],
      "payable": false,
      "stateMutability": "view",
      "type": "function"
    },
    {
      "constant": true,
      "inputs": [],
      "name": "tot",
      "outputs": [
        {
          "internalType": "address",
          "name": "",
          "type": "address"
        }
      ],
      "payable": false,
      "stateMutability": "view",
      "type": "function"
    },
    {
      "constant": true,
      "inputs": [
        {
          "internalType": "address",
          "name": "rootchain",
          "type": "address"
        }
      ],
      "name": "coinages",
      "outputs": [
        {
          "internalType": "address",
          "name": "",
          "type": "address"
        }
      ],
      "payable": false,
      "stateMutability": "view",
      "type": "function"
    },
    {
      "constant": true,
      "inputs": [
        {
          "internalType": "address",
          "name": "rootchain",
          "type": "address"
        }
      ],
      "name": "commissionRates",
      "outputs": [
        {
          "internalType": "uint256",
          "name": "",
          "type": "uint256"
        }
      ],
      "payable": false,
      "stateMutability": "view",
      "type": "function"
    },
    {
      "constant": true,
      "inputs": [
        {
          "internalType": "address",
          "name": "rootchain",
          "type": "address"
        }
      ],
      "name": "isCommissionRateNegative",
      "outputs": [
        {
          "internalType": "bool",
          "name": "",
          "type": "bool"
        }
      ],
      "payable": false,
      "stateMutability": "view",
      "type": "function"
    },
    {
      "constant": true,
      "inputs": [
        {
          "internalType": "address",
          "name": "rootchain",
          "type": "address"
        }
      ],
      "name": "lastCommitBlock",
      "outputs": [
        {
          "internalType": "uint256",
          "name": "",
          "type": "uint256"
        }
      ],
      "payable": false,
      "stateMutability": "view",
      "type": "function"
    },
    {
      "constant": true,
      "inputs": [],
      "name": "seigPerBlock",
      "outputs": [
        {
          "internalType": "uint256",
          "name": "",
          "type": "uint256"
        }
      ],
      "payable": false,
      "stateMutability": "view",
      "type": "function"
    },
    {
      "constant": true,
      "inputs": [],
      "name": "lastSeigBlock",
      "outputs": [
        {
          "internalType": "uint256",
          "name": "",
          "type": "uint256"
        }
      ],
      "payable": false,
      "stateMutability": "view",
      "type": "function"
    },
    {
      "constant": true,
      "inputs": [],
      "name": "pausedBlock",
      "outputs": [
        {
          "internalType": "uint256",
          "name": "",
          "type": "uint256"
        }
      ],
      "payable": false,
      "stateMutability": "view",
      "type": "function"
    },
    {
      "constant": true,
      "inputs": [],
      "name": "unpausedBlock",
      "outputs": [
        {
          "internalType": "uint256",
          "name": "",
          "type": "uint256"
        }
      ],
      "payable": false,
      "stateMutability": "view",
      "type": "function"
    },
    {
      "constant": true,
      "inputs": [],
      "name": "DEFAULT_FACTOR",
      "outputs": [
        {
          "internalType": "uint256",
          "name": "",
          "type": "uint256"
        }
      ],
      "payable": false,
      "stateMutability": "view",
      "type": "function"
    }
  ],
  "bytecode": "0x60806040523480156200001157600080fd5b506040516200741338038062007413833981810160405260a08110156200003757600080fd5b508051602082015160408301516060840151608090940151929391929091906200007c6200006d6001600160e01b03620001d616565b6001600160e01b03620001da16565b6000620000916001600160e01b03620001d616565b600180546001600160a01b0319166001600160a01b038316908117909155604051919250906000907f8be0079c531659141344cd1fd0a4f28419497f9722a3daafe3b4186f6b6457e0908290a3506001805460ff60a01b19169055600580546001600160a01b038088166001600160a01b03199283161790925560068054878416908316179055600280548684169083161790556003805492851692909116919091179055600c8190556040516b033b2e3c9fd0803ce8000000906000906200015a9062000356565b60408082019390935290151560608201526080808252600090820181905260c06020830181905282018190529151908190036101000191f080158015620001a5573d6000803e3d6000fd5b50600780546001600160a01b0319166001600160a01b0392909216919091179055505043600d555062000364915050565b3390565b620001f58160006200022c60201b62002f9e1790919060201c565b6040516001600160a01b038216907f6719d08c1888103bea251a4ed56406bd0c3e69723c8a1686e017e7bbe159b6f890600090a250565b6200024182826001600160e01b03620002d316565b15620002ae57604080517f08c379a000000000000000000000000000000000000000000000000000000000815260206004820152601f60248201527f526f6c65733a206163636f756e7420616c72656164792068617320726f6c6500604482015290519081900360640190fd5b6001600160a01b0316600090815260209190915260409020805460ff19166001179055565b60006001600160a01b03821662000336576040517f08c379a0000000000000000000000000000000000000000000000000000000008152600401808060200182810382526022815260200180620073f16022913960400191505060405180910390fd5b506001600160a01b03166000908152602091909152604090205460ff1690565b611e8f806200556283390190565b6151ee80620003746000396000f3fe60806040523480156200001157600080fd5b5060043610620002a45760003560e01c80636d43542111620001715780638da5cb5b11620000d5578063cc48b9471162000093578063cc48b9471462000695578063ce4cb876146200069f578063f2fde38b14620006d0578063f35c89e814620006f9578063f850ffaa1462000703578063fa9789c8146200073c57620002a4565b80638da5cb5b14620006445780638f32d59b146200064e578063a16d6aa71462000658578063a7dcc8501462000662578063c59f1046146200066c57620002a4565b80637bf8ae5b116200012f5780637bf8ae5b14620005ca57806382dc1ec414620005d4578063833a774f14620005fd5780638456cb5914620006265780638bf91dc414620006305780638d62d949146200063a57620002a4565b80636d43542114620005525780636ef8d66d1462000583578063715018a6146200058d5780637b056c1b14620005975780637b10399914620005c057620002a4565b806341eb24bb11620002195780634c063c1911620001d75780634c063c1914620004b95780635a16a41614620004e25780635c975abb146200050b5780635f112c6814620005155780635f40a349146200053e5780636c7ac9d8146200054857620002a4565b806341eb24bb14620003be5780634224ed6614620003e757806346fbf68e146200041e57806348c8577e14620004475780634a393149146200048057620002a4565b80633e832e1d11620002675780633e832e1d14620003225780633f4ba83a14620003485780634123196f1462000352578063412c6d50146200035c57806341813020146200039557620002a4565b8063180975d314620002a95780631cc4789014620002c557806332053c9914620002cf578063359c4d5914620002d957806338bf3cfa14620002f7575b600080fd5b620002b36200076d565b60408051918252519081900360200190f35b620002b362000772565b620002b362000779565b620002e36200077f565b604080519115158252519081900360200190f35b62000320600480360360208110156200030f57600080fd5b50356001600160a01b031662000cb1565b005b6200032c62000d54565b604080516001600160a01b039092168252519081900360200190f35b6200032062000d63565b620002b362000e1a565b620002e3600480360360608110156200037457600080fd5b506001600160a01b0381358116916020810135909116906040013562000e29565b6200032060048036036020811015620003ad57600080fd5b50356001600160a01b03166200104b565b6200032060048036036020811015620003d657600080fd5b50356001600160a01b0316620010b8565b620002e360048036036060811015620003ff57600080fd5b506001600160a01b03813516906020810135906040013515156200113f565b620002e3600480360360208110156200043657600080fd5b50356001600160a01b0316620012bf565b620002b3600480360360608110156200045f57600080fd5b506001600160a01b03813581169160208101359091169060400135620012db565b620002e3600480360360608110156200049857600080fd5b506001600160a01b03813581169160208101359091169060400135620012f4565b6200032c60048036036020811015620004d157600080fd5b50356001600160a01b03166200137d565b620002e360048036036020811015620004fa57600080fd5b50356001600160a01b03166200139b565b620002e3620013b9565b62000320600480360360208110156200052d57600080fd5b50356001600160a01b0316620013c9565b620002b362001450565b6200032c62001456565b62000320600480360360408110156200056a57600080fd5b506001600160a01b038135811691602001351662001465565b6200032062001526565b620003206200153a565b620002b360048036036020811015620005af57600080fd5b50356001600160a01b0316620015cf565b6200032c620015ea565b620002b3620015f9565b6200032060048036036020811015620005ec57600080fd5b50356001600160a01b0316620015fe565b620002e3600480360360208110156200061557600080fd5b50356001600160a01b031662001657565b620003206200179f565b620002b36200184b565b6200032c6200185a565b6200032c62001869565b620002e362001878565b6200032c620018a0565b620002b3620018af565b620002b3600480360360208110156200068457600080fd5b50356001600160a01b0316620018be565b6200032c620018d9565b620002b360048036036040811015620006b757600080fd5b506001600160a01b0381358116916020013516620018e8565b6200032060048036036020811015620006e857600080fd5b50356001600160a01b03166200197a565b620002b3620019d0565b620002e3600480360360608110156200071b57600080fd5b506001600160a01b03813581169160208101359091169060400135620019d6565b620002b3600480360360408110156200075457600080fd5b506001600160a01b038135811691602001351662001d03565b600581565b600f545b90565b600e5490565b336000818152600860205260408120549091906001600160a01b0316620007d85760405162461bcd60e51b815260040180806020018281038252602e81526020018062005067602e913960400191505060405180910390fd5b620007e2620013b9565b15620007f2576001915062000cad565b620007fc62001fd8565b50336000908152600b60209081526040808320439055600882528083205481516318160ddd60e01b815291516001600160a01b03909116939284926318160ddd9260048083019392829003018186803b1580156200085957600080fd5b505afa1580156200086e573d6000803e3d6000fd5b505050506040513d60208110156200088557600080fd5b5051600754604080516370a0823160e01b815233600482015290519293506000926001600160a01b03909216916370a0823191602480820192602092909190829003018186803b158015620008d957600080fd5b505afa158015620008ee573d6000803e3d6000fd5b505050506040513d60208110156200090557600080fd5b50519050808210620009495760405133907f521cc65179761533a7c8d7a973291dd7baebb99a67edf5ef78e9c2b61a533d9590600090a26001945050505062000cad565b600082820390506000336001600160a01b031663570ca7356040518163ffffffff1660e01b815260040160206040518083038186803b1580156200098c57600080fd5b505afa158015620009a1573d6000803e3d6000fd5b505050506040513d6020811015620009b857600080fd5b5051336000908152600a60205260408120549192509060ff16620009e08787868487620026fb565b8093508196505050866001600160a01b031663817e9d3162000a6b88888b6001600160a01b03166354f703f86040518163ffffffff1660e01b815260040160206040518083038186803b15801562000a3757600080fd5b505afa15801562000a4c573d6000803e3d6000fd5b505050506040513d602081101562000a6357600080fd5b5051620028a1565b6040518263ffffffff1660e01b815260040180828152602001915050602060405180830381600087803b15801562000aa257600080fd5b505af115801562000ab7573d6000803e3d6000fd5b505050506040513d602081101562000ace57600080fd5b5050811562000bee57801562000b5e57866001600160a01b03166379cc679084846040518363ffffffff1660e01b815260040180836001600160a01b03166001600160a01b0316815260200182815260200192505050600060405180830381600087803b15801562000b3f57600080fd5b505af115801562000b54573d6000803e3d6000fd5b5050505062000bee565b866001600160a01b03166340c10f1984846040518363ffffffff1660e01b815260040180836001600160a01b03166001600160a01b0316815260200182815260200192505050602060405180830381600087803b15801562000bbf57600080fd5b505af115801562000bd4573d6000803e3d6000fd5b505050506040513d602081101562000beb57600080fd5b50505b600654600354604080516340c10f1960e01b81526001600160a01b03928316600482015260248101889052905191909216916340c10f199160448083019260209291908290030181600087803b15801562000c4857600080fd5b505af115801562000c5d573d6000803e3d6000fd5b505050506040513d602081101562000c7457600080fd5b505060405133907f521cc65179761533a7c8d7a973291dd7baebb99a67edf5ef78e9c2b61a533d9590600090a260019850505050505050505b5090565b62000cbb62001878565b62000cfc576040805162461bcd60e51b81526020600482018190526024820152600080516020620050d7833981519152604482015290519081900360640190fd5b806001600160a01b031663715018a66040518163ffffffff1660e01b8152600401600060405180830381600087803b15801562000d3857600080fd5b505af115801562000d4d573d6000803e3d6000fd5b5050505050565b6004546001600160a01b031690565b62000d7762000d71620028ba565b620012bf565b62000db45760405162461bcd60e51b8152600401808060200182810382526030815260200180620050116030913960400191505060405180910390fd5b600154600160a01b900460ff1662000e0a576040805162461bcd60e51b815260206004820152601460248201527314185d5cd8589b194e881b9bdd081c185d5cd95960621b604482015290519081900360640190fd5b43600f5562000e18620028be565b565b676765c793fa10079d601b1b81565b6003546000906001600160a01b0316331462000e4457600080fd5b6001600160a01b0380851660009081526008602052604090205485911662000e9e5760405162461bcd60e51b815260040180806020018281038252602e81526020018062005067602e913960400191505060405180910390fd5b600754604080516340c10f1960e01b81526001600160a01b03888116600483015260248201879052915191909216916340c10f199160448083019260209291908290030181600087803b15801562000ef557600080fd5b505af115801562000f0a573d6000803e3d6000fd5b505050506040513d602081101562000f2157600080fd5b50506001600160a01b0380861660009081526008602090815260408083205481516340c10f1960e01b815289861660048201526024810189905291519416936340c10f1993604480840194938390030190829087803b15801562000f8457600080fd5b505af115801562000f99573d6000803e3d6000fd5b505050506040513d602081101562000fb057600080fd5b50506004546001600160a01b03161562001040576004805460408051630412c6d560e41b81526001600160a01b03898116948201949094528784166024820152604481018790529051929091169163412c6d509160648082019260009290919082900301818387803b1580156200102657600080fd5b505af11580156200103b573d6000803e3d6000fd5b505050505b506001949350505050565b6200105562001878565b62001096576040805162461bcd60e51b81526020600482018190526024820152600080516020620050d7833981519152604482015290519081900360640190fd5b600480546001600160a01b0319166001600160a01b0392909216919091179055565b620010c262001878565b62001103576040805162461bcd60e51b81526020600482018190526024820152600080516020620050d7833981519152604482015290519081900360640190fd5b806001600160a01b0316636ef8d66d6040518163ffffffff1660e01b8152600401600060405180830381600087803b15801562000d3857600080fd5b60025460009084906001600160a01b0316331480620011cd5750806001600160a01b031663570ca7356040518163ffffffff1660e01b815260040160206040518083038186803b1580156200119357600080fd5b505afa158015620011a8573d6000803e3d6000fd5b505050506040513d6020811015620011bf57600080fd5b50516001600160a01b031633145b620011d757600080fd5b831580620012075750836a084595161401484a00000011158015620012075750676765c793fa10079d601b1b8411155b620012445760405162461bcd60e51b8152600401808060200182810382526044815260200180620051196044913960600191505060405180910390fd5b6001600160a01b0385166000818152600960209081526040808320805490899055600a835292819020805460ff1916881515179055805183815291820188905280519293927f11841078e38c91feada06e1f8ded3697ab2dadc2583c52b14109b82ccd4f77d79281900390910190a250600195945050505050565b6000620012d3818363ffffffff620029b416565b90505b919050565b6000620012ea84848462002a1d565b90505b9392505050565b6005546000906001600160a01b03163314806200131b57506006546001600160a01b031633145b620013585760405162461bcd60e51b81526004018080602001828103825260318152602001806200515d6031913960400191505060405180910390fd5b62001362620013b9565b62001373576200137162001fd8565b505b5060019392505050565b6001600160a01b039081166000908152600860205260409020541690565b6001600160a01b03166000908152600a602052604090205460ff1690565b600154600160a01b900460ff1690565b620013d362001878565b62001414576040805162461bcd60e51b81526020600482018190526024820152600080516020620050d7833981519152604482015290519081900360640190fd5b806001600160a01b031663986502756040518163ffffffff1660e01b8152600401600060405180830381600087803b15801562000d3857600080fd5b600c5490565b6003546001600160a01b031690565b6200146f62001878565b620014b0576040805162461bcd60e51b81526020600482018190526024820152600080516020620050d7833981519152604482015290519081900360640190fd5b816001600160a01b031663f2fde38b826040518263ffffffff1660e01b815260040180826001600160a01b03166001600160a01b03168152602001915050600060405180830381600087803b1580156200150957600080fd5b505af11580156200151e573d6000803e3d6000fd5b505050505050565b62000e1862001534620028ba565b62002b79565b6200154462001878565b62001585576040805162461bcd60e51b81526020600482018190526024820152600080516020620050d7833981519152604482015290519081900360640190fd5b6001546040516000916001600160a01b0316907f8be0079c531659141344cd1fd0a4f28419497f9722a3daafe3b4186f6b6457e0908390a3600180546001600160a01b0319169055565b6001600160a01b031660009081526009602052604090205490565b6002546001600160a01b031690565b600a81565b6200160c62000d71620028ba565b620016495760405162461bcd60e51b8152600401808060200182810382526030815260200180620050116030913960400191505060405180910390fd5b620016548162002bc3565b50565b6002546000906001600160a01b031633146200167257600080fd5b6001600160a01b0382811660009081526008602052604090205416156200169c57506000620012d6565b6001600160a01b03828116600090815260086020526040902054166200179757676765c793fa10079d601b1b6000604051620016d89062003173565b60408082019390935290151560608201526080808252600090820181905260c06020830181905282018190529151908190036101000191f08015801562001723573d6000803e3d6000fd5b506001600160a01b03838116600081815260086020818152604080842080546001600160a01b031916978716979097178755600b82529283902043905590815293548151931683525190927f124cac1e701d08d642237ad795ddd275670e12f2cd956a26709721c68084c2b2928290030190a25b506001919050565b620017ad62000d71620028ba565b620017ea5760405162461bcd60e51b8152600401808060200182810382526030815260200180620050116030913960400191505060405180910390fd5b600154600160a01b900460ff16156200183d576040805162461bcd60e51b815260206004820152601060248201526f14185d5cd8589b194e881c185d5cd95960821b604482015290519081900360640190fd5b43600e5562000e1862002c0d565b676765c793fa10079d601b1b90565b6006546001600160a01b031690565b6001546001600160a01b031690565b6001546000906001600160a01b031662001891620028ba565b6001600160a01b031614905090565b6007546001600160a01b031690565b6a084595161401484a00000081565b6001600160a01b03166000908152600b602052604090205490565b6005546001600160a01b031690565b6001600160a01b0380831660009081526008602090815260408083205481516370a0823160e01b815286861660048201529151939416926370a0823192602480840193919291829003018186803b1580156200194357600080fd5b505afa15801562001958573d6000803e3d6000fd5b505050506040513d60208110156200196f57600080fd5b505190505b92915050565b6200198462001878565b620019c5576040805162461bcd60e51b81526020600482018190526024820152600080516020620050d7833981519152604482015290519081900360640190fd5b620016548162002ce9565b600d5490565b6003546000906001600160a01b03163314620019f157600080fd5b6001600160a01b0380851660009081526008602052604090205485911662001a4b5760405162461bcd60e51b815260040180806020018281038252602e81526020018062005067602e913960400191505060405180910390fd5b6001600160a01b038086166000908152600860209081526040918290205482516370a0823160e01b815288851660048201529251879491909116926370a08231926024808301939192829003018186803b15801562001aa957600080fd5b505afa15801562001abe573d6000803e3d6000fd5b505050506040513d602081101562001ad557600080fd5b5051101562001b165760405162461bcd60e51b815260040180806020018281038252602c8152602001806200518e602c913960400191505060405180910390fd5b600062001b2586868662002a1d565b6007549091506001600160a01b03166379cc67908762001b4c878563ffffffff62002d8c16565b6040518363ffffffff1660e01b815260040180836001600160a01b03166001600160a01b0316815260200182815260200192505050600060405180830381600087803b15801562001b9c57600080fd5b505af115801562001bb1573d6000803e3d6000fd5b5050506001600160a01b0380881660009081526008602052604080822054815163079cc67960e41b81528a85166004820152602481018a90529151931693506379cc6790926044808301939282900301818387803b15801562001c1357600080fd5b505af115801562001c28573d6000803e3d6000fd5b50506004546001600160a01b031615915062001cbc9050576004805460408051637c287fd560e11b81526001600160a01b038a8116948201949094528884166024820152604481018890529051929091169163f850ffaa9160648082019260009290919082900301818387803b15801562001ca257600080fd5b505af115801562001cb7573d6000803e3d6000fd5b505050505b604080518581526020810183905281517f650f673bb96a43afff4620ecc3f3e38e0cbfddebde9894e951ba2ceff7472f60929181900390910190a150600195945050505050565b6001600160a01b038083166000908152600860209081526040808320548151630a9ee07f60e31b8152915193941692849284926354f703f89260048083019392829003018186803b15801562001d5857600080fd5b505afa15801562001d6d573d6000803e3d6000fd5b505050506040513d602081101562001d8457600080fd5b5051604080516318160ddd60e01b815290519192506000916001600160a01b038516916318160ddd916004808301926020929190829003018186803b15801562001dcd57600080fd5b505afa15801562001de2573d6000803e3d6000fd5b505050506040513d602081101562001df957600080fd5b5051600754604080516370a0823160e01b81526001600160a01b038a81166004830152915193945060009391909216916370a08231916024808301926020929190829003018186803b15801562001e4f57600080fd5b505afa15801562001e64573d6000803e3d6000fd5b505050506040513d602081101562001e7b57600080fd5b50519050600062001e8e838386620028a1565b9050600062001f2d62001f26876001600160a01b03166370a082318b6040518263ffffffff1660e01b815260040180826001600160a01b03166001600160a01b0316815260200191505060206040518083038186803b15801562001ef157600080fd5b505afa15801562001f06573d6000803e3d6000fd5b505050506040513d602081101562001f1d57600080fd5b50518762002de7565b8362002e20565b6001600160a01b03808b166000908152600860209081526040918290205482516370a0823160e01b81528d85166004820152925194955062001fcb949316926370a08231926024808201939291829003018186803b15801562001f8f57600080fd5b505afa15801562001fa4573d6000803e3d6000fd5b505050506040513d602081101562001fbb57600080fd5b5051829063ffffffff62002e5216565b9998505050505050505050565b6000600d5443141562001fee5750600062000776565b600760009054906101000a90046001600160a01b03166001600160a01b03166318160ddd6040518163ffffffff1660e01b815260040160206040518083038186803b1580156200203d57600080fd5b505afa15801562002052573d6000803e3d6000fd5b505050506040513d60208110156200206957600080fd5b50516200207d575043600d55600062000776565b600080600760009054906101000a90046001600160a01b03166001600160a01b03166318160ddd6040518163ffffffff1660e01b815260040160206040518083038186803b158015620020cf57600080fd5b505afa158015620020e4573d6000803e3d6000fd5b505050506040513d6020811015620020fb57600080fd5b5051600c5490925060009062002122906200211562002e96565b9063ffffffff62002ed516565b90506000620023bc600660009054906101000a90046001600160a01b03166001600160a01b03166318160ddd6040518163ffffffff1660e01b815260040160206040518083038186803b1580156200217957600080fd5b505afa1580156200218e573d6000803e3d6000fd5b505050506040513d6020811015620021a557600080fd5b5051600754604080516318160ddd60e01b81529051620023af926001600160a01b0316916318160ddd916004808301926020929190829003018186803b158015620021ef57600080fd5b505afa15801562002204573d6000803e3d6000fd5b505050506040513d60208110156200221b57600080fd5b5051600654604080516318160ddd60e01b81529051620023a2926001600160a01b0316916318160ddd916004808301926020929190829003018186803b1580156200226557600080fd5b505afa1580156200227a573d6000803e3d6000fd5b505050506040513d60208110156200229157600080fd5b5051600554600654604080516370a0823160e01b81526001600160a01b0392831660048201529051620023a293633b9aca009362002115939116916370a0823191602480820192602092909190829003018186803b158015620022f357600080fd5b505afa15801562002308573d6000803e3d6000fd5b505050506040513d60208110156200231f57600080fd5b5051600554604080516318160ddd60e01b815290516001600160a01b03909216916318160ddd91600480820192602092909190829003018186803b1580156200236757600080fd5b505afa1580156200237c573d6000803e3d6000fd5b505050506040513d60208110156200239357600080fd5b50519063ffffffff62002e5216565b9063ffffffff62002d8c16565b9063ffffffff62002e5216565b90506000620024536200244c84600760009054906101000a90046001600160a01b03166001600160a01b03166318160ddd6040518163ffffffff1660e01b815260040160206040518083038186803b1580156200241857600080fd5b505afa1580156200242d573d6000803e3d6000fd5b505050506040513d60208110156200244457600080fd5b505162002e20565b8362002de7565b905062002467858263ffffffff62002d8c16565b43600d5560075460408051630a9ee07f60e31b815290519296506001600160a01b039091169163817e9d3191620024c4918991899186916354f703f8916004808301926020929190829003018186803b15801562000a3757600080fd5b6040518263ffffffff1660e01b815260040180828152602001915050602060405180830381600087803b158015620024fb57600080fd5b505af115801562002510573d6000803e3d6000fd5b505050506040513d60208110156200252757600080fd5b5050600754604080516318160ddd60e01b815290517f41a79a497d1457df24c25ab99f22349ae9aef4468429f0a781216e8dcf80c628926001600160a01b0316916318160ddd916004808301926020929190829003018186803b1580156200258e57600080fd5b505afa158015620025a3573d6000803e3d6000fd5b505050506040513d6020811015620025ba57600080fd5b5051604080519182526020820185905281810188905260608201879052519081900360800190a16000620025f5848363ffffffff62002e5216565b6004549091506000906001600160a01b031615620026a3575060065460048054604080516340c10f1960e01b81526001600160a01b0392831693810193909352600a6005860204602484018190529051909391909116916340c10f199160448083019260209291908290030181600087803b1580156200267457600080fd5b505af115801562002689573d6000803e3d6000fd5b505050506040513d6020811015620026a057600080fd5b50505b604080518681526020810185905280820184905260608101839052905133917f73600b95c31a4ed411c84c32eaa15178c77fdcd9d5c8123118e76c03b3dcd63b919081900360800190a2600197505050505050505090565b336000908152600960205260408120548585019190806200271d575062002897565b846200274d576200272f868262002e20565b915062002743838363ffffffff62002e5216565b9250620028979050565b866200275a575062002897565b6000886001600160a01b03166370a08231866040518263ffffffff1660e01b815260040180826001600160a01b03166001600160a01b0316815260200191505060206040518083038186803b158015620027b357600080fd5b505afa158015620027c8573d6000803e3d6000fd5b505050506040513d6020811015620027df57600080fd5b5051905080620027f25750620028979050565b600062002800828a62002de7565b90506200281962002812898362002e20565b8462002e20565b93506000676765c793fa10079d601b1b82146200284f57620028498583676765c793fa10079d601b1b0362002de7565b62002851565b845b9050676765c793fa10079d601b1b82146200287a5762002872818362002e20565b85016200287c565b845b945062002890868263ffffffff62002d8c16565b9550505050505b9550959350505050565b6000620012ea620028b3848462002e20565b8562002de7565b3390565b620028cc62000d71620028ba565b620029095760405162461bcd60e51b8152600401808060200182810382526030815260200180620050116030913960400191505060405180910390fd5b600154600160a01b900460ff166200295f576040805162461bcd60e51b815260206004820152601460248201527314185d5cd8589b194e881b9bdd081c185d5cd95960621b604482015290519081900360640190fd5b6001805460ff60a01b191690557f5db9ee0a495bf2e6ff9c91a7834c1ba4fdd244a5e8aa4e537bd38aeae4b073aa62002997620028ba565b604080516001600160a01b039092168252519081900360200190a1565b60006001600160a01b038216620029fd5760405162461bcd60e51b8152600401808060200182810382526022815260200180620050f76022913960400191505060405180910390fd5b506001600160a01b03166000908152602091909152604090205460ff1690565b6001600160a01b0380841660009081526008602090815260408083205481516318160ddd60e01b81529151939485949116926318160ddd9260048082019391829003018186803b15801562002a7157600080fd5b505afa15801562002a86573d6000803e3d6000fd5b505050506040513d602081101562002a9d57600080fd5b5051600754604080516370a0823160e01b81526001600160a01b038981166004830152915193945060009391909216916370a08231916024808301926020929190829003018186803b15801562002af357600080fd5b505afa15801562002b08573d6000803e3d6000fd5b505050506040513d602081101562002b1f57600080fd5b50519050808211801562002b3c5750670de0b6b3a7640000818303105b1562002b4e57600092505050620012ed565b62002b6f6200244c62002b68838563ffffffff62002e5216565b8662002e20565b9695505050505050565b62002b8c60008263ffffffff62002f3316565b6040516001600160a01b038216907fcd265ebaf09df2871cc7bd4133404a235ba12eff2041bb89d9c714a2621c7c7e90600090a250565b62002bd660008263ffffffff62002f9e16565b6040516001600160a01b038216907f6719d08c1888103bea251a4ed56406bd0c3e69723c8a1686e017e7bbe159b6f890600090a250565b62002c1b62000d71620028ba565b62002c585760405162461bcd60e51b8152600401808060200182810382526030815260200180620050116030913960400191505060405180910390fd5b600154600160a01b900460ff161562002cab576040805162461bcd60e51b815260206004820152601060248201526f14185d5cd8589b194e881c185d5cd95960821b604482015290519081900360640190fd5b6001805460ff60a01b1916600160a01b1790557f62e78cea01bee320cd4e420270b5ea74000d11b0c9f74754ebdbfc544b05a25862002997620028ba565b6001600160a01b03811662002d305760405162461bcd60e51b8152600401808060200182810382526026815260200180620050416026913960400191505060405180910390fd5b6001546040516001600160a01b038084169216907f8be0079c531659141344cd1fd0a4f28419497f9722a3daafe3b4186f6b6457e090600090a3600180546001600160a01b0319166001600160a01b0392909216919091179055565b600082820183811015620012ed576040805162461bcd60e51b815260206004820152601b60248201527f536166654d6174683a206164646974696f6e206f766572666c6f770000000000604482015290519081900360640190fd5b60008162002e1062002e0585676765c793fa10079d601b1b62003022565b6002855b0462003088565b8162002e1857fe5b049392505050565b6000676765c793fa10079d601b1b62002e1062002e3e858562003022565b6002676765c793fa10079d601b1b62002e09565b6000620012ed83836040518060400160405280601e81526020017f536166654d6174683a207375627472616374696f6e206f766572666c6f770000815250620030d8565b600062002ea2620013b9565b1562002ead57600080fd5b600d54600f544382900391111562002ec757905062000776565b600e54600f54039003905090565b60008262002ee65750600062001974565b8282028284828162002ef457fe5b0414620012ed5760405162461bcd60e51b8152600401808060200182810382526021815260200180620050b66021913960400191505060405180910390fd5b62002f3f8282620029b4565b62002f7c5760405162461bcd60e51b8152600401808060200182810382526021815260200180620050956021913960400191505060405180910390fd5b6001600160a01b0316600090815260209190915260409020805460ff19169055565b62002faa8282620029b4565b1562002ffd576040805162461bcd60e51b815260206004820152601f60248201527f526f6c65733a206163636f756e7420616c72656164792068617320726f6c6500604482015290519081900360640190fd5b6001600160a01b0316600090815260209190915260409020805460ff19166001179055565b60008115806200303f575050808202828282816200303c57fe5b04145b62001974576040805162461bcd60e51b815260206004820152601460248201527364732d6d6174682d6d756c2d6f766572666c6f7760601b604482015290519081900360640190fd5b8082018281101562001974576040805162461bcd60e51b815260206004820152601460248201527364732d6d6174682d6164642d6f766572666c6f7760601b604482015290519081900360640190fd5b600081848411156200316b5760405162461bcd60e51b81526004018080602001828103825283818151815260200191508051906020019080838360005b838110156200312f57818101518382015260200162003115565b50505050905090810190601f1680156200315d5780820380516001836020036101000a031916815260200191505b509250505060405180910390fd5b505050900390565b611e8f80620031828339019056fe60806040523480156200001157600080fd5b5060405162001e8f38038062001e8f833981810160405260808110156200003757600080fd5b81019080805160405193929190846401000000008211156200005857600080fd5b9083019060208201858111156200006e57600080fd5b82516401000000008111828201881017156200008957600080fd5b82525081516020918201929091019080838360005b83811015620000b85781810151838201526020016200009e565b50505050905090810190601f168015620000e65780820380516001836020036101000a031916815260200191505b50604052602001805160405193929190846401000000008211156200010a57600080fd5b9083019060208201858111156200012057600080fd5b82516401000000008111828201881017156200013b57600080fd5b82525081516020918201929091019080838360005b838110156200016a57818101518382015260200162000150565b50505050905090810190601f168015620001985780820380516001836020036101000a031916815260200191505b50604090815260208201519101519092509050838383838383836000848484601b620001df620001d06001600160e01b03620002ad16565b6001600160e01b03620002b216565b620001f26001600160e01b03620002ad16565b600480546001600160a01b0319166001600160a01b0392831617908190556040519116906000907f8be0079c531659141344cd1fd0a4f28419497f9722a3daafe3b4186f6b6457e0908290a38251620002539060059060208601906200042e565b508151620002699060069060208501906200042e565b506007805460ff90921660ff19928316179055600b959095555050600c9190915543600d55600e80549115159190921617905550620004d098505050505050505050565b335b90565b620002cd8160036200030460201b6200148b1790919060201c565b6040516001600160a01b038216907f6ae172837ea30b801fbfcdd4108aa1d5bf8ff775444fd70256b44e6bf3dfc3f690600090a250565b6200031982826001600160e01b03620003ab16565b156200038657604080517f08c379a000000000000000000000000000000000000000000000000000000000815260206004820152601f60248201527f526f6c65733a206163636f756e7420616c72656164792068617320726f6c6500604482015290519081900360640190fd5b6001600160a01b0316600090815260209190915260409020805460ff19166001179055565b60006001600160a01b0382166200040e576040517f08c379a000000000000000000000000000000000000000000000000000000000815260040180806020018281038252602281526020018062001e6d6022913960400191505060405180910390fd5b506001600160a01b03166000908152602091909152604090205460ff1690565b828054600181600116156101000203166002900490600052602060002090601f016020900481019282601f106200047157805160ff1916838001178555620004a1565b82800160010185558215620004a1579182015b82811115620004a157825182559160200191906001019062000484565b50620004af929150620004b3565b5090565b620002af91905b80821115620004af5760008155600101620004ba565b61198d80620004e06000396000f3fe608060405234801561001057600080fd5b50600436106101a95760003560e01c8063817e9d31116100f9578063a9059cbb11610097578063d4132ee211610071578063d4132ee2146104bf578063dd62ed3e146104c7578063f2fde38b146104f5578063f41e60c51461051b576101a9565b8063a9059cbb14610465578063aa271e1a14610491578063bef97c87146104b7576101a9565b806395d89b41116100d357806395d89b4114610403578063983b2d561461040b5780639865027514610431578063a457c2d714610439576101a9565b8063817e9d31146103ba5780638da5cb5b146103d75780638f32d59b146103fb576101a9565b806340c10f191161016657806370a082311161014057806370a0823114610358578063715018a61461037e57806379cc679014610386578063806b984f146103b2576101a9565b806340c10f191461030557806342966c681461033157806354f703f814610350576101a9565b806306fdde03146101ae578063095ea7b31461022b57806318160ddd1461026b57806323b872dd14610285578063313ce567146102bb57806339509351146102d9575b600080fd5b6101b661053a565b6040805160208082528351818301528351919283929083019185019080838360005b838110156101f05781810151838201526020016101d8565b50505050905090810190601f16801561021d5780820380516001836020036101000a031916815260200191505b509250505060405180910390f35b6102576004803603604081101561024157600080fd5b506001600160a01b0381351690602001356105d0565b604080519115158252519081900360200190f35b6102736105ee565b60408051918252519081900360200190f35b6102576004803603606081101561029b57600080fd5b506001600160a01b03813581169160208101359091169060400135610600565b6102c36106f1565b6040805160ff9092168252519081900360200190f35b610257600480360360408110156102ef57600080fd5b506001600160a01b0381351690602001356106fa565b6102576004803603604081101561031b57600080fd5b506001600160a01b03813516906020013561074e565b61034e6004803603602081101561034757600080fd5b50356107a5565b005b6102736107b9565b6102736004803603602081101561036e57600080fd5b50356001600160a01b03166107bf565b61034e6107e9565b61034e6004803603604081101561039c57600080fd5b506001600160a01b03813516906020013561087a565b610273610888565b610257600480360360208110156103d057600080fd5b503561088e565b6103df610920565b604080516001600160a01b039092168252519081900360200190f35b61025761092f565b6101b6610955565b61034e6004803603602081101561042157600080fd5b50356001600160a01b03166109b6565b61034e610a05565b6102576004803603604081101561044f57600080fd5b506001600160a01b038135169060200135610a17565b6102576004803603604081101561047b57600080fd5b506001600160a01b038135169060200135610a85565b610257600480360360208110156104a757600080fd5b50356001600160a01b0316610afd565b610257610b10565b610273610b19565b610273600480360360408110156104dd57600080fd5b506001600160a01b0381358116916020013516610b1f565b61034e6004803603602081101561050b57600080fd5b50356001600160a01b0316610b4a565b61034e6004803603602081101561053157600080fd5b50351515610b9a565b60058054604080516020601f60026000196101006001881615020190951694909404938401819004810282018101909252828152606093909290918301828280156105c65780601f1061059b576101008083540402835291602001916105c6565b820191906000526020600020905b8154815290600101906020018083116105a957829003601f168201915b5050505050905090565b60006105e46105dd610bf4565b8484610bf8565b5060015b92915050565b60006105fb600a54610cec565b905090565b600061060a610920565b6001600160a01b0316336001600160a01b0316148061062b5750600e5460ff165b6106665760405162461bcd60e51b815260040180806020018281038252602a815260200180611864602a913960400191505060405180910390fd5b610671848484610d32565b6106e78461067d610bf4565b6106e2856040518060600160405280603781526020016118be603791396001600160a01b038a166000908152600960205260408120906106bb610bf4565b6001600160a01b03168152602081019190915260400160002054919063ffffffff610ea916565b610bf8565b5060019392505050565b60075460ff1690565b60006105e4610707610bf4565b846106e28560096000610718610bf4565b6001600160a01b03908116825260208083019390935260409182016000908120918c16815292529020549063ffffffff610f4016565b600061076061075b610bf4565b610afd565b61079b5760405162461bcd60e51b815260040180806020018281038252603081526020018061173c6030913960400191505060405180910390fd5b6105e48383610f9a565b6107b66107b0610bf4565b82611091565b50565b600b5490565b6001600160a01b0381166000908152600860205260408120546107e190610cec565b90505b919050565b6107f161092f565b610830576040805162461bcd60e51b815260206004820181905260248201526000805160206117bb833981519152604482015290519081900360640190fd5b6004546040516000916001600160a01b0316907f8be0079c531659141344cd1fd0a4f28419497f9722a3daafe3b4186f6b6457e0908390a3600480546001600160a01b0319169055565b6108848282611193565b5050565b600d5490565b600061089861092f565b6108d7576040805162461bcd60e51b815260206004820181905260248201526000805160206117bb833981519152604482015290519081900360640190fd5b600b805490839055604080518281526020810185905281517fafc9085bb15d79bc1e9d87807e2fc5f4c2b631088cb3e38c86cb627c12a0e430929181900390910190a150919050565b6004546001600160a01b031690565b6004546000906001600160a01b0316610946610bf4565b6001600160a01b031614905090565b60068054604080516020601f60026000196101006001881615020190951694909404938401819004810282018101909252828152606093909290918301828280156105c65780601f1061059b576101008083540402835291602001916105c6565b6109c161075b610bf4565b6109fc5760405162461bcd60e51b815260040180806020018281038252603081526020018061173c6030913960400191505060405180910390fd5b6107b6816111fb565b610a15610a10610bf4565b611243565b565b60006105e4610a24610bf4565b846106e2856040518060600160405280603481526020016116706034913960096000610a4e610bf4565b6001600160a01b03908116825260208083019390935260409182016000908120918d1681529252902054919063ffffffff610ea916565b6000610a8f610920565b6001600160a01b0316336001600160a01b03161480610ab05750600e5460ff165b610aeb5760405162461bcd60e51b815260040180806020018281038252602a815260200180611864602a913960400191505060405180910390fd5b6105e4610af6610bf4565b8484610d32565b60006107e160038363ffffffff61128b16565b600e5460ff1690565b600c5490565b6001600160a01b03918216600090815260096020908152604080832093909416825291909152205490565b610b5261092f565b610b91576040805162461bcd60e51b815260206004820181905260248201526000805160206117bb833981519152604482015290519081900360640190fd5b6107b6816112f2565b610ba261092f565b610be1576040805162461bcd60e51b815260206004820181905260248201526000805160206117bb833981519152604482015290519081900360640190fd5b600e805460ff1916911515919091179055565b3390565b610c00611393565b6001600160a01b038316610c455760405162461bcd60e51b81526004018080602001828103825260338152602001806116d86033913960400191505060405180910390fd5b6001600160a01b038216610c8a5760405162461bcd60e51b815260040180806020018281038252603181526020018061170b6031913960400191505060405180910390fd5b6001600160a01b03808416600081815260096020908152604080832094871680845294825291829020859055815185815291517f8c5be1e5ebec7d5bd14f71427d1e84f3dd0314c0f7b2291e5b200ac8c7c3b9259281900390910190a3505050565b600081610cfb575060006107e4565b600d54430380610d1957610d1183600b546113e5565b9150506107e4565b610d2b83610d2683611426565b6113e5565b9392505050565b610d3a611393565b6001600160a01b038316610d7f5760405162461bcd60e51b81526004018080602001828103825260348152602001806116a46034913960400191505060405180910390fd5b6001600160a01b038216610dc45760405162461bcd60e51b81526004018080602001828103825260328152602001806117fd6032913960400191505060405180910390fd5b6000610dcf8261142d565b9050610e148160405180606001604052806035815260200161182f603591396001600160a01b038716600090815260086020526040902054919063ffffffff610ea916565b6001600160a01b038086166000908152600860205260408082209390935590851681522054610e49908263ffffffff610f4016565b6001600160a01b0380851660008181526008602052604090209290925585167fddf252ad1be2c89b69c2b068fc378daa952ba7f163c4a11628f55a4df523b3ef610e928461143b565b60408051918252519081900360200190a350505050565b60008184841115610f385760405162461bcd60e51b81526004018080602001828103825283818151815260200191508051906020019080838360005b83811015610efd578181015183820152602001610ee5565b50505050905090810190601f168015610f2a5780820380516001836020036101000a031916815260200191505b509250505060405180910390fd5b505050900390565b600082820183811015610d2b576040805162461bcd60e51b815260206004820152601b60248201527f536166654d6174683a206164646974696f6e206f766572666c6f770000000000604482015290519081900360640190fd5b610fa2611393565b6001600160a01b038216610fe75760405162461bcd60e51b815260040180806020018281038252602e81526020018061178d602e913960400191505060405180910390fd5b6000610ff28261142d565b600a54909150611008908263ffffffff610f4016565b600a556001600160a01b038316600090815260086020526040902054611034908263ffffffff610f4016565b6001600160a01b038416600081815260086020526040812092909255907fddf252ad1be2c89b69c2b068fc378daa952ba7f163c4a11628f55a4df523b3ef61107b8461143b565b60408051918252519081900360200190a3505050565b611099611393565b6001600160a01b0382166110de5760405162461bcd60e51b815260040180806020018281038252603081526020018061188e6030913960400191505060405180910390fd5b60006110e98261142d565b905061112e816040518060600160405280603181526020016118f5603191396001600160a01b038616600090815260086020526040902054919063ffffffff610ea916565b6001600160a01b038416600090815260086020526040902055600a5461115a908263ffffffff61144916565b600a5560006001600160a01b0384167fddf252ad1be2c89b69c2b068fc378daa952ba7f163c4a11628f55a4df523b3ef61107b8461143b565b61119b611393565b6111a58282611091565b6111ad61092f565b61088457610884826111bd610bf4565b6106e284604051806060016040528060338152602001611926603391396001600160a01b0388166000908152600960205260408120906106bb610bf4565b61120c60038263ffffffff61148b16565b6040516001600160a01b038216907f6ae172837ea30b801fbfcdd4108aa1d5bf8ff775444fd70256b44e6bf3dfc3f690600090a250565b61125460038263ffffffff61150c16565b6040516001600160a01b038216907fe94479a9f7e1952cc78f2d6baab678adc1b772d936c6583def489e524cb6669290600090a250565b60006001600160a01b0382166112d25760405162461bcd60e51b81526004018080602001828103825260228152602001806117db6022913960400191505060405180910390fd5b506001600160a01b03166000908152602091909152604090205460ff1690565b6001600160a01b0381166113375760405162461bcd60e51b815260040180806020018281038252602681526020018061164a6026913960400191505060405180910390fd5b6004546040516001600160a01b038084169216907f8be0079c531659141344cd1fd0a4f28419497f9722a3daafe3b4186f6b6457e090600090a3600480546001600160a01b0319166001600160a01b0392909216919091179055565b600d54430380156107b6576113a781611426565b600b81905543600d5560408051918252517fe26ee4870433319e6f01f123f37f6f6823ff4084f5651912025d24930b01bcb69181900360200190a150565b60006b033b2e3c9fd0803ce80000006114176114018585611573565b60026b033b2e3c9fd0803ce80000005b046115d6565b8161141e57fe5b049392505050565b50600b5490565b60006107e182600b54611625565b60006107e182600b546113e5565b6000610d2b83836040518060400160405280601e81526020017f536166654d6174683a207375627472616374696f6e206f766572666c6f770000815250610ea9565b611495828261128b565b156114e7576040805162461bcd60e51b815260206004820152601f60248201527f526f6c65733a206163636f756e7420616c72656164792068617320726f6c6500604482015290519081900360640190fd5b6001600160a01b0316600090815260209190915260409020805460ff19166001179055565b611516828261128b565b6115515760405162461bcd60e51b815260040180806020018281038252602181526020018061176c6021913960400191505060405180910390fd5b6001600160a01b0316600090815260209190915260409020805460ff19169055565b600081158061158e5750508082028282828161158b57fe5b04145b6105e8576040805162461bcd60e51b815260206004820152601460248201527364732d6d6174682d6d756c2d6f766572666c6f7760601b604482015290519081900360640190fd5b808201828110156105e8576040805162461bcd60e51b815260206004820152601460248201527364732d6d6174682d6164642d6f766572666c6f7760601b604482015290519081900360640190fd5b600081611417611641856b033b2e3c9fd0803ce8000000611573565b60028561141156fe4f776e61626c653a206e6577206f776e657220697320746865207a65726f20616464726573734175746f496e6372656d656e74436f696e6167653a2064656372656173656420616c6c6f77616e63652062656c6f77207a65726f4175746f496e6372656d656e74436f696e6167653a207472616e736665722066726f6d20746865207a65726f20616464726573734175746f496e6372656d656e74436f696e6167653a20617070726f76652066726f6d20746865207a65726f20616464726573734175746f496e6372656d656e74436f696e6167653a20617070726f766520746f20746865207a65726f20616464726573734d696e746572526f6c653a2063616c6c657220646f6573206e6f74206861766520746865204d696e74657220726f6c65526f6c65733a206163636f756e7420646f6573206e6f74206861766520726f6c654175746f496e6372656d656e74436f696e6167653a206d696e7420746f20746865207a65726f20616464726573734f776e61626c653a2063616c6c6572206973206e6f7420746865206f776e6572526f6c65733a206163636f756e7420697320746865207a65726f20616464726573734175746f496e6372656d656e74436f696e6167653a207472616e7366657220746f20746865207a65726f20616464726573734175746f496e6372656d656e74436f696e6167653a207472616e7366657220616d6f756e7420657863656564732062616c616e63654175746f496e6372656d656e74436f696e6167653a207472616e73666572206e6f7420616c6c6f7765644175746f496e6372656d656e74436f696e6167653a206275726e2066726f6d20746865207a65726f20616464726573734175746f496e6372656d656e74436f696e6167653a207472616e7366657220616d6f756e74206578636565647320616c6c6f77616e63654175746f496e6372656d656e74436f696e6167653a206275726e20616d6f756e7420657863656564732062616c616e63654175746f496e6372656d656e74436f696e6167653a206275726e20616d6f756e74206578636565647320616c6c6f77616e6365a265627a7a723158202ad29043b3eaac892ec2403f2fd006a9285172ec420d5edf5ac203f796324f8c64736f6c634300050c0032526f6c65733a206163636f756e7420697320746865207a65726f2061646472657373506175736572526f6c653a2063616c6c657220646f6573206e6f742068617665207468652050617573657220726f6c654f776e61626c653a206e6577206f776e657220697320746865207a65726f2061646472657373536569674d616e616765723a20636f696e61676520686173206e6f74206265656e206465706c6f79656420796574526f6c65733a206163636f756e7420646f6573206e6f74206861766520726f6c65536166654d6174683a206d756c7469706c69636174696f6e206f766572666c6f774f776e61626c653a2063616c6c6572206973206e6f7420746865206f776e6572526f6c65733a206163636f756e7420697320746865207a65726f2061646472657373536569674d616e616765723a20636f6d6d697373696f6e2072617465206d7573742062652030206f72206265747765656e20312052415920616e6420302e303120524159536569674d616e616765723a206f6e6c7920544f4e206f722057544f4e2063616e2063616c6c206f6e5472616e73666572536569674d616e616765723a20696e73756666696369616e742062616c616e636520746f20756e7374616b65a265627a7a72315820b75c8786c170e7ca7e78a3178045de3f6abb5ff1d3debb37301b2f81863ab1d364736f6c634300050c003260806040523480156200001157600080fd5b5060405162001e8f38038062001e8f833981810160405260808110156200003757600080fd5b81019080805160405193929190846401000000008211156200005857600080fd5b9083019060208201858111156200006e57600080fd5b82516401000000008111828201881017156200008957600080fd5b82525081516020918201929091019080838360005b83811015620000b85781810151838201526020016200009e565b50505050905090810190601f168015620000e65780820380516001836020036101000a031916815260200191505b50604052602001805160405193929190846401000000008211156200010a57600080fd5b9083019060208201858111156200012057600080fd5b82516401000000008111828201881017156200013b57600080fd5b82525081516020918201929091019080838360005b838110156200016a57818101518382015260200162000150565b50505050905090810190601f168015620001985780820380516001836020036101000a031916815260200191505b50604090815260208201519101519092509050838383838383836000848484601b620001df620001d06001600160e01b03620002ad16565b6001600160e01b03620002b216565b620001f26001600160e01b03620002ad16565b600480546001600160a01b0319166001600160a01b0392831617908190556040519116906000907f8be0079c531659141344cd1fd0a4f28419497f9722a3daafe3b4186f6b6457e0908290a38251620002539060059060208601906200042e565b508151620002699060069060208501906200042e565b506007805460ff90921660ff19928316179055600b959095555050600c9190915543600d55600e80549115159190921617905550620004d098505050505050505050565b335b90565b620002cd8160036200030460201b6200148b1790919060201c565b6040516001600160a01b038216907f6ae172837ea30b801fbfcdd4108aa1d5bf8ff775444fd70256b44e6bf3dfc3f690600090a250565b6200031982826001600160e01b03620003ab16565b156200038657604080517f08c379a000000000000000000000000000000000000000000000000000000000815260206004820152601f60248201527f526f6c65733a206163636f756e7420616c72656164792068617320726f6c6500604482015290519081900360640190fd5b6001600160a01b0316600090815260209190915260409020805460ff19166001179055565b60006001600160a01b0382166200040e576040517f08c379a000000000000000000000000000000000000000000000000000000000815260040180806020018281038252602281526020018062001e6d6022913960400191505060405180910390fd5b506001600160a01b03166000908152602091909152604090205460ff1690565b828054600181600116156101000203166002900490600052602060002090601f016020900481019282601f106200047157805160ff1916838001178555620004a1565b82800160010185558215620004a1579182015b82811115620004a157825182559160200191906001019062000484565b50620004af929150620004b3565b5090565b620002af91905b80821115620004af5760008155600101620004ba565b61198d80620004e06000396000f3fe608060405234801561001057600080fd5b50600436106101a95760003560e01c8063817e9d31116100f9578063a9059cbb11610097578063d4132ee211610071578063d4132ee2146104bf578063dd62ed3e146104c7578063f2fde38b146104f5578063f41e60c51461051b576101a9565b8063a9059cbb14610465578063aa271e1a14610491578063bef97c87146104b7576101a9565b806395d89b41116100d357806395d89b4114610403578063983b2d561461040b5780639865027514610431578063a457c2d714610439576101a9565b8063817e9d31146103ba5780638da5cb5b146103d75780638f32d59b146103fb576101a9565b806340c10f191161016657806370a082311161014057806370a0823114610358578063715018a61461037e57806379cc679014610386578063806b984f146103b2576101a9565b806340c10f191461030557806342966c681461033157806354f703f814610350576101a9565b806306fdde03146101ae578063095ea7b31461022b57806318160ddd1461026b57806323b872dd14610285578063313ce567146102bb57806339509351146102d9575b600080fd5b6101b661053a565b6040805160208082528351818301528351919283929083019185019080838360005b838110156101f05781810151838201526020016101d8565b50505050905090810190601f16801561021d5780820380516001836020036101000a031916815260200191505b509250505060405180910390f35b6102576004803603604081101561024157600080fd5b506001600160a01b0381351690602001356105d0565b604080519115158252519081900360200190f35b6102736105ee565b60408051918252519081900360200190f35b6102576004803603606081101561029b57600080fd5b506001600160a01b03813581169160208101359091169060400135610600565b6102c36106f1565b6040805160ff9092168252519081900360200190f35b610257600480360360408110156102ef57600080fd5b506001600160a01b0381351690602001356106fa565b6102576004803603604081101561031b57600080fd5b506001600160a01b03813516906020013561074e565b61034e6004803603602081101561034757600080fd5b50356107a5565b005b6102736107b9565b6102736004803603602081101561036e57600080fd5b50356001600160a01b03166107bf565b61034e6107e9565b61034e6004803603604081101561039c57600080fd5b506001600160a01b03813516906020013561087a565b610273610888565b610257600480360360208110156103d057600080fd5b503561088e565b6103df610920565b604080516001600160a01b039092168252519081900360200190f35b61025761092f565b6101b6610955565b61034e6004803603602081101561042157600080fd5b50356001600160a01b03166109b6565b61034e610a05565b6102576004803603604081101561044f57600080fd5b506001600160a01b038135169060200135610a17565b6102576004803603604081101561047b57600080fd5b506001600160a01b038135169060200135610a85565b610257600480360360208110156104a757600080fd5b50356001600160a01b0316610afd565b610257610b10565b610273610b19565b610273600480360360408110156104dd57600080fd5b506001600160a01b0381358116916020013516610b1f565b61034e6004803603602081101561050b57600080fd5b50356001600160a01b0316610b4a565b61034e6004803603602081101561053157600080fd5b50351515610b9a565b60058054604080516020601f60026000196101006001881615020190951694909404938401819004810282018101909252828152606093909290918301828280156105c65780601f1061059b576101008083540402835291602001916105c6565b820191906000526020600020905b8154815290600101906020018083116105a957829003601f168201915b5050505050905090565b60006105e46105dd610bf4565b8484610bf8565b5060015b92915050565b60006105fb600a54610cec565b905090565b600061060a610920565b6001600160a01b0316336001600160a01b0316148061062b5750600e5460ff165b6106665760405162461bcd60e51b815260040180806020018281038252602a815260200180611864602a913960400191505060405180910390fd5b610671848484610d32565b6106e78461067d610bf4565b6106e2856040518060600160405280603781526020016118be603791396001600160a01b038a166000908152600960205260408120906106bb610bf4565b6001600160a01b03168152602081019190915260400160002054919063ffffffff610ea916565b610bf8565b5060019392505050565b60075460ff1690565b60006105e4610707610bf4565b846106e28560096000610718610bf4565b6001600160a01b03908116825260208083019390935260409182016000908120918c16815292529020549063ffffffff610f4016565b600061076061075b610bf4565b610afd565b61079b5760405162461bcd60e51b815260040180806020018281038252603081526020018061173c6030913960400191505060405180910390fd5b6105e48383610f9a565b6107b66107b0610bf4565b82611091565b50565b600b5490565b6001600160a01b0381166000908152600860205260408120546107e190610cec565b90505b919050565b6107f161092f565b610830576040805162461bcd60e51b815260206004820181905260248201526000805160206117bb833981519152604482015290519081900360640190fd5b6004546040516000916001600160a01b0316907f8be0079c531659141344cd1fd0a4f28419497f9722a3daafe3b4186f6b6457e0908390a3600480546001600160a01b0319169055565b6108848282611193565b5050565b600d5490565b600061089861092f565b6108d7576040805162461bcd60e51b815260206004820181905260248201526000805160206117bb833981519152604482015290519081900360640190fd5b600b805490839055604080518281526020810185905281517fafc9085bb15d79bc1e9d87807e2fc5f4c2b631088cb3e38c86cb627c12a0e430929181900390910190a150919050565b6004546001600160a01b031690565b6004546000906001600160a01b0316610946610bf4565b6001600160a01b031614905090565b60068054604080516020601f60026000196101006001881615020190951694909404938401819004810282018101909252828152606093909290918301828280156105c65780601f1061059b576101008083540402835291602001916105c6565b6109c161075b610bf4565b6109fc5760405162461bcd60e51b815260040180806020018281038252603081526020018061173c6030913960400191505060405180910390fd5b6107b6816111fb565b610a15610a10610bf4565b611243565b565b60006105e4610a24610bf4565b846106e2856040518060600160405280603481526020016116706034913960096000610a4e610bf4565b6001600160a01b03908116825260208083019390935260409182016000908120918d1681529252902054919063ffffffff610ea916565b6000610a8f610920565b6001600160a01b0316336001600160a01b03161480610ab05750600e5460ff165b610aeb5760405162461bcd60e51b815260040180806020018281038252602a815260200180611864602a913960400191505060405180910390fd5b6105e4610af6610bf4565b8484610d32565b60006107e160038363ffffffff61128b16565b600e5460ff1690565b600c5490565b6001600160a01b03918216600090815260096020908152604080832093909416825291909152205490565b610b5261092f565b610b91576040805162461bcd60e51b815260206004820181905260248201526000805160206117bb833981519152604482015290519081900360640190fd5b6107b6816112f2565b610ba261092f565b610be1576040805162461bcd60e51b815260206004820181905260248201526000805160206117bb833981519152604482015290519081900360640190fd5b600e805460ff1916911515919091179055565b3390565b610c00611393565b6001600160a01b038316610c455760405162461bcd60e51b81526004018080602001828103825260338152602001806116d86033913960400191505060405180910390fd5b6001600160a01b038216610c8a5760405162461bcd60e51b815260040180806020018281038252603181526020018061170b6031913960400191505060405180910390fd5b6001600160a01b03808416600081815260096020908152604080832094871680845294825291829020859055815185815291517f8c5be1e5ebec7d5bd14f71427d1e84f3dd0314c0f7b2291e5b200ac8c7c3b9259281900390910190a3505050565b600081610cfb575060006107e4565b600d54430380610d1957610d1183600b546113e5565b9150506107e4565b610d2b83610d2683611426565b6113e5565b9392505050565b610d3a611393565b6001600160a01b038316610d7f5760405162461bcd60e51b81526004018080602001828103825260348152602001806116a46034913960400191505060405180910390fd5b6001600160a01b038216610dc45760405162461bcd60e51b81526004018080602001828103825260328152602001806117fd6032913960400191505060405180910390fd5b6000610dcf8261142d565b9050610e148160405180606001604052806035815260200161182f603591396001600160a01b038716600090815260086020526040902054919063ffffffff610ea916565b6001600160a01b038086166000908152600860205260408082209390935590851681522054610e49908263ffffffff610f4016565b6001600160a01b0380851660008181526008602052604090209290925585167fddf252ad1be2c89b69c2b068fc378daa952ba7f163c4a11628f55a4df523b3ef610e928461143b565b60408051918252519081900360200190a350505050565b60008184841115610f385760405162461bcd60e51b81526004018080602001828103825283818151815260200191508051906020019080838360005b83811015610efd578181015183820152602001610ee5565b50505050905090810190601f168015610f2a5780820380516001836020036101000a031916815260200191505b509250505060405180910390fd5b505050900390565b600082820183811015610d2b576040805162461bcd60e51b815260206004820152601b60248201527f536166654d6174683a206164646974696f6e206f766572666c6f770000000000604482015290519081900360640190fd5b610fa2611393565b6001600160a01b038216610fe75760405162461bcd60e51b815260040180806020018281038252602e81526020018061178d602e913960400191505060405180910390fd5b6000610ff28261142d565b600a54909150611008908263ffffffff610f4016565b600a556001600160a01b038316600090815260086020526040902054611034908263ffffffff610f4016565b6001600160a01b038416600081815260086020526040812092909255907fddf252ad1be2c89b69c2b068fc378daa952ba7f163c4a11628f55a4df523b3ef61107b8461143b565b60408051918252519081900360200190a3505050565b611099611393565b6001600160a01b0382166110de5760405162461bcd60e51b815260040180806020018281038252603081526020018061188e6030913960400191505060405180910390fd5b60006110e98261142d565b905061112e816040518060600160405280603181526020016118f5603191396001600160a01b038616600090815260086020526040902054919063ffffffff610ea916565b6001600160a01b038416600090815260086020526040902055600a5461115a908263ffffffff61144916565b600a5560006001600160a01b0384167fddf252ad1be2c89b69c2b068fc378daa952ba7f163c4a11628f55a4df523b3ef61107b8461143b565b61119b611393565b6111a58282611091565b6111ad61092f565b61088457610884826111bd610bf4565b6106e284604051806060016040528060338152602001611926603391396001600160a01b0388166000908152600960205260408120906106bb610bf4565b61120c60038263ffffffff61148b16565b6040516001600160a01b038216907f6ae172837ea30b801fbfcdd4108aa1d5bf8ff775444fd70256b44e6bf3dfc3f690600090a250565b61125460038263ffffffff61150c16565b6040516001600160a01b038216907fe94479a9f7e1952cc78f2d6baab678adc1b772d936c6583def489e524cb6669290600090a250565b60006001600160a01b0382166112d25760405162461bcd60e51b81526004018080602001828103825260228152602001806117db6022913960400191505060405180910390fd5b506001600160a01b03166000908152602091909152604090205460ff1690565b6001600160a01b0381166113375760405162461bcd60e51b815260040180806020018281038252602681526020018061164a6026913960400191505060405180910390fd5b6004546040516001600160a01b038084169216907f8be0079c531659141344cd1fd0a4f28419497f9722a3daafe3b4186f6b6457e090600090a3600480546001600160a01b0319166001600160a01b0392909216919091179055565b600d54430380156107b6576113a781611426565b600b81905543600d5560408051918252517fe26ee4870433319e6f01f123f37f6f6823ff4084f5651912025d24930b01bcb69181900360200190a150565b60006b033b2e3c9fd0803ce80000006114176114018585611573565b60026b033b2e3c9fd0803ce80000005b046115d6565b8161141e57fe5b049392505050565b50600b5490565b60006107e182600b54611625565b60006107e182600b546113e5565b6000610d2b83836040518060400160405280601e81526020017f536166654d6174683a207375627472616374696f6e206f766572666c6f770000815250610ea9565b611495828261128b565b156114e7576040805162461bcd60e51b815260206004820152601f60248201527f526f6c65733a206163636f756e7420616c72656164792068617320726f6c6500604482015290519081900360640190fd5b6001600160a01b0316600090815260209190915260409020805460ff19166001179055565b611516828261128b565b6115515760405162461bcd60e51b815260040180806020018281038252602181526020018061176c6021913960400191505060405180910390fd5b6001600160a01b0316600090815260209190915260409020805460ff19169055565b600081158061158e5750508082028282828161158b57fe5b04145b6105e8576040805162461bcd60e51b815260206004820152601460248201527364732d6d6174682d6d756c2d6f766572666c6f7760601b604482015290519081900360640190fd5b808201828110156105e8576040805162461bcd60e51b815260206004820152601460248201527364732d6d6174682d6164642d6f766572666c6f7760601b604482015290519081900360640190fd5b600081611417611641856b033b2e3c9fd0803ce8000000611573565b60028561141156fe4f776e61626c653a206e6577206f776e657220697320746865207a65726f20616464726573734175746f496e6372656d656e74436f696e6167653a2064656372656173656420616c6c6f77616e63652062656c6f77207a65726f4175746f496e6372656d656e74436f696e6167653a207472616e736665722066726f6d20746865207a65726f20616464726573734175746f496e6372656d656e74436f696e6167653a20617070726f76652066726f6d20746865207a65726f20616464726573734175746f496e6372656d656e74436f696e6167653a20617070726f766520746f20746865207a65726f20616464726573734d696e746572526f6c653a2063616c6c657220646f6573206e6f74206861766520746865204d696e74657220726f6c65526f6c65733a206163636f756e7420646f6573206e6f74206861766520726f6c654175746f496e6372656d656e74436f696e6167653a206d696e7420746f20746865207a65726f20616464726573734f776e61626c653a2063616c6c6572206973206e6f7420746865206f776e6572526f6c65733a206163636f756e7420697320746865207a65726f20616464726573734175746f496e6372656d656e74436f696e6167653a207472616e7366657220746f20746865207a65726f20616464726573734175746f496e6372656d656e74436f696e6167653a207472616e7366657220616d6f756e7420657863656564732062616c616e63654175746f496e6372656d656e74436f696e6167653a207472616e73666572206e6f7420616c6c6f7765644175746f496e6372656d656e74436f696e6167653a206275726e2066726f6d20746865207a65726f20616464726573734175746f496e6372656d656e74436f696e6167653a207472616e7366657220616d6f756e74206578636565647320616c6c6f77616e63654175746f496e6372656d656e74436f696e6167653a206275726e20616d6f756e7420657863656564732062616c616e63654175746f496e6372656d656e74436f696e6167653a206275726e20616d6f756e74206578636565647320616c6c6f77616e6365a265627a7a723158202ad29043b3eaac892ec2403f2fd006a9285172ec420d5edf5ac203f796324f8c64736f6c634300050c0032526f6c65733a206163636f756e7420697320746865207a65726f2061646472657373526f6c65733a206163636f756e7420697320746865207a65726f2061646472657373",
  "source": "pragma solidity ^0.5.12;\n\nimport { Ownable } from \"../../../node_modules/openzeppelin-solidity/contracts/ownership/Ownable.sol\";\nimport { Pausable } from \"../../../node_modules/openzeppelin-solidity/contracts/lifecycle/Pausable.sol\";\nimport { SafeMath } from \"../../../node_modules/openzeppelin-solidity/contracts/math/SafeMath.sol\";\nimport { ERC20Mintable } from \"../../../node_modules/openzeppelin-solidity/contracts/token/ERC20/ERC20Mintable.sol\";\nimport { IERC20 } from \"../../../node_modules/openzeppelin-solidity/contracts/token/ERC20/IERC20.sol\";\nimport { SafeERC20 } from \"../../../node_modules/openzeppelin-solidity/contracts/token/ERC20/SafeERC20.sol\";\n\nimport { DSMath } from \"../../../node_modules/coinage-token/contracts/lib/DSMath.sol\";\nimport { CustomIncrementCoinageMock } from \"../../../node_modules/coinage-token/flatten.sol\";\n\nimport { AuthController } from \"../tokens/AuthController.sol\";\n\nimport { RootChainI } from \"../../RootChainI.sol\";\n\nimport { SeigManagerI } from \"../interfaces/SeigManagerI.sol\";\nimport { RootChainRegistryI } from \"../interfaces/RootChainRegistryI.sol\";\nimport { DepositManagerI } from \"../interfaces/DepositManagerI.sol\";\nimport { PowerTONI } from \"../interfaces/PowerTONI.sol\";\n\n\n\n/**\n * @dev SeigManager gives seigniorage to operator and WTON holders.\n * For each commit by operator, operator (or user) will get seigniorage\n * in propotion to the staked (or delegated) amount of WTON.\n *\n * [Tokens]\n * - {tot} tracks total staked or delegated WTON of each RootChain contract (and depositor?).\n * - {coinages[rootchain]} tracks staked or delegated WTON of user or operator to a RootChain contract.\n *\n * For each commit by operator,\n *  1. increases all root chains' balance of {tot} by (the staked amount of WTON) /\n *     (total supply of TON and WTON) * (num blocks * seigniorage per block).\n *  2. increases all depositors' blanace of {coinages[rootchain]} in proportion to the staked amount of WTON,\n *     up to the increased amount in step (1).\n *  3. set the root chain's balance of {committed} as the root chain's {tot} balance.\n *\n * For each stake or delegate with amount of {v} to a RootChain,\n *  1. mint {v} {coinages[rootchain]} tokens to the account\n *  2. mint {v} {tot} tokens to the root chain contract\n *\n * For each unstake or undelegate (or get rewards) with amount of {v} to a RootChain,\n *  1. burn {v} {coinages[rootchain]} tokens from the account\n *  2. burn {v + } {tot} tokens from the root chain contract,\n *   where  = SEIGS * staked ratio of the root chian * withdrawal ratio of the account\n *     - SEIGS                              = tot total supply - tot total supply at last commit from the root chain\n *     - staked ratio of the root chian     = tot balance of the root chain / tot total supply\n *     - withdrawal ratio of the account  = amount to withdraw / total supply of coinage\n *\n */\ncontract SeigManager is SeigManagerI, DSMath, Ownable, Pausable, AuthController {\n  using SafeMath for uint256;\n  using SafeERC20 for ERC20Mintable;\n\n  //////////////////////////////\n  // Common contracts\n  //////////////////////////////\n\n  RootChainRegistryI internal _registry;\n  DepositManagerI internal _depositManager;\n  PowerTONI internal _powerton;\n\n  //////////////////////////////\n  // Token-related\n  //////////////////////////////\n\n  // TON token contract\n  IERC20 internal _ton;\n\n  // WTON token contract\n  ERC20Mintable internal _wton; // TODO: use mintable erc20!\n\n  // track total deposits of each root chain.\n  CustomIncrementCoinageMock internal _tot;\n\n  // coinage token for each root chain.\n  mapping (address => CustomIncrementCoinageMock) internal _coinages;\n\n  // commission rates in RAY\n  mapping (address => uint256) internal _commissionRates;\n\n  // whether commission is negative or not (default=possitive)\n  mapping (address => bool) internal _isCommissionRateNegative;\n\n  // last commit block number for each root chain.\n  mapping (address => uint256) internal _lastCommitBlock;\n\n  // total seigniorage per block\n  uint256 internal _seigPerBlock;\n\n  // the block number when seigniorages are given\n  uint256 internal _lastSeigBlock;\n\n  // block number when paused or unpaused\n  uint256 internal _pausedBlock;\n  uint256 internal _unpausedBlock;\n\n  //////////////////////////////\n  // Constants\n  //////////////////////////////\n\n  uint256 constant internal _DEFAULT_FACTOR = 10 ** 27;\n  uint256 constant public POWER_TON_NUMERATOR = 5;\n  uint256 constant public POWER_TON_DENOMINATOR = 10;\n\n  uint256 constant public MAX_VALID_COMMISSION = 10 ** 27; // 1 RAY\n  uint256 constant public MIN_VALID_COMMISSION = 10 ** 25; // 0.01 RAY\n\n  //////////////////////////////\n  // Modifiers\n  //////////////////////////////\n\n  modifier onlyRegistry() {\n    require(msg.sender == address(_registry));\n    _;\n  }\n\n  modifier onlyRegistryOrOperator(address rootchain) {\n    require(msg.sender == address(_registry) || msg.sender == RootChainI(rootchain).operator());\n    _;\n  }\n\n  modifier onlyDepositManager() {\n    require(msg.sender == address(_depositManager));\n    _;\n  }\n\n  modifier onlyRootChain(address rootchain) {\n    require(_registry.rootchains(rootchain));\n    _;\n  }\n\n  modifier checkCoinage(address rootchain) {\n    require(address(_coinages[rootchain]) != address(0), \"SeigManager: coinage has not been deployed yet\");\n    _;\n  }\n\n  //////////////////////////////\n  // Events\n  //////////////////////////////\n\n  event CoinageCreated(address indexed rootchain, address coinage);\n  event SeigGiven(address indexed rootchain, uint256 totalSeig, uint256 stakedSeig, uint256 unstakedSeig, uint256 powertonSeig);\n  event Comitted(address indexed rootchain);\n  event CommissionRateSet(address indexed rootchain, uint256 previousRate, uint256 newRate);\n\n  //////////////////////////////\n  // Constuctor\n  //////////////////////////////\n\n  constructor (\n    ERC20Mintable ton,\n    ERC20Mintable wton,\n    RootChainRegistryI registry,\n    DepositManagerI depositManager,\n    uint256 seigPerBlock\n  ) public {\n    _ton = ton;\n    _wton = wton;\n    _registry = registry;\n    _depositManager = depositManager;\n    _seigPerBlock = seigPerBlock;\n\n    _tot = new CustomIncrementCoinageMock(\n      \"\",\n      \"\",\n      _DEFAULT_FACTOR,\n      false\n    );\n\n    _lastSeigBlock = block.number;\n  }\n\n  //////////////////////////////\n  // Override Pausable\n  //////////////////////////////\n\n  function pause() public onlyPauser whenNotPaused {\n    _pausedBlock = block.number;\n    super.pause();\n  }\n\n  /**\n   * @dev Called by a pauser to unpause, returns to normal state.\n   */\n  function unpause() public onlyPauser whenPaused {\n    _unpausedBlock = block.number;\n    super.unpause();\n  }\n\n  //////////////////////////////\n  // External functions\n  //////////////////////////////\n\n  /**\n   * @dev set PowerTON contract, only by owner.\n   */\n  function setPowerTON(PowerTONI powerton) external onlyOwner {\n    _powerton = powerton;\n  }\n\n\n  /**\n   * @dev deploy coinage token for the root chain.\n   */\n  function deployCoinage(address rootchain) external onlyRegistry returns (bool) {\n    // short circuit if already coinage is deployed\n    if (address(_coinages[rootchain]) != address(0)) {\n      return false;\n    }\n\n    // create new coinage token for the root chain contract\n    if (address(_coinages[rootchain]) == address(0)) {\n      _coinages[rootchain] = new CustomIncrementCoinageMock(\n        \"\",\n        \"\",\n        _DEFAULT_FACTOR,\n        false\n      );\n      _lastCommitBlock[rootchain] = block.number;\n      emit CoinageCreated(rootchain, address(_coinages[rootchain]));\n    }\n\n    return true;\n  }\n\n  function setCommissionRate(\n    address rootchain,\n    uint256 commissionRate,\n    bool isCommissionRateNegative\n  )\n    external\n    onlyRegistryOrOperator(rootchain)\n    returns (bool)\n  {\n    // check commission range\n    require(\n      (commissionRate == 0) ||\n      (MIN_VALID_COMMISSION <= commissionRate && commissionRate <= MAX_VALID_COMMISSION),\n      \"SeigManager: commission rate must be 0 or between 1 RAY and 0.01 RAY\"\n    );\n\n    uint256 previous = _commissionRates[rootchain];\n    _commissionRates[rootchain] = commissionRate;\n    _isCommissionRateNegative[rootchain] = isCommissionRateNegative;\n\n    emit CommissionRateSet(rootchain, previous, commissionRate);\n\n    return true;\n  }\n\n  /**\n   * @dev Callback for a new commit\n   */\n  function onCommit()\n    external\n    checkCoinage(msg.sender)\n    returns (bool)\n  {\n    // short circuit if paused\n    if (paused()) {\n      return true;\n    }\n\n    _increaseTot();\n\n    _lastCommitBlock[msg.sender] = block.number;\n\n    // 2. increase total supply of {coinages[rootchain]}\n    CustomIncrementCoinageMock coinage = _coinages[msg.sender];\n\n    uint256 prevTotalSupply = coinage.totalSupply();\n    uint256 nextTotalSupply = _tot.balanceOf(msg.sender);\n\n    // short circuit if there is no seigs for the root chain\n    if (prevTotalSupply >= nextTotalSupply) {\n      emit Comitted(msg.sender);\n      return true;\n    }\n\n    uint256 seigs = nextTotalSupply - prevTotalSupply;\n    address operator = RootChainI(msg.sender).operator();\n    uint256 operatorSeigs;\n\n    // calculate commission amount\n    bool isCommissionRateNegative = _isCommissionRateNegative[msg.sender];\n\n    (nextTotalSupply, operatorSeigs) = _calcSeigsDistribution(\n      coinage,\n      prevTotalSupply,\n      seigs,\n      isCommissionRateNegative,\n      operator\n    );\n\n    // gives seigniorages to the root chain as coinage\n    coinage.setFactor(\n      _calcNewFactor(\n        prevTotalSupply,\n        nextTotalSupply,\n        coinage.factor()\n      )\n    );\n\n    // give commission to operator or delegators\n    if (operatorSeigs != 0) {\n      if (isCommissionRateNegative) {\n        // TODO: adjust arithmetic error\n        // burn by \n        coinage.burnFrom(operator, operatorSeigs);\n      } else {\n        coinage.mint(operator, operatorSeigs);\n      }\n    }\n\n    _wton.mint(address(_depositManager), seigs);\n\n    emit Comitted(msg.sender);\n\n    return true;\n  }\n\n  function _calcSeigsDistribution(\n    CustomIncrementCoinageMock coinage,\n    uint256 prevTotalSupply,\n    uint256 seigs,\n    bool isCommissionRateNegative,\n    address operator\n  ) internal returns (\n    uint256 nextTotalSupply,\n    uint256 operatorSeigs\n  ) {\n    uint256 commissionRate = _commissionRates[msg.sender];\n\n    nextTotalSupply = prevTotalSupply + seigs;\n\n    // short circuit if there is no commission rate\n    if (commissionRate == 0) {\n      return (nextTotalSupply, operatorSeigs);\n    }\n\n    // if commission rate is possitive\n    if (!isCommissionRateNegative) {\n      operatorSeigs = rmul(seigs, commissionRate); // additional seig for operator\n      nextTotalSupply = nextTotalSupply.sub(operatorSeigs);\n      return (nextTotalSupply, operatorSeigs);\n    }\n\n    // short circuit if there is no previous total deposit (meanning, there is no deposit)\n    if (prevTotalSupply == 0) {\n      return (nextTotalSupply, operatorSeigs);\n    }\n\n    // See negative commission distribution formular here: TBD\n    uint256 operatorBalance = coinage.balanceOf(operator);\n\n    // short circuit if there is no operator deposit\n    if (operatorBalance == 0) {\n      return (nextTotalSupply, operatorSeigs);\n    }\n\n    uint256 operatorRate = rdiv(operatorBalance, prevTotalSupply);\n\n    // : insufficient seig for operator\n    operatorSeigs = rmul(\n      rmul(seigs, operatorRate), // seigs for operator\n      commissionRate\n    );\n\n    // :\n    uint256 delegatorSeigs = operatorRate == RAY\n      ? operatorSeigs\n      : rdiv(operatorSeigs, RAY - operatorRate);\n\n    // :\n    operatorSeigs = operatorRate == RAY\n      ? operatorSeigs\n      : operatorSeigs + rmul(delegatorSeigs, operatorRate);\n\n    nextTotalSupply = nextTotalSupply.add(delegatorSeigs);\n\n    return (nextTotalSupply, operatorSeigs);\n  }\n\n  /**\n   * @dev Callback for a token transfer\n   */\n  function onTransfer(address sender, address recipient, uint256 amount) external returns (bool) {\n    require(msg.sender == address(_ton) || msg.sender == address(_wton),\n      \"SeigManager: only TON or WTON can call onTransfer\");\n\n    if (!paused()) {\n      _increaseTot();\n    }\n\n    return true;\n  }\n\n  /**\n   * @dev Callback for a new deposit\n   */\n  function onDeposit(address rootchain, address account, uint256 amount)\n    external\n    onlyDepositManager\n    checkCoinage(rootchain)\n    returns (bool)\n  {\n    _tot.mint(rootchain, amount);\n    _coinages[rootchain].mint(account, amount);\n    if (address(_powerton) != address(0)) {\n      _powerton.onDeposit(rootchain, account, amount);\n    }\n    return true;\n  }\n\n  // DEV ONLY\n  event UnstakeLog(uint coinageBurnAmount, uint totBurnAmount);\n\n  function onWithdraw(address rootchain, address account, uint256 amount)\n    external\n    onlyDepositManager\n    checkCoinage(rootchain)\n    returns (bool)\n  {\n    require(_coinages[rootchain].balanceOf(account) >= amount, \"SeigManager: insufficiant balance to unstake\");\n\n    // burn {v + } {tot} tokens to the root chain contract,\n    uint256 totAmount = _additionalTotBurnAmount(rootchain, account, amount);\n    _tot.burnFrom(rootchain, amount.add(totAmount));\n\n    // burn {v} {coinages[rootchain]} tokens to the account\n    _coinages[rootchain].burnFrom(account, amount);\n\n    if (address(_powerton) != address(0)) {\n      _powerton.onWithdraw(rootchain, account, amount);\n    }\n\n    emit UnstakeLog(amount, totAmount);\n\n    return true;\n  }\n\n  function additionalTotBurnAmount(address rootchain, address account, uint256 amount)\n    external\n    view\n    returns (uint256 totAmount)\n  {\n    return _additionalTotBurnAmount(rootchain, account, amount);\n  }\n\n  // return , where  = (tot.balanceOf(rootchain) - coinages[rootchain].totalSupply()) * (amount / coinages[rootchain].totalSupply())\n  function _additionalTotBurnAmount(address rootchain, address account, uint256 amount)\n    internal\n    view\n    returns (uint256 totAmount)\n  {\n    uint256 coinageTotalSupply = _coinages[rootchain].totalSupply();\n    uint256 totBalalnce = _tot.balanceOf(rootchain);\n\n    // NOTE: arithamtic operations (mul and div) make some errors, so we gonna adjust them under 1e-9 WTON.\n    //       note that coinageTotalSupply and totBalalnce are RAY values.\n    if (coinageTotalSupply > totBalalnce && coinageTotalSupply - totBalalnce < WAD) {\n      return 0;\n    }\n\n    return rdiv(\n      rmul(\n        totBalalnce.sub(coinageTotalSupply),\n        amount\n      ),\n      coinageTotalSupply\n    );\n  }\n\n  //////////////////////////////\n  // Public and internal functions\n  //////////////////////////////\n\n  function uncomittedStakeOf(address rootchain, address account) external view returns (uint256) {\n    CustomIncrementCoinageMock coinage = _coinages[rootchain];\n\n    uint256 prevFactor = coinage.factor();\n    uint256 prevTotalSupply = coinage.totalSupply();\n    uint256 nextTotalSupply = _tot.balanceOf(rootchain);\n    uint256 newFactor = _calcNewFactor(prevTotalSupply, nextTotalSupply, prevFactor);\n\n    uint256 uncomittedBalance = rmul(\n      rdiv(coinage.balanceOf(account), prevFactor),\n      newFactor\n    );\n\n    return uncomittedBalance\n      .sub(_coinages[rootchain].balanceOf(account));\n  }\n\n  function stakeOf(address rootchain, address account) external view returns (uint256) {\n    return _coinages[rootchain].balanceOf(account);\n  }\n\n  function _calcNewFactor(uint256 source, uint256 target, uint256 oldFactor) internal pure returns (uint256) {\n    return rdiv(rmul(target, oldFactor), source);\n  }\n\n  // DEV ONLY\n  event CommitLog1(uint256 totalStakedAmount, uint256 totalSupplyOfWTON, uint256 prevTotalSupply, uint256 nextTotalSupply);\n\n  function _increaseTot() internal returns (bool) {\n    // short circuit if already seigniorage is given.\n    if (block.number == _lastSeigBlock) {\n      return false;\n    }\n\n    if (_tot.totalSupply() == 0) {\n      _lastSeigBlock = block.number;\n      return false;\n    }\n\n    uint256 prevTotalSupply;\n    uint256 nextTotalSupply;\n\n    // 1. increase total supply of {tot} by maximum seigniorages * staked rate\n    //    staked rate = total staked amount / total supply of (W)TON\n\n    prevTotalSupply = _tot.totalSupply();\n\n    // maximum seigniorages\n    uint256 maxSeig = _calcNumSeigBlocks().mul(_seigPerBlock);\n\n    // total supply of (W)TON\n    uint256 tos = _ton.totalSupply()\n      .sub(_ton.balanceOf(address(_wton)))\n      .mul(10 ** 9)                                       // convert TON total supply into ray\n      .add(_wton.totalSupply())                           // add WTON total supply\n      .add(_tot.totalSupply()).sub(_wton.totalSupply());  // consider additional TOT balance as total supply\n\n    // maximum seigniorages * staked rate\n    uint256 stakedSeig = rdiv(\n      rmul(\n        maxSeig,\n        // total staked amount\n        _tot.totalSupply()\n      ),\n      tos\n    );\n\n    nextTotalSupply = prevTotalSupply.add(stakedSeig);\n    _lastSeigBlock = block.number;\n\n    _tot.setFactor(_calcNewFactor(prevTotalSupply, nextTotalSupply, _tot.factor()));\n\n    // TODO: reduce computation\n    // DEV ONLY\n    emit CommitLog1(\n      _tot.totalSupply(),\n      tos,\n      prevTotalSupply,\n      nextTotalSupply\n    );\n\n    uint256 unstakedSeig = maxSeig.sub(stakedSeig);\n    uint256 powertonSeig;\n\n    if (address(_powerton) != address(0)) {\n      // out of gas..?\n      // powertonSeig = unstakedSeig.mul(POWER_TON_NUMERATOR).div(POWER_TON_DENOMINATOR);\n      powertonSeig = unstakedSeig * POWER_TON_NUMERATOR / POWER_TON_DENOMINATOR;\n\n      _wton.mint(address(_powerton), powertonSeig);\n    }\n\n    emit SeigGiven(msg.sender, maxSeig, stakedSeig, unstakedSeig, powertonSeig);\n\n    return true;\n  }\n\n  function _calcNumSeigBlocks() internal returns (uint256) {\n    require(!paused());\n\n    uint256 span = block.number - _lastSeigBlock;\n    if (_unpausedBlock < _lastSeigBlock) {\n      return span;\n    }\n\n    return span - (_unpausedBlock - _pausedBlock);\n  }\n\n  //////////////////////////////\n  // Storage getters\n  //////////////////////////////\n\n  // solium-disable\n  function registry() external view returns (address) { return address(_registry); }\n  function depositManager() external view returns (address) { return address(_depositManager); }\n  function ton() external view returns (address) { return address(_ton); }\n  function wton() external view returns (address) { return address(_wton); }\n  function powerton() external view returns (address) { return address(_powerton); }\n  function tot() external view returns (address) { return address(_tot); }\n  function coinages(address rootchain) external view returns (address) { return address(_coinages[rootchain]); }\n  function commissionRates(address rootchain) external view returns (uint256) { return _commissionRates[rootchain]; }\n  function isCommissionRateNegative(address rootchain) external view returns (bool) { return _isCommissionRateNegative[rootchain]; }\n\n  function lastCommitBlock(address rootchain) external view returns (uint256) { return _lastCommitBlock[rootchain]; }\n  function seigPerBlock() external view returns (uint256) { return _seigPerBlock; }\n  function lastSeigBlock() external view returns (uint256) { return _lastSeigBlock; }\n  function pausedBlock() external view returns (uint256) { return _pausedBlock; }\n  function unpausedBlock() external view returns (uint256) { return _unpausedBlock; }\n\n  function DEFAULT_FACTOR() external view returns (uint256) { return _DEFAULT_FACTOR; }\n  // solium-enable\n}\n",
  "sourcePath": "/Users/hwangjaeseung/workspace/plasma-evm-contracts/contracts/stake/managers/SeigManager.sol",
  "compiler": {
    "name": "solc",
    "version": "0.5.12+commit.7709ece9.Emscripten.clang"
  },
  "schemaVersion": "3.2.0",
  "updatedAt": "2020-07-03T05:58:27.446Z",
  "devdoc": {
    "details": "SeigManager gives seigniorage to operator and WTON holders. For each commit by operator, operator (or user) will get seigniorage in propotion to the staked (or delegated) amount of WTON. * [Tokens] - {tot} tracks total staked or delegated WTON of each RootChain contract (and depositor?). - {coinages[rootchain]} tracks staked or delegated WTON of user or operator to a RootChain contract. * For each commit by operator, 1. increases all root chains' balance of {tot} by (the staked amount of WTON) /    (total supply of TON and WTON) * (num blocks * seigniorage per block). 2. increases all depositors' blanace of {coinages[rootchain]} in proportion to the staked amount of WTON,    up to the increased amount in step (1). 3. set the root chain's balance of {committed} as the root chain's {tot} balance. * For each stake or delegate with amount of {v} to a RootChain, 1. mint {v} {coinages[rootchain]} tokens to the account 2. mint {v} {tot} tokens to the root chain contract * For each unstake or undelegate (or get rewards) with amount of {v} to a RootChain, 1. burn {v} {coinages[rootchain]} tokens from the account 2. burn {v + } {tot} tokens from the root chain contract,  where  = SEIGS * staked ratio of the root chian * withdrawal ratio of the account    - SEIGS                              = tot total supply - tot total supply at last commit from the root chain    - staked ratio of the root chian     = tot balance of the root chain / tot total supply    - withdrawal ratio of the account  = amount to withdraw / total supply of coinage ",
    "methods": {
      "deployCoinage(address)": {
        "details": "deploy coinage token for the root chain."
      },
      "isOwner()": {
        "details": "Returns true if the caller is the current owner."
      },
      "onCommit()": {
        "details": "Callback for a new commit"
      },
      "onDeposit(address,address,uint256)": {
        "details": "Callback for a new deposit"
      },
      "onTransfer(address,address,uint256)": {
        "details": "Callback for a token transfer"
      },
      "owner()": {
        "details": "Returns the address of the current owner."
      },
      "paused()": {
        "details": "Returns true if the contract is paused, and false otherwise."
      },
      "renounceOwnership()": {
        "details": "Leaves the contract without owner. It will not be possible to call `onlyOwner` functions anymore. Can only be called by the current owner.     * NOTE: Renouncing ownership will leave the contract without an owner, thereby removing any functionality that is only available to the owner."
      },
      "setPowerTON(address)": {
        "details": "set PowerTON contract, only by owner."
      },
      "transferOwnership(address)": {
        "details": "Transfers ownership of the contract to a new account (`newOwner`). Can only be called by the current owner."
      },
      "unpause()": {
        "details": "Called by a pauser to unpause, returns to normal state."
      }
    }
  },
  "userdoc": {
    "methods": {
      "constructor": "///////////////////////////",
      "pause()": {
        "notice": "///////////////////////////"
      },
      "registry()": {
        "notice": "///////////////////////////"
      },
      "uncomittedStakeOf(address,address)": {
        "notice": "///////////////////////////"
      }
    }
  }
}