{
  "contractName": "WTON",
  "abi": [
    {
      "inputs": [
        {
          "internalType": "contract ERC20Mintable",
          "name": "_ton",
          "type": "address"
        }
      ],
      "payable": false,
      "stateMutability": "nonpayable",
      "type": "constructor"
    },
    {
      "anonymous": false,
      "inputs": [
        {
          "indexed": true,
          "internalType": "address",
          "name": "owner",
          "type": "address"
        },
        {
          "indexed": true,
          "internalType": "address",
          "name": "spender",
          "type": "address"
        },
        {
          "indexed": false,
          "internalType": "uint256",
          "name": "value",
          "type": "uint256"
        }
      ],
      "name": "Approval",
      "type": "event"
    },
    {
      "anonymous": false,
      "inputs": [
        {
          "indexed": true,
          "internalType": "address",
          "name": "account",
          "type": "address"
        }
      ],
      "name": "MinterAdded",
      "type": "event"
    },
    {
      "anonymous": false,
      "inputs": [
        {
          "indexed": true,
          "internalType": "address",
          "name": "account",
          "type": "address"
        }
      ],
      "name": "MinterRemoved",
      "type": "event"
    },
    {
      "anonymous": false,
      "inputs": [
        {
          "indexed": true,
          "internalType": "address",
          "name": "previousOwner",
          "type": "address"
        },
        {
          "indexed": true,
          "internalType": "address",
          "name": "newOwner",
          "type": "address"
        }
      ],
      "name": "OwnershipTransferred",
      "type": "event"
    },
    {
      "anonymous": false,
      "inputs": [
        {
          "indexed": true,
          "internalType": "address",
          "name": "from",
          "type": "address"
        },
        {
          "indexed": true,
          "internalType": "address",
          "name": "to",
          "type": "address"
        },
        {
          "indexed": false,
          "internalType": "uint256",
          "name": "value",
          "type": "uint256"
        }
      ],
      "name": "Transfer",
      "type": "event"
    },
    {
      "constant": false,
      "inputs": [
        {
          "internalType": "address",
          "name": "account",
          "type": "address"
        }
      ],
      "name": "addMinter",
      "outputs": [],
      "payable": false,
      "stateMutability": "nonpayable",
      "type": "function"
    },
    {
      "constant": true,
      "inputs": [
        {
          "internalType": "address",
          "name": "owner",
          "type": "address"
        },
        {
          "internalType": "address",
          "name": "spender",
          "type": "address"
        }
      ],
      "name": "allowance",
      "outputs": [
        {
          "internalType": "uint256",
          "name": "",
          "type": "uint256"
        }
      ],
      "payable": false,
      "stateMutability": "view",
      "type": "function"
    },
    {
      "constant": false,
      "inputs": [
        {
          "internalType": "address",
          "name": "spender",
          "type": "address"
        },
        {
          "internalType": "uint256",
          "name": "amount",
          "type": "uint256"
        }
      ],
      "name": "approve",
      "outputs": [
        {
          "internalType": "bool",
          "name": "",
          "type": "bool"
        }
      ],
      "payable": false,
      "stateMutability": "nonpayable",
      "type": "function"
    },
    {
      "constant": false,
      "inputs": [
        {
          "internalType": "address",
          "name": "spender",
          "type": "address"
        },
        {
          "internalType": "uint256",
          "name": "amount",
          "type": "uint256"
        },
        {
          "internalType": "bytes",
          "name": "data",
          "type": "bytes"
        }
      ],
      "name": "approveAndCall",
      "outputs": [
        {
          "internalType": "bool",
          "name": "",
          "type": "bool"
        }
      ],
      "payable": false,
      "stateMutability": "nonpayable",
      "type": "function"
    },
    {
      "constant": true,
      "inputs": [
        {
          "internalType": "address",
          "name": "account",
          "type": "address"
        }
      ],
      "name": "balanceOf",
      "outputs": [
        {
          "internalType": "uint256",
          "name": "",
          "type": "uint256"
        }
      ],
      "payable": false,
      "stateMutability": "view",
      "type": "function"
    },
    {
      "constant": false,
      "inputs": [
        {
          "internalType": "uint256",
          "name": "amount",
          "type": "uint256"
        }
      ],
      "name": "burn",
      "outputs": [],
      "payable": false,
      "stateMutability": "nonpayable",
      "type": "function"
    },
    {
      "constant": true,
      "inputs": [],
      "name": "callbackEnabled",
      "outputs": [
        {
          "internalType": "bool",
          "name": "",
          "type": "bool"
        }
      ],
      "payable": false,
      "stateMutability": "view",
      "type": "function"
    },
    {
      "constant": true,
      "inputs": [],
      "name": "decimals",
      "outputs": [
        {
          "internalType": "uint8",
          "name": "",
          "type": "uint8"
        }
      ],
      "payable": false,
      "stateMutability": "view",
      "type": "function"
    },
    {
      "constant": false,
      "inputs": [
        {
          "internalType": "address",
          "name": "spender",
          "type": "address"
        },
        {
          "internalType": "uint256",
          "name": "subtractedValue",
          "type": "uint256"
        }
      ],
      "name": "decreaseAllowance",
      "outputs": [
        {
          "internalType": "bool",
          "name": "",
          "type": "bool"
        }
      ],
      "payable": false,
      "stateMutability": "nonpayable",
      "type": "function"
    },
    {
      "constant": false,
      "inputs": [
        {
          "internalType": "bool",
          "name": "_callbackEnabled",
          "type": "bool"
        }
      ],
      "name": "enableCallback",
      "outputs": [],
      "payable": false,
      "stateMutability": "nonpayable",
      "type": "function"
    },
    {
      "constant": false,
      "inputs": [
        {
          "internalType": "address",
          "name": "spender",
          "type": "address"
        },
        {
          "internalType": "uint256",
          "name": "addedValue",
          "type": "uint256"
        }
      ],
      "name": "increaseAllowance",
      "outputs": [
        {
          "internalType": "bool",
          "name": "",
          "type": "bool"
        }
      ],
      "payable": false,
      "stateMutability": "nonpayable",
      "type": "function"
    },
    {
      "constant": true,
      "inputs": [
        {
          "internalType": "address",
          "name": "account",
          "type": "address"
        }
      ],
      "name": "isMinter",
      "outputs": [
        {
          "internalType": "bool",
          "name": "",
          "type": "bool"
        }
      ],
      "payable": false,
      "stateMutability": "view",
      "type": "function"
    },
    {
      "constant": true,
      "inputs": [],
      "name": "isOwner",
      "outputs": [
        {
          "internalType": "bool",
          "name": "",
          "type": "bool"
        }
      ],
      "payable": false,
      "stateMutability": "view",
      "type": "function"
    },
    {
      "constant": false,
      "inputs": [
        {
          "internalType": "address",
          "name": "account",
          "type": "address"
        },
        {
          "internalType": "uint256",
          "name": "amount",
          "type": "uint256"
        }
      ],
      "name": "mint",
      "outputs": [
        {
          "internalType": "bool",
          "name": "",
          "type": "bool"
        }
      ],
      "payable": false,
      "stateMutability": "nonpayable",
      "type": "function"
    },
    {
      "constant": true,
      "inputs": [],
      "name": "name",
      "outputs": [
        {
          "internalType": "string",
          "name": "",
          "type": "string"
        }
      ],
      "payable": false,
      "stateMutability": "view",
      "type": "function"
    },
    {
      "constant": true,
      "inputs": [],
      "name": "owner",
      "outputs": [
        {
          "internalType": "address",
          "name": "",
          "type": "address"
        }
      ],
      "payable": false,
      "stateMutability": "view",
      "type": "function"
    },
    {
      "constant": false,
      "inputs": [
        {
          "internalType": "address",
          "name": "target",
          "type": "address"
        }
      ],
      "name": "renounceMinter",
      "outputs": [],
      "payable": false,
      "stateMutability": "nonpayable",
      "type": "function"
    },
    {
      "constant": false,
      "inputs": [],
      "name": "renounceMinter",
      "outputs": [],
      "payable": false,
      "stateMutability": "nonpayable",
      "type": "function"
    },
    {
      "constant": false,
      "inputs": [
        {
          "internalType": "address",
          "name": "target",
          "type": "address"
        }
      ],
      "name": "renounceOwnership",
      "outputs": [],
      "payable": false,
      "stateMutability": "nonpayable",
      "type": "function"
    },
    {
      "constant": false,
      "inputs": [],
      "name": "renounceOwnership",
      "outputs": [],
      "payable": false,
      "stateMutability": "nonpayable",
      "type": "function"
    },
    {
      "constant": false,
      "inputs": [
        {
          "internalType": "address",
          "name": "target",
          "type": "address"
        }
      ],
      "name": "renouncePauser",
      "outputs": [],
      "payable": false,
      "stateMutability": "nonpayable",
      "type": "function"
    },
    {
      "constant": true,
      "inputs": [],
      "name": "seigManager",
      "outputs": [
        {
          "internalType": "contract SeigManagerI",
          "name": "",
          "type": "address"
        }
      ],
      "payable": false,
      "stateMutability": "view",
      "type": "function"
    },
    {
      "constant": false,
      "inputs": [
        {
          "internalType": "contract SeigManagerI",
          "name": "_seigManager",
          "type": "address"
        }
      ],
      "name": "setSeigManager",
      "outputs": [],
      "payable": false,
      "stateMutability": "nonpayable",
      "type": "function"
    },
    {
      "constant": true,
      "inputs": [
        {
          "internalType": "bytes4",
          "name": "interfaceId",
          "type": "bytes4"
        }
      ],
      "name": "supportsInterface",
      "outputs": [
        {
          "internalType": "bool",
          "name": "",
          "type": "bool"
        }
      ],
      "payable": false,
      "stateMutability": "view",
      "type": "function"
    },
    {
      "constant": true,
      "inputs": [],
      "name": "symbol",
      "outputs": [
        {
          "internalType": "string",
          "name": "",
          "type": "string"
        }
      ],
      "payable": false,
      "stateMutability": "view",
      "type": "function"
    },
    {
      "constant": true,
      "inputs": [],
      "name": "ton",
      "outputs": [
        {
          "internalType": "contract ERC20Mintable",
          "name": "",
          "type": "address"
        }
      ],
      "payable": false,
      "stateMutability": "view",
      "type": "function"
    },
    {
      "constant": true,
      "inputs": [],
      "name": "totalSupply",
      "outputs": [
        {
          "internalType": "uint256",
          "name": "",
          "type": "uint256"
        }
      ],
      "payable": false,
      "stateMutability": "view",
      "type": "function"
    },
    {
      "constant": false,
      "inputs": [
        {
          "internalType": "address",
          "name": "recipient",
          "type": "address"
        },
        {
          "internalType": "uint256",
          "name": "amount",
          "type": "uint256"
        }
      ],
      "name": "transfer",
      "outputs": [
        {
          "internalType": "bool",
          "name": "",
          "type": "bool"
        }
      ],
      "payable": false,
      "stateMutability": "nonpayable",
      "type": "function"
    },
    {
      "constant": false,
      "inputs": [
        {
          "internalType": "address",
          "name": "sender",
          "type": "address"
        },
        {
          "internalType": "address",
          "name": "recipient",
          "type": "address"
        },
        {
          "internalType": "uint256",
          "name": "amount",
          "type": "uint256"
        }
      ],
      "name": "transferFrom",
      "outputs": [
        {
          "internalType": "bool",
          "name": "",
          "type": "bool"
        }
      ],
      "payable": false,
      "stateMutability": "nonpayable",
      "type": "function"
    },
    {
      "constant": false,
      "inputs": [
        {
          "internalType": "address",
          "name": "target",
          "type": "address"
        },
        {
          "internalType": "address",
          "name": "newOwner",
          "type": "address"
        }
      ],
      "name": "transferOwnership",
      "outputs": [],
      "payable": false,
      "stateMutability": "nonpayable",
      "type": "function"
    },
    {
      "constant": false,
      "inputs": [
        {
          "internalType": "address",
          "name": "newOwner",
          "type": "address"
        }
      ],
      "name": "transferOwnership",
      "outputs": [],
      "payable": false,
      "stateMutability": "nonpayable",
      "type": "function"
    },
    {
      "constant": false,
      "inputs": [
        {
          "internalType": "address",
          "name": "owner",
          "type": "address"
        },
        {
          "internalType": "address",
          "name": "spender",
          "type": "address"
        },
        {
          "internalType": "uint256",
          "name": "tonAmount",
          "type": "uint256"
        },
        {
          "internalType": "bytes",
          "name": "data",
          "type": "bytes"
        }
      ],
      "name": "onApprove",
      "outputs": [
        {
          "internalType": "bool",
          "name": "",
          "type": "bool"
        }
      ],
      "payable": false,
      "stateMutability": "nonpayable",
      "type": "function"
    },
    {
      "constant": false,
      "inputs": [
        {
          "internalType": "address",
          "name": "account",
          "type": "address"
        },
        {
          "internalType": "uint256",
          "name": "amount",
          "type": "uint256"
        }
      ],
      "name": "burnFrom",
      "outputs": [],
      "payable": false,
      "stateMutability": "nonpayable",
      "type": "function"
    },
    {
      "constant": false,
      "inputs": [
        {
          "internalType": "uint256",
          "name": "wtonAmount",
          "type": "uint256"
        }
      ],
      "name": "swapToTON",
      "outputs": [
        {
          "internalType": "bool",
          "name": "",
          "type": "bool"
        }
      ],
      "payable": false,
      "stateMutability": "nonpayable",
      "type": "function"
    },
    {
      "constant": false,
      "inputs": [
        {
          "internalType": "uint256",
          "name": "tonAmount",
          "type": "uint256"
        }
      ],
      "name": "swapFromTON",
      "outputs": [
        {
          "internalType": "bool",
          "name": "",
          "type": "bool"
        }
      ],
      "payable": false,
      "stateMutability": "nonpayable",
      "type": "function"
    },
    {
      "constant": false,
      "inputs": [
        {
          "internalType": "address",
          "name": "to",
          "type": "address"
        },
        {
          "internalType": "uint256",
          "name": "wtonAmount",
          "type": "uint256"
        }
      ],
      "name": "swapToTONAndTransfer",
      "outputs": [
        {
          "internalType": "bool",
          "name": "",
          "type": "bool"
        }
      ],
      "payable": false,
      "stateMutability": "nonpayable",
      "type": "function"
    },
    {
      "constant": false,
      "inputs": [
        {
          "internalType": "address",
          "name": "to",
          "type": "address"
        },
        {
          "internalType": "uint256",
          "name": "tonAmount",
          "type": "uint256"
        }
      ],
      "name": "swapFromTONAndTransfer",
      "outputs": [
        {
          "internalType": "bool",
          "name": "",
          "type": "bool"
        }
      ],
      "payable": false,
      "stateMutability": "nonpayable",
      "type": "function"
    }
  ],
  "bytecode": "0x60806040523480156200001157600080fd5b506040516200306b3803806200306b833981810160405260208110156200003757600080fd5b5051604080518082018252600b81527f5772617070656420544f4e0000000000000000000000000000000000000000006020828101919091528251808401909352600483527f57544f4e00000000000000000000000000000000000000000000000000000000908301526000805460ff1916600117905590601b620000d7620000c86001600160e01b03620002dc16565b6001600160e01b03620002e116565b6000620000ec6001600160e01b03620002dc16565b600580546001600160a01b0319166001600160a01b038316908117909155604051919250906000907f8be0079c531659141344cd1fd0a4f28419497f9722a3daafe3b4186f6b6457e0908290a35082516200014f9060069060208601906200052c565b508151620001659060079060208501906200052c565b506008805460ff191660ff9290921691909117905550620001a890507f01ffc9a70000000000000000000000000000000000000000000000000000000062000333565b620001dc7f4273ca16000000000000000000000000000000000000000000000000000000006001600160e01b036200033316565b806001600160a01b031663313ce5676040518163ffffffff1660e01b815260040160206040518083038186803b1580156200021657600080fd5b505afa1580156200022b573d6000803e3d6000fd5b505050506040513d60208110156200024257600080fd5b505160ff16601214620002b657604080517f08c379a000000000000000000000000000000000000000000000000000000000815260206004820181905260248201527f57544f4e3a20646563696d616c73206f6620544f4e206d757374206265203138604482015290519081900360640190fd5b600a80546001600160a01b0319166001600160a01b0392909216919091179055620005ce565b335b90565b620002fc8160046200040260201b620020be1790919060201c565b6040516001600160a01b038216907f6ae172837ea30b801fbfcdd4108aa1d5bf8ff775444fd70256b44e6bf3dfc3f690600090a250565b7fffffffff000000000000000000000000000000000000000000000000000000008082161415620003c557604080517f08c379a000000000000000000000000000000000000000000000000000000000815260206004820152601c60248201527f4552433136353a20696e76616c696420696e7465726661636520696400000000604482015290519081900360640190fd5b7fffffffff00000000000000000000000000000000000000000000000000000000166000908152600960205260409020805460ff19166001179055565b6200041782826001600160e01b03620004a916565b156200048457604080517f08c379a000000000000000000000000000000000000000000000000000000000815260206004820152601f60248201527f526f6c65733a206163636f756e7420616c72656164792068617320726f6c6500604482015290519081900360640190fd5b6001600160a01b0316600090815260209190915260409020805460ff19166001179055565b60006001600160a01b0382166200050c576040517f08c379a0000000000000000000000000000000000000000000000000000000008152600401808060200182810382526022815260200180620030496022913960400191505060405180910390fd5b506001600160a01b03166000908152602091909152604090205460ff1690565b828054600181600116156101000203166002900490600052602060002090601f016020900481019282601f106200056f57805160ff19168380011785556200059f565b828001600101855582156200059f579182015b828111156200059f57825182559160200191906001019062000582565b50620005ad929150620005b1565b5090565b620002de91905b80821115620005ad5760008155600101620005b8565b612a6b80620005de6000396000f3fe608060405234801561001057600080fd5b50600436106102275760003560e01c806370a0823111610130578063a457c2d7116100b8578063dd62ed3e1161007c578063dd62ed3e146107a3578063e34869d7146107d1578063e3b99e85146107ee578063f2fde38b1461081a578063f53fe70f1461084057610227565b8063a457c2d714610662578063a9059cbb1461068e578063aa271e1a146106ba578063cae9ca51146106e0578063cc48b9471461079b57610227565b80638da5cb5b116100ff5780638da5cb5b1461061c5780638f32d59b1461062457806395d89b411461062c578063983b2d5614610634578063986502751461065a57610227565b806370a082311461059c578063715018a6146105c25780637657f20a146105ca57806379cc6790146105f057610227565b806340c10f19116101b3578063588420b711610182578063588420b7146104f05780635f112c681461051c57806363380113146105425780636d4354211461054a5780636fb7f5581461057857610227565b806340c10f19146103f157806341eb24bb1461041d5780634273ca161461044357806342966c68146104d357610227565b806323b872dd116101fa57806323b872dd1461032a5780633113ed5c14610360578063313ce5671461038157806338bf3cfa1461039f57806339509351146103c557610227565b806301ffc9a71461022c57806306fdde0314610267578063095ea7b3146102e457806318160ddd14610310575b600080fd5b6102536004803603602081101561024257600080fd5b50356001600160e01b03191661085d565b604080519115158252519081900360200190f35b61026f61087c565b6040805160208082528351818301528351919283929083019185019080838360005b838110156102a9578181015183820152602001610291565b50505050905090810190601f1680156102d65780820380516001836020036101000a031916815260200191505b509250505060405180910390f35b610253600480360360408110156102fa57600080fd5b506001600160a01b038135169060200135610912565b61031861092f565b60408051918252519081900360200190f35b6102536004803603606081101561034057600080fd5b506001600160a01b03813581169160208101359091169060400135610935565b61037f6004803603602081101561037657600080fd5b503515156109a4565b005b610389610a09565b6040805160ff9092168252519081900360200190f35b61037f600480360360208110156103b557600080fd5b50356001600160a01b0316610a12565b610253600480360360408110156103db57600080fd5b506001600160a01b038135169060200135610aaf565b6102536004803603604081101561040757600080fd5b506001600160a01b038135169060200135610b08565b61037f6004803603602081101561043357600080fd5b50356001600160a01b0316610b5f565b6102536004803603608081101561045957600080fd5b6001600160a01b0382358116926020810135909116916040820135919081019060808101606082013564010000000081111561049457600080fd5b8201836020820111156104a657600080fd5b803590602001918460018302840111640100000000831117156104c857600080fd5b509092509050610be1565b61037f600480360360208110156104e957600080fd5b5035610cc0565b6102536004803603604081101561050657600080fd5b506001600160a01b038135169060200135610cd4565b61037f6004803603602081101561053257600080fd5b50356001600160a01b0316610d44565b610253610dc6565b61037f6004803603604081101561056057600080fd5b506001600160a01b0381358116916020013516610dd6565b610580610e91565b604080516001600160a01b039092168252519081900360200190f35b610318600480360360208110156105b257600080fd5b50356001600160a01b0316610ea5565b61037f610ec0565b61037f600480360360208110156105e057600080fd5b50356001600160a01b0316610f51565b61037f6004803603604081101561060657600080fd5b506001600160a01b038135169060200135610fc0565b610580610feb565b610253610ffa565b61026f611020565b61037f6004803603602081101561064a57600080fd5b50356001600160a01b0316611081565b61037f6110d0565b6102536004803603604081101561067857600080fd5b506001600160a01b0381351690602001356110e2565b610253600480360360408110156106a457600080fd5b506001600160a01b038135169060200135611150565b610253600480360360208110156106d057600080fd5b50356001600160a01b0316611164565b610253600480360360608110156106f657600080fd5b6001600160a01b038235169160208101359181019060608101604082013564010000000081111561072657600080fd5b82018360208201111561073857600080fd5b8035906020019184600183028401116401000000008311171561075a57600080fd5b91908080601f01602080910402602001604051908101604052809392919081815260200183838082843760009201919091525092955061117d945050505050565b6105806111a8565b610318600480360360408110156107b957600080fd5b506001600160a01b03813581169160200135166111b7565b610253600480360360208110156107e757600080fd5b50356111e2565b6102536004803603604081101561080457600080fd5b506001600160a01b038135169060200135611251565b61037f6004803603602081101561083057600080fd5b50356001600160a01b03166112ac565b6102536004803603602081101561085657600080fd5b50356112fc565b6001600160e01b03191660009081526009602052604090205460ff1690565b60068054604080516020601f60026000196101006001881615020190951694909404938401819004810282018101909252828152606093909290918301828280156109085780601f106108dd57610100808354040283529160200191610908565b820191906000526020600020905b8154815290600101906020018083116108eb57829003601f168201915b5050505050905090565b600061092661091f611357565b848461135b565b50600192915050565b60035490565b6000336001600160a01b03851614806109565750336001600160a01b038416145b6109915760405162461bcd60e51b81526004018080602001828103825260308152602001806128216030913960400191505060405180910390fd5b61099c848484611447565b949350505050565b6109ac610ffa565b6109eb576040805162461bcd60e51b815260206004820181905260248201526000805160206128ca833981519152604482015290519081900360640190fd5b60088054911515600160a81b0260ff60a81b19909216919091179055565b60085460ff1690565b610a1a610ffa565b610a59576040805162461bcd60e51b815260206004820181905260248201526000805160206128ca833981519152604482015290519081900360640190fd5b806001600160a01b031663715018a66040518163ffffffff1660e01b8152600401600060405180830381600087803b158015610a9457600080fd5b505af1158015610aa8573d6000803e3d6000fd5b5050505050565b6000610926610abc611357565b84610b038560026000610acd611357565b6001600160a01b03908116825260208083019390935260409182016000908120918c16815292529020549063ffffffff6114c516565b61135b565b6000610b1a610b15611357565b611164565b610b555760405162461bcd60e51b81526004018080602001828103825260308152602001806128516030913960400191505060405180910390fd5b6109268383611526565b610b67610ffa565b610ba6576040805162461bcd60e51b815260206004820181905260248201526000805160206128ca833981519152604482015290519081900360640190fd5b806001600160a01b0316636ef8d66d6040518163ffffffff1660e01b8152600401600060405180830381600087803b158015610a9457600080fd5b600a546000906001600160a01b03163314610c2d5760405162461bcd60e51b81526004018080602001828103825260268152602001806129c26026913960400191505060405180910390fd5b610c388687866115f8565b506000610c448561162a565b9050600080610c8886868080601f01602080910402602001604051908101604052809392919081815260200183838082843760009201919091525061163392505050565b91509150610c9789838561135b565b6060610ca282611655565b9050610cb08a84868461167f565b5060019998505050505050505050565b610cd1610ccb611357565b8261192e565b50565b6000805460ff16610d1a576040805162461bcd60e51b815260206004820152601f6024820152600080516020612740833981519152604482015290519081900360640190fd5b6000805460ff19169055610d2f3384846115f8565b90506000805460ff1916600117905592915050565b610d4c610ffa565b610d8b576040805162461bcd60e51b815260206004820181905260248201526000805160206128ca833981519152604482015290519081900360640190fd5b806001600160a01b031663986502756040518163ffffffff1660e01b8152600401600060405180830381600087803b158015610a9457600080fd5b600854600160a81b900460ff1681565b610dde610ffa565b610e1d576040805162461bcd60e51b815260206004820181905260248201526000805160206128ca833981519152604482015290519081900360640190fd5b816001600160a01b031663f2fde38b826040518263ffffffff1660e01b815260040180826001600160a01b03166001600160a01b03168152602001915050600060405180830381600087803b158015610e7557600080fd5b505af1158015610e89573d6000803e3d6000fd5b505050505050565b60085461010090046001600160a01b031681565b6001600160a01b031660009081526001602052604090205490565b610ec8610ffa565b610f07576040805162461bcd60e51b815260206004820181905260248201526000805160206128ca833981519152604482015290519081900360640190fd5b6005546040516000916001600160a01b0316907f8be0079c531659141344cd1fd0a4f28419497f9722a3daafe3b4186f6b6457e0908390a3600580546001600160a01b0319169055565b610f59610ffa565b610f98576040805162461bcd60e51b815260206004820181905260248201526000805160206128ca833981519152604482015290519081900360640190fd5b600880546001600160a01b0390921661010002610100600160a81b0319909216919091179055565b610fc933611164565b15610fdd57610fd8828261192e565b610fe7565b610fe782826119c9565b5050565b6005546001600160a01b031690565b6005546000906001600160a01b0316611011611357565b6001600160a01b031614905090565b60078054604080516020601f60026000196101006001881615020190951694909404938401819004810282018101909252828152606093909290918301828280156109085780601f106108dd57610100808354040283529160200191610908565b61108c610b15611357565b6110c75760405162461bcd60e51b81526004018080602001828103825260308152602001806128516030913960400191505060405180910390fd5b610cd1816119d3565b6110e06110db611357565b611a1b565b565b60006109266110ef611357565b84610b0385604051806060016040528060258152602001612a126025913960026000611119611357565b6001600160a01b03908116825260208083019390935260409182016000908120918d1681529252902054919063ffffffff611a6316565b600061092661115d611357565b8484611abd565b600061117760048363ffffffff611b9316565b92915050565b60006111898484610912565b61119257600080fd5b61119e3385858561167f565b5060019392505050565b600a546001600160a01b031681565b6001600160a01b03918216600090815260026020908152604080832093909416825291909152205490565b6000805460ff16611228576040805162461bcd60e51b815260206004820152601f6024820152600080516020612740833981519152604482015290519081900360640190fd5b6000805460ff1916905561123d3380846115f8565b90506000805460ff19166001179055919050565b6000805460ff16611297576040805162461bcd60e51b815260206004820152601f6024820152600080516020612740833981519152604482015290519081900360640190fd5b6000805460ff19169055610d2f833384611bfa565b6112b4610ffa565b6112f3576040805162461bcd60e51b815260206004820181905260248201526000805160206128ca833981519152604482015290519081900360640190fd5b610cd181611d5f565b6000805460ff16611342576040805162461bcd60e51b815260206004820152601f6024820152600080516020612740833981519152604482015290519081900360640190fd5b6000805460ff1916905561123d338084611bfa565b3390565b6001600160a01b0383166113a05760405162461bcd60e51b81526004018080602001828103825260248152602001806129766024913960400191505060405180910390fd5b6001600160a01b0382166113e55760405162461bcd60e51b81526004018080602001828103825260228152602001806127a86022913960400191505060405180910390fd5b6001600160a01b03808416600081815260026020908152604080832094871680845294825291829020859055815185815291517f8c5be1e5ebec7d5bd14f71427d1e84f3dd0314c0f7b2291e5b200ac8c7c3b9259281900390910190a3505050565b6000611454848484611abd565b61119e84611460611357565b610b03856040518060600160405280602881526020016128a2602891396001600160a01b038a1660009081526002602052604081209061149e611357565b6001600160a01b03168152602081019190915260400160002054919063ffffffff611a6316565b60008282018381101561151f576040805162461bcd60e51b815260206004820152601b60248201527f536166654d6174683a206164646974696f6e206f766572666c6f770000000000604482015290519081900360640190fd5b9392505050565b6115308282611e00565b600854600160a81b900460ff168015611558575060085461010090046001600160a01b031615155b15610fe75760085460408051634a39314960e01b81526000600482018190526001600160a01b03868116602484015260448301869052925161010090940490921692634a39314992606480840193602093929083900390910190829087803b1580156115c357600080fd5b505af11580156115d7573d6000803e3d6000fd5b505050506040513d60208110156115ed57600080fd5b5051610fe757600080fd5b600061160c836116078461162a565b611526565b600a5461119e906001600160a01b031685308563ffffffff611ef216565b633b9aca000290565b600080825160401461164457600080fd5b505060208101516040909101519091565b60408051602080825281830190925260609160208201818038833950505060208101929092525090565b632139e50b60e11b6116918482611f52565b6116cc5760405162461bcd60e51b81526004018080602001828103825260318152602001806127ca6031913960400191505060405180910390fd5b60006060856001600160a01b0316838888888860405160240180856001600160a01b03166001600160a01b03168152602001846001600160a01b03166001600160a01b0316815260200183815260200180602001828103825283818151815260200191508051906020019080838360005b8381101561175557818101518382015260200161173d565b50505050905090810190601f1680156117825780820380516001836020036101000a031916815260200191505b5060408051601f198184030181529181526020820180516001600160e01b03166001600160e01b0319909a16999099178952518151919890975087965094509250829150849050835b602083106117ea5780518252601f1990920191602091820191016117cb565b6001836020036101000a0380198251168184511680821785525050505050509050019150506000604051808303816000865af19150503d806000811461184c576040519150601f19603f3d011682016040523d82523d6000602084013e611851565b606091505b50915091508181906118e15760405162461bcd60e51b81526004018080602001828103825283818151815260200191508051906020019080838360005b838110156118a657818101518382015260200161188e565b50505050905090810190601f1680156118d35780820380516001836020036101000a031916815260200191505b509250505060405180910390fd5b5060208101519150816119255760405162461bcd60e51b815260040180806020018281038252602881526020018061299a6028913960400191505060405180910390fd5b50505050505050565b6119388282611f6e565b600854600160a81b900460ff168015611960575060085461010090046001600160a01b031615155b15610fe75760085460408051634a39314960e01b81526001600160a01b0385811660048301526000602483018190526044830186905292516101009094041692634a39314992606480840193602093929083900390910190829087803b1580156115c357600080fd5b610fe7828261206a565b6119e460048263ffffffff6120be16565b6040516001600160a01b038216907f6ae172837ea30b801fbfcdd4108aa1d5bf8ff775444fd70256b44e6bf3dfc3f690600090a250565b611a2c60048263ffffffff61213f16565b6040516001600160a01b038216907fe94479a9f7e1952cc78f2d6baab678adc1b772d936c6583def489e524cb6669290600090a250565b60008184841115611ab55760405162461bcd60e51b81526020600482018181528351602484015283519092839260449091019190850190808383600083156118a657818101518382015260200161188e565b505050900390565b611ac88383836121a6565b600854600160a81b900460ff168015611af0575060085461010090046001600160a01b031615155b15611b8e5760085460408051634a39314960e01b81526001600160a01b038681166004830152858116602483015260448201859052915161010090930490911691634a393149916064808201926020929091908290030181600087803b158015611b5957600080fd5b505af1158015611b6d573d6000803e3d6000fd5b505050506040513d6020811015611b8357600080fd5b5051611b8e57600080fd5b505050565b60006001600160a01b038216611bda5760405162461bcd60e51b81526004018080602001828103825260228152602001806128ea6022913960400191505060405180910390fd5b506001600160a01b03166000908152602091909152604090205460ff1690565b6000611c06838361192e565b6000611c1183612304565b600a54604080516370a0823160e01b815230600482015290519293506000926001600160a01b03909216916370a0823191602480820192602092909190829003018186803b158015611c6257600080fd5b505afa158015611c76573d6000803e3d6000fd5b505050506040513d6020811015611c8c57600080fd5b5051905081811015611d3657600a546001600160a01b03166340c10f1930611cba858563ffffffff61230e16565b6040518363ffffffff1660e01b815260040180836001600160a01b03166001600160a01b0316815260200182815260200192505050602060405180830381600087803b158015611d0957600080fd5b505af1158015611d1d573d6000803e3d6000fd5b505050506040513d6020811015611d3357600080fd5b50505b600a54611d53906001600160a01b0316878463ffffffff61235016565b50600195945050505050565b6001600160a01b038116611da45760405162461bcd60e51b81526004018080602001828103825260268152602001806127826026913960400191505060405180910390fd5b6005546040516001600160a01b038084169216907f8be0079c531659141344cd1fd0a4f28419497f9722a3daafe3b4186f6b6457e090600090a3600580546001600160a01b0319166001600160a01b0392909216919091179055565b6001600160a01b038216611e5b576040805162461bcd60e51b815260206004820152601f60248201527f45524332303a206d696e7420746f20746865207a65726f206164647265737300604482015290519081900360640190fd5b600354611e6e908263ffffffff6114c516565b6003556001600160a01b038216600090815260016020526040902054611e9a908263ffffffff6114c516565b6001600160a01b03831660008181526001602090815260408083209490945583518581529351929391927fddf252ad1be2c89b69c2b068fc378daa952ba7f163c4a11628f55a4df523b3ef9281900390910190a35050565b604080516001600160a01b0385811660248301528416604482015260648082018490528251808303909101815260849091019091526020810180516001600160e01b03166323b872dd60e01b179052611f4c90859061239e565b50505050565b6000611f5d83612556565b801561151f575061151f8383612589565b6001600160a01b038216611fb35760405162461bcd60e51b81526004018080602001828103825260218152602001806129306021913960400191505060405180910390fd5b611ff681604051806060016040528060228152602001612760602291396001600160a01b038516600090815260016020526040902054919063ffffffff611a6316565b6001600160a01b038316600090815260016020526040902055600354612022908263ffffffff61230e16565b6003556040805182815290516000916001600160a01b038516917fddf252ad1be2c89b69c2b068fc378daa952ba7f163c4a11628f55a4df523b3ef9181900360200190a35050565b612074828261192e565b610fe782612080611357565b610b038460405180606001604052806024815260200161290c602491396001600160a01b03881660009081526002602052604081209061149e611357565b6120c88282611b93565b1561211a576040805162461bcd60e51b815260206004820152601f60248201527f526f6c65733a206163636f756e7420616c72656164792068617320726f6c6500604482015290519081900360640190fd5b6001600160a01b0316600090815260209190915260409020805460ff19166001179055565b6121498282611b93565b6121845760405162461bcd60e51b81526004018080602001828103825260218152602001806128816021913960400191505060405180910390fd5b6001600160a01b0316600090815260209190915260409020805460ff19169055565b6001600160a01b0383166121eb5760405162461bcd60e51b81526004018080602001828103825260258152602001806129516025913960400191505060405180910390fd5b6001600160a01b0382166122305760405162461bcd60e51b815260040180806020018281038252602381526020018061271d6023913960400191505060405180910390fd5b612273816040518060600160405280602681526020016127fb602691396001600160a01b038616600090815260016020526040902054919063ffffffff611a6316565b6001600160a01b0380851660009081526001602052604080822093909355908416815220546122a8908263ffffffff6114c516565b6001600160a01b0380841660008181526001602090815260409182902094909455805185815290519193928716927fddf252ad1be2c89b69c2b068fc378daa952ba7f163c4a11628f55a4df523b3ef92918290030190a3505050565b633b9aca00900490565b600061151f83836040518060400160405280601e81526020017f536166654d6174683a207375627472616374696f6e206f766572666c6f770000815250611a63565b604080516001600160a01b038416602482015260448082018490528251808303909101815260649091019091526020810180516001600160e01b031663a9059cbb60e01b179052611b8e9084905b6123b0826001600160a01b03166125af565b612401576040805162461bcd60e51b815260206004820152601f60248201527f5361666545524332303a2063616c6c20746f206e6f6e2d636f6e747261637400604482015290519081900360640190fd5b60006060836001600160a01b0316836040518082805190602001908083835b6020831061243f5780518252601f199092019160209182019101612420565b6001836020036101000a0380198251168184511680821785525050505050509050019150506000604051808303816000865af19150503d80600081146124a1576040519150601f19603f3d011682016040523d82523d6000602084013e6124a6565b606091505b5091509150816124fd576040805162461bcd60e51b815260206004820181905260248201527f5361666545524332303a206c6f772d6c6576656c2063616c6c206661696c6564604482015290519081900360640190fd5b805115611f4c5780806020019051602081101561251957600080fd5b5051611f4c5760405162461bcd60e51b815260040180806020018281038252602a8152602001806129e8602a913960400191505060405180910390fd5b6000612569826301ffc9a760e01b612589565b80156111775750612582826001600160e01b0319612589565b1592915050565b600080600061259885856125e8565b915091508180156125a65750805b95945050505050565b6000813f7fc5d2460186f7233c927e7db2dcc703c0e500b653ca82273b7bfad8045d85a47081811480159061099c575050151592915050565b604080516001600160e01b0319831660248083019190915282518083039091018152604490910182526020810180516001600160e01b03166301ffc9a760e01b1781529151815160009384939284926060926001600160a01b038a169261753092879282918083835b602083106126705780518252601f199092019160209182019101612651565b6001836020036101000a0380198251168184511680821785525050505050509050019150506000604051808303818686fa925050503d80600081146126d1576040519150601f19603f3d011682016040523d82523d6000602084013e6126d6565b606091505b50915091506020815110156126f45760008094509450505050612715565b8181806020019051602081101561270a57600080fd5b505190955093505050505b925092905056fe45524332303a207472616e7366657220746f20746865207a65726f20616464726573735265656e7472616e637947756172643a207265656e7472616e742063616c6c0045524332303a206275726e20616d6f756e7420657863656564732062616c616e63654f776e61626c653a206e6577206f776e657220697320746865207a65726f206164647265737345524332303a20617070726f766520746f20746865207a65726f206164647265737345524332304f6e417070726f76653a207370656e64657220646f65736e277420737570706f7274206f6e417070726f766545524332303a207472616e7366657220616d6f756e7420657863656564732062616c616e636553656967546f6b656e3a206f6e6c792073656e646572206f7220726563697069656e742063616e207472616e736665724d696e746572526f6c653a2063616c6c657220646f6573206e6f74206861766520746865204d696e74657220726f6c65526f6c65733a206163636f756e7420646f6573206e6f74206861766520726f6c6545524332303a207472616e7366657220616d6f756e74206578636565647320616c6c6f77616e63654f776e61626c653a2063616c6c6572206973206e6f7420746865206f776e6572526f6c65733a206163636f756e7420697320746865207a65726f206164647265737345524332303a206275726e20616d6f756e74206578636565647320616c6c6f77616e636545524332303a206275726e2066726f6d20746865207a65726f206164647265737345524332303a207472616e736665722066726f6d20746865207a65726f206164647265737345524332303a20617070726f76652066726f6d20746865207a65726f206164647265737345524332304f6e417070726f76653a206661696c656420746f2063616c6c206f6e417070726f766557544f4e3a206f6e6c792061636365707420544f4e20617070726f76652063616c6c6261636b5361666545524332303a204552433230206f7065726174696f6e20646964206e6f74207375636365656445524332303a2064656372656173656420616c6c6f77616e63652062656c6f77207a65726fa265627a7a72315820f429721bff13b04147fc8b6afb2055b2014a36ceb788c583aee079d37a2a8af464736f6c634300050c0032526f6c65733a206163636f756e7420697320746865207a65726f2061646472657373",
  "source": "pragma solidity ^0.5.12;\n\nimport { Ownable } from \"../../../node_modules/openzeppelin-solidity/contracts/ownership/Ownable.sol\";\nimport { SafeMath } from \"../../../node_modules/openzeppelin-solidity/contracts/math/SafeMath.sol\";\n\nimport { IERC20 } from \"../../../node_modules/openzeppelin-solidity/contracts/token/ERC20/IERC20.sol\";\nimport { ERC20 } from \"../../../node_modules/openzeppelin-solidity/contracts/token/ERC20/ERC20.sol\";\nimport { ERC20Mintable } from \"../../../node_modules/openzeppelin-solidity/contracts/token/ERC20/ERC20Mintable.sol\";\nimport { ERC20Burnable } from \"../../../node_modules/openzeppelin-solidity/contracts/token/ERC20/ERC20Burnable.sol\";\nimport { ERC20Detailed } from \"../../../node_modules/openzeppelin-solidity/contracts/token/ERC20/ERC20Detailed.sol\";\nimport { SafeERC20 } from \"../../../node_modules/openzeppelin-solidity/contracts/token/ERC20/SafeERC20.sol\";\n\nimport { ReentrancyGuard } from \"../../../node_modules/openzeppelin-solidity/contracts/utils/ReentrancyGuard.sol\";\nimport { ERC165 } from \"../../../node_modules/openzeppelin-solidity/contracts/introspection/ERC165.sol\";\nimport { ERC165Checker } from \"../../../node_modules/openzeppelin-solidity/contracts/introspection/ERC165Checker.sol\";\n\nimport { DSMath } from \"../../../node_modules/coinage-token/contracts/lib/DSMath.sol\";\n\nimport { SeigManagerI } from \"../interfaces/SeigManagerI.sol\";\n\nimport { SeigToken } from \"./SeigToken.sol\";\nimport { OnApprove } from \"./OnApprove.sol\";\n\n\ncontract WTON is DSMath, ReentrancyGuard, Ownable, ERC20Mintable, ERC20Burnable, ERC20Detailed, SeigToken, OnApprove {\n  using SafeERC20 for ERC20Mintable;\n\n  ERC20Mintable public ton;\n\n  constructor (\n    ERC20Mintable _ton\n  )\n    public\n    ERC20Detailed(\"Wrapped TON\", \"WTON\", 27)\n  {\n    require(ERC20Detailed(address(_ton)).decimals() == 18, \"WTON: decimals of TON must be 18\");\n    ton = _ton;\n  }\n\n  //////////////////////\n  // TON Approve callback\n  //////////////////////\n\n  function onApprove(\n    address owner,\n    address spender,\n    uint256 tonAmount,\n    bytes calldata data\n  ) external returns (bool) {\n    require(msg.sender == address(ton), \"WTON: only accept TON approve callback\");\n\n    // swap owner's TON to WTON\n    _swapFromTON(owner, owner, tonAmount);\n\n    uint256 wtonAmount = _toRAY(tonAmount);\n    (address depositManager, address rootchain) = _decodeTONApproveData(data);\n\n    // approve WTON to DepositManager\n    _approve(owner, depositManager, wtonAmount);\n\n    // call DepositManager.onApprove to deposit WTON\n    bytes memory depositManagerOnApproveData = _encodeDepositManagerOnApproveData(rootchain);\n    _callOnApprove(owner, depositManager, wtonAmount, depositManagerOnApproveData);\n\n    return true;\n  }\n\n  /**\n   * @dev data is 64 bytes of 2 addresses in left-padded 32 bytes\n   */\n  function _decodeTONApproveData(\n    bytes memory data\n  ) internal pure returns (address depositManager, address rootchain) {\n    require(data.length == 0x40);\n\n    assembly {\n      depositManager := mload(add(data, 0x20))\n      rootchain := mload(add(data, 0x40))\n    }\n  }\n\n  function _encodeDepositManagerOnApproveData(\n    address rootchain\n  ) internal pure returns (bytes memory data) {\n    data = new bytes(0x20);\n\n    assembly {\n      mstore(add(data, 0x20), rootchain)\n    }\n  }\n\n\n  //////////////////////\n  // Override ERC20 functions\n  //////////////////////\n\n  function burnFrom(address account, uint256 amount) public {\n    if (isMinter(msg.sender)) {\n      _burn(account, amount);\n      return;\n    }\n\n    super.burnFrom(account, amount);\n  }\n\n  //////////////////////\n  // Swap functions\n  //////////////////////\n\n  /**\n   * @dev swap WTON to TON\n   */\n  function swapToTON(uint256 wtonAmount) public nonReentrant returns (bool) {\n    return _swapToTON(msg.sender, msg.sender, wtonAmount);\n  }\n\n  /**\n   * @dev swap TON to WTON\n   */\n  function swapFromTON(uint256 tonAmount) public nonReentrant returns (bool) {\n    return _swapFromTON(msg.sender, msg.sender, tonAmount);\n  }\n\n  /**\n   * @dev swap WTON to TON, and transfer TON\n   * NOTE: TON's transfer event's `from` argument is not `msg.sender` but `WTON` address.\n   */\n  function swapToTONAndTransfer(address to, uint256 wtonAmount) public nonReentrant returns (bool) {\n    return _swapToTON(to, msg.sender, wtonAmount);\n  }\n\n  /**\n   * @dev swap TON to WTON, and transfer WTON\n   */\n  function swapFromTONAndTransfer(address to, uint256 tonAmount) public nonReentrant returns (bool) {\n    return _swapFromTON(msg.sender, to, tonAmount);\n  }\n\n\n  //////////////////////\n  // Internal functions\n  //////////////////////\n\n  function _swapToTON(address tonAccount, address wtonAccount, uint256 wtonAmount) internal returns (bool) {\n    _burn(wtonAccount, wtonAmount);\n\n    // mint TON if WTON contract has not enough TON to transfer\n    uint256 tonAmount = _toWAD(wtonAmount);\n    uint256 tonBalance = ton.balanceOf(address(this));\n    if (tonBalance < tonAmount) {\n      ton.mint(address(this), tonAmount.sub(tonBalance));\n    }\n\n    ton.safeTransfer(tonAccount, tonAmount);\n    return true;\n  }\n\n  function _swapFromTON(address tonAccount, address wtonAccount, uint256 tonAmount) internal returns (bool) {\n    _mint(wtonAccount, _toRAY(tonAmount));\n    ton.safeTransferFrom(tonAccount, address(this), tonAmount);\n    return true;\n  }\n\n  /**\n   * @dev transform WAD to RAY\n   */\n  function _toRAY(uint256 v) internal pure returns (uint256) {\n    return v * 10 ** 9;\n  }\n\n  /**\n   * @dev transform RAY to WAD\n   */\n  function _toWAD(uint256 v) internal pure returns (uint256) {\n    return v / 10 ** 9;\n  }\n}",
  "sourcePath": "/Users/hwangjaeseung/workspace/plasma-evm-contracts/contracts/stake/tokens/WTON.sol",
  "compiler": {
    "name": "solc",
    "version": "0.5.12+commit.7709ece9.Emscripten.clang"
  },
  "schemaVersion": "3.2.0",
  "updatedAt": "2020-07-03T05:58:27.538Z",
  "devdoc": {
    "methods": {
      "allowance(address,address)": {
        "details": "See {IERC20-allowance}."
      },
      "approve(address,uint256)": {
        "details": "See {IERC20-approve}.     * Requirements:     * - `spender` cannot be the zero address."
      },
      "balanceOf(address)": {
        "details": "See {IERC20-balanceOf}."
      },
      "burn(uint256)": {
        "details": "Destroys `amount` tokens from the caller.     * See {ERC20-_burn}."
      },
      "decimals()": {
        "details": "Returns the number of decimals used to get its user representation. For example, if `decimals` equals `2`, a balance of `505` tokens should be displayed to a user as `5,05` (`505 / 10 ** 2`).     * Tokens usually opt for a value of 18, imitating the relationship between Ether and Wei.     * NOTE: This information is only used for _display_ purposes: it in no way affects any of the arithmetic of the contract, including {IERC20-balanceOf} and {IERC20-transfer}."
      },
      "decreaseAllowance(address,uint256)": {
        "details": "Atomically decreases the allowance granted to `spender` by the caller.     * This is an alternative to {approve} that can be used as a mitigation for problems described in {IERC20-approve}.     * Emits an {Approval} event indicating the updated allowance.     * Requirements:     * - `spender` cannot be the zero address. - `spender` must have allowance for the caller of at least `subtractedValue`."
      },
      "increaseAllowance(address,uint256)": {
        "details": "Atomically increases the allowance granted to `spender` by the caller.     * This is an alternative to {approve} that can be used as a mitigation for problems described in {IERC20-approve}.     * Emits an {Approval} event indicating the updated allowance.     * Requirements:     * - `spender` cannot be the zero address."
      },
      "isOwner()": {
        "details": "Returns true if the caller is the current owner."
      },
      "mint(address,uint256)": {
        "details": "See {ERC20-_mint}.     * Requirements:     * - the caller must have the {MinterRole}."
      },
      "name()": {
        "details": "Returns the name of the token."
      },
      "owner()": {
        "details": "Returns the address of the current owner."
      },
      "renounceOwnership()": {
        "details": "Leaves the contract without owner. It will not be possible to call `onlyOwner` functions anymore. Can only be called by the current owner.     * NOTE: Renouncing ownership will leave the contract without an owner, thereby removing any functionality that is only available to the owner."
      },
      "supportsInterface(bytes4)": {
        "details": "See {IERC165-supportsInterface}.     * Time complexity O(1), guaranteed to always use less than 30 000 gas."
      },
      "swapFromTON(uint256)": {
        "details": "swap TON to WTON"
      },
      "swapFromTONAndTransfer(address,uint256)": {
        "details": "swap TON to WTON, and transfer WTON"
      },
      "swapToTON(uint256)": {
        "details": "swap WTON to TON"
      },
      "swapToTONAndTransfer(address,uint256)": {
        "details": "swap WTON to TON, and transfer TON NOTE: TON's transfer event's `from` argument is not `msg.sender` but `WTON` address."
      },
      "symbol()": {
        "details": "Returns the symbol of the token, usually a shorter version of the name."
      },
      "totalSupply()": {
        "details": "See {IERC20-totalSupply}."
      },
      "transfer(address,uint256)": {
        "details": "See {IERC20-transfer}.     * Requirements:     * - `recipient` cannot be the zero address. - the caller must have a balance of at least `amount`."
      },
      "transferOwnership(address)": {
        "details": "Transfers ownership of the contract to a new account (`newOwner`). Can only be called by the current owner."
      }
    }
  },
  "userdoc": {
    "methods": {
      "burnFrom(address,uint256)": {
        "notice": "///////////////////"
      },
      "onApprove(address,address,uint256,bytes)": {
        "notice": "///////////////////"
      },
      "transferFrom(address,address,uint256)": {
        "notice": "///////////////////"
      }
    }
  }
}